{
	"contracts/EBRToken.sol": {
		"EBRToken": {
			"abi": [
				{
					"inputs": [],
					"stateMutability": "nonpayable",
					"type": "constructor"
				},
				{
					"inputs": [
						{
							"internalType": "address",
							"name": "spender",
							"type": "address"
						},
						{
							"internalType": "uint256",
							"name": "allowance",
							"type": "uint256"
						},
						{
							"internalType": "uint256",
							"name": "needed",
							"type": "uint256"
						}
					],
					"name": "ERC20InsufficientAllowance",
					"type": "error"
				},
				{
					"inputs": [
						{
							"internalType": "address",
							"name": "sender",
							"type": "address"
						},
						{
							"internalType": "uint256",
							"name": "balance",
							"type": "uint256"
						},
						{
							"internalType": "uint256",
							"name": "needed",
							"type": "uint256"
						}
					],
					"name": "ERC20InsufficientBalance",
					"type": "error"
				},
				{
					"inputs": [
						{
							"internalType": "address",
							"name": "approver",
							"type": "address"
						}
					],
					"name": "ERC20InvalidApprover",
					"type": "error"
				},
				{
					"inputs": [
						{
							"internalType": "address",
							"name": "receiver",
							"type": "address"
						}
					],
					"name": "ERC20InvalidReceiver",
					"type": "error"
				},
				{
					"inputs": [
						{
							"internalType": "address",
							"name": "sender",
							"type": "address"
						}
					],
					"name": "ERC20InvalidSender",
					"type": "error"
				},
				{
					"inputs": [
						{
							"internalType": "address",
							"name": "spender",
							"type": "address"
						}
					],
					"name": "ERC20InvalidSpender",
					"type": "error"
				},
				{
					"inputs": [
						{
							"internalType": "address",
							"name": "owner",
							"type": "address"
						}
					],
					"name": "OwnableInvalidOwner",
					"type": "error"
				},
				{
					"inputs": [
						{
							"internalType": "address",
							"name": "account",
							"type": "address"
						}
					],
					"name": "OwnableUnauthorizedAccount",
					"type": "error"
				},
				{
					"anonymous": false,
					"inputs": [
						{
							"indexed": true,
							"internalType": "address",
							"name": "owner",
							"type": "address"
						},
						{
							"indexed": true,
							"internalType": "address",
							"name": "spender",
							"type": "address"
						},
						{
							"indexed": false,
							"internalType": "uint256",
							"name": "value",
							"type": "uint256"
						}
					],
					"name": "Approval",
					"type": "event"
				},
				{
					"anonymous": false,
					"inputs": [
						{
							"indexed": true,
							"internalType": "address",
							"name": "previousOwner",
							"type": "address"
						},
						{
							"indexed": true,
							"internalType": "address",
							"name": "newOwner",
							"type": "address"
						}
					],
					"name": "OwnershipTransferred",
					"type": "event"
				},
				{
					"anonymous": false,
					"inputs": [
						{
							"indexed": true,
							"internalType": "address",
							"name": "from",
							"type": "address"
						},
						{
							"indexed": true,
							"internalType": "address",
							"name": "to",
							"type": "address"
						},
						{
							"indexed": false,
							"internalType": "uint256",
							"name": "value",
							"type": "uint256"
						}
					],
					"name": "Transfer",
					"type": "event"
				},
				{
					"inputs": [
						{
							"internalType": "address",
							"name": "_recycler",
							"type": "address"
						}
					],
					"name": "addRecycler",
					"outputs": [],
					"stateMutability": "nonpayable",
					"type": "function"
				},
				{
					"inputs": [
						{
							"internalType": "address",
							"name": "owner",
							"type": "address"
						},
						{
							"internalType": "address",
							"name": "spender",
							"type": "address"
						}
					],
					"name": "allowance",
					"outputs": [
						{
							"internalType": "uint256",
							"name": "",
							"type": "uint256"
						}
					],
					"stateMutability": "view",
					"type": "function"
				},
				{
					"inputs": [
						{
							"internalType": "address",
							"name": "spender",
							"type": "address"
						},
						{
							"internalType": "uint256",
							"name": "value",
							"type": "uint256"
						}
					],
					"name": "approve",
					"outputs": [
						{
							"internalType": "bool",
							"name": "",
							"type": "bool"
						}
					],
					"stateMutability": "nonpayable",
					"type": "function"
				},
				{
					"inputs": [
						{
							"internalType": "address",
							"name": "account",
							"type": "address"
						}
					],
					"name": "balanceOf",
					"outputs": [
						{
							"internalType": "uint256",
							"name": "",
							"type": "uint256"
						}
					],
					"stateMutability": "view",
					"type": "function"
				},
				{
					"inputs": [],
					"name": "decimals",
					"outputs": [
						{
							"internalType": "uint8",
							"name": "",
							"type": "uint8"
						}
					],
					"stateMutability": "view",
					"type": "function"
				},
				{
					"inputs": [
						{
							"internalType": "address",
							"name": "user",
							"type": "address"
						},
						{
							"internalType": "uint256",
							"name": "weight",
							"type": "uint256"
						}
					],
					"name": "issueReward",
					"outputs": [],
					"stateMutability": "nonpayable",
					"type": "function"
				},
				{
					"inputs": [],
					"name": "name",
					"outputs": [
						{
							"internalType": "string",
							"name": "",
							"type": "string"
						}
					],
					"stateMutability": "view",
					"type": "function"
				},
				{
					"inputs": [],
					"name": "owner",
					"outputs": [
						{
							"internalType": "address",
							"name": "",
							"type": "address"
						}
					],
					"stateMutability": "view",
					"type": "function"
				},
				{
					"inputs": [
						{
							"internalType": "address",
							"name": "",
							"type": "address"
						}
					],
					"name": "recyclers",
					"outputs": [
						{
							"internalType": "bool",
							"name": "",
							"type": "bool"
						}
					],
					"stateMutability": "view",
					"type": "function"
				},
				{
					"inputs": [],
					"name": "renounceOwnership",
					"outputs": [],
					"stateMutability": "nonpayable",
					"type": "function"
				},
				{
					"inputs": [],
					"name": "symbol",
					"outputs": [
						{
							"internalType": "string",
							"name": "",
							"type": "string"
						}
					],
					"stateMutability": "view",
					"type": "function"
				},
				{
					"inputs": [],
					"name": "totalSupply",
					"outputs": [
						{
							"internalType": "uint256",
							"name": "",
							"type": "uint256"
						}
					],
					"stateMutability": "view",
					"type": "function"
				},
				{
					"inputs": [
						{
							"internalType": "address",
							"name": "to",
							"type": "address"
						},
						{
							"internalType": "uint256",
							"name": "value",
							"type": "uint256"
						}
					],
					"name": "transfer",
					"outputs": [
						{
							"internalType": "bool",
							"name": "",
							"type": "bool"
						}
					],
					"stateMutability": "nonpayable",
					"type": "function"
				},
				{
					"inputs": [
						{
							"internalType": "address",
							"name": "from",
							"type": "address"
						},
						{
							"internalType": "address",
							"name": "to",
							"type": "address"
						},
						{
							"internalType": "uint256",
							"name": "value",
							"type": "uint256"
						}
					],
					"name": "transferFrom",
					"outputs": [
						{
							"internalType": "bool",
							"name": "",
							"type": "bool"
						}
					],
					"stateMutability": "nonpayable",
					"type": "function"
				},
				{
					"inputs": [
						{
							"internalType": "address",
							"name": "newOwner",
							"type": "address"
						}
					],
					"name": "transferOwnership",
					"outputs": [],
					"stateMutability": "nonpayable",
					"type": "function"
				}
			],
			"devdoc": {
				"errors": {
					"ERC20InsufficientAllowance(address,uint256,uint256)": [
						{
							"details": "Indicates a failure with the `spender`’s `allowance`. Used in transfers.",
							"params": {
								"allowance": "Amount of tokens a `spender` is allowed to operate with.",
								"needed": "Minimum amount required to perform a transfer.",
								"spender": "Address that may be allowed to operate on tokens without being their owner."
							}
						}
					],
					"ERC20InsufficientBalance(address,uint256,uint256)": [
						{
							"details": "Indicates an error related to the current `balance` of a `sender`. Used in transfers.",
							"params": {
								"balance": "Current balance for the interacting account.",
								"needed": "Minimum amount required to perform a transfer.",
								"sender": "Address whose tokens are being transferred."
							}
						}
					],
					"ERC20InvalidApprover(address)": [
						{
							"details": "Indicates a failure with the `approver` of a token to be approved. Used in approvals.",
							"params": {
								"approver": "Address initiating an approval operation."
							}
						}
					],
					"ERC20InvalidReceiver(address)": [
						{
							"details": "Indicates a failure with the token `receiver`. Used in transfers.",
							"params": {
								"receiver": "Address to which tokens are being transferred."
							}
						}
					],
					"ERC20InvalidSender(address)": [
						{
							"details": "Indicates a failure with the token `sender`. Used in transfers.",
							"params": {
								"sender": "Address whose tokens are being transferred."
							}
						}
					],
					"ERC20InvalidSpender(address)": [
						{
							"details": "Indicates a failure with the `spender` to be approved. Used in approvals.",
							"params": {
								"spender": "Address that may be allowed to operate on tokens without being their owner."
							}
						}
					],
					"OwnableInvalidOwner(address)": [
						{
							"details": "The owner is not a valid owner account. (eg. `address(0)`)"
						}
					],
					"OwnableUnauthorizedAccount(address)": [
						{
							"details": "The caller account is not authorized to perform an operation."
						}
					]
				},
				"events": {
					"Approval(address,address,uint256)": {
						"details": "Emitted when the allowance of a `spender` for an `owner` is set by a call to {approve}. `value` is the new allowance."
					},
					"Transfer(address,address,uint256)": {
						"details": "Emitted when `value` tokens are moved from one account (`from`) to another (`to`). Note that `value` may be zero."
					}
				},
				"kind": "dev",
				"methods": {
					"allowance(address,address)": {
						"details": "Returns the remaining number of tokens that `spender` will be allowed to spend on behalf of `owner` through {transferFrom}. This is zero by default. This value changes when {approve} or {transferFrom} are called."
					},
					"approve(address,uint256)": {
						"details": "See {IERC20-approve}. NOTE: If `value` is the maximum `uint256`, the allowance is not updated on `transferFrom`. This is semantically equivalent to an infinite approval. Requirements: - `spender` cannot be the zero address."
					},
					"balanceOf(address)": {
						"details": "Returns the value of tokens owned by `account`."
					},
					"decimals()": {
						"details": "Returns the number of decimals used to get its user representation. For example, if `decimals` equals `2`, a balance of `505` tokens should be displayed to a user as `5.05` (`505 / 10 ** 2`). Tokens usually opt for a value of 18, imitating the relationship between Ether and Wei. This is the default value returned by this function, unless it's overridden. NOTE: This information is only used for _display_ purposes: it in no way affects any of the arithmetic of the contract, including {IERC20-balanceOf} and {IERC20-transfer}."
					},
					"name()": {
						"details": "Returns the name of the token."
					},
					"owner()": {
						"details": "Returns the address of the current owner."
					},
					"renounceOwnership()": {
						"details": "Leaves the contract without owner. It will not be possible to call `onlyOwner` functions. Can only be called by the current owner. NOTE: Renouncing ownership will leave the contract without an owner, thereby disabling any functionality that is only available to the owner."
					},
					"symbol()": {
						"details": "Returns the symbol of the token, usually a shorter version of the name."
					},
					"totalSupply()": {
						"details": "Returns the value of tokens in existence."
					},
					"transfer(address,uint256)": {
						"details": "See {IERC20-transfer}. Requirements: - `to` cannot be the zero address. - the caller must have a balance of at least `value`."
					},
					"transferFrom(address,address,uint256)": {
						"details": "See {IERC20-transferFrom}. Skips emitting an {Approval} event indicating an allowance update. This is not required by the ERC. See {xref-ERC20-_approve-address-address-uint256-bool-}[_approve]. NOTE: Does not update the allowance if the current allowance is the maximum `uint256`. Requirements: - `from` and `to` cannot be the zero address. - `from` must have a balance of at least `value`. - the caller must have allowance for ``from``'s tokens of at least `value`."
					},
					"transferOwnership(address)": {
						"details": "Transfers ownership of the contract to a new account (`newOwner`). Can only be called by the current owner."
					}
				},
				"version": 1
			},
			"evm": {
				"assembly": "    /* \"contracts/EBRToken.sol\":174:1208  contract EBRToken is ERC20, Ownable {... */\n  mstore(0x40, 0x80)\n    /* \"contracts/EBRToken.sol\":342:539  constructor() ERC20(\"E-Block Reward\", \"EBR\") Ownable(msg.sender) {... */\n  callvalue\n  dup1\n  iszero\n  tag_1\n  jumpi\n  0x00\n  dup1\n  revert\ntag_1:\n  pop\n    /* \"contracts/EBRToken.sol\":395:405  msg.sender */\n  caller\n    /* \"@openzeppelin/contracts/token/ERC20/ERC20.sol\":1582:1695  constructor(string memory name_, string memory symbol_) {... */\n  mload(0x40)\n  dup1\n  0x40\n  add\n  0x40\n  mstore\n  dup1\n  0x0e\n  dup2\n  mstore\n  0x20\n  add\n  0x452d426c6f636b20526577617264000000000000000000000000000000000000\n  dup2\n  mstore\n  pop\n  mload(0x40)\n  dup1\n  0x40\n  add\n  0x40\n  mstore\n  dup1\n  0x03\n  dup2\n  mstore\n  0x20\n  add\n  0x4542520000000000000000000000000000000000000000000000000000000000\n  dup2\n  mstore\n  pop\n    /* \"@openzeppelin/contracts/token/ERC20/ERC20.sol\":1656:1661  name_ */\n  dup2\n    /* \"@openzeppelin/contracts/token/ERC20/ERC20.sol\":1648:1653  _name */\n  0x03\n    /* \"@openzeppelin/contracts/token/ERC20/ERC20.sol\":1648:1661  _name = name_ */\n  swap1\n  dup2\n  tag_6\n  swap2\n  swap1\n  tag_7\n  jump\t// in\ntag_6:\n  pop\n    /* \"@openzeppelin/contracts/token/ERC20/ERC20.sol\":1681:1688  symbol_ */\n  dup1\n    /* \"@openzeppelin/contracts/token/ERC20/ERC20.sol\":1671:1678  _symbol */\n  0x04\n    /* \"@openzeppelin/contracts/token/ERC20/ERC20.sol\":1671:1688  _symbol = symbol_ */\n  swap1\n  dup2\n  tag_8\n  swap2\n  swap1\n  tag_7\n  jump\t// in\ntag_8:\n  pop\n    /* \"@openzeppelin/contracts/token/ERC20/ERC20.sol\":1582:1695  constructor(string memory name_, string memory symbol_) {... */\n  pop\n  pop\n    /* \"@openzeppelin/contracts/access/Ownable.sol\":1297:1298  0 */\n  0x00\n    /* \"@openzeppelin/contracts/access/Ownable.sol\":1273:1299  initialOwner == address(0) */\n  0xffffffffffffffffffffffffffffffffffffffff\n  and\n    /* \"@openzeppelin/contracts/access/Ownable.sol\":1273:1285  initialOwner */\n  dup2\n    /* \"@openzeppelin/contracts/access/Ownable.sol\":1273:1299  initialOwner == address(0) */\n  0xffffffffffffffffffffffffffffffffffffffff\n  and\n  sub\n    /* \"@openzeppelin/contracts/access/Ownable.sol\":1269:1364  if (initialOwner == address(0)) {... */\n  tag_10\n  jumpi\n    /* \"@openzeppelin/contracts/access/Ownable.sol\":1350:1351  0 */\n  0x00\n    /* \"@openzeppelin/contracts/access/Ownable.sol\":1322:1353  OwnableInvalidOwner(address(0)) */\n  mload(0x40)\n  0x1e4fbdf700000000000000000000000000000000000000000000000000000000\n  dup2\n  mstore\n  0x04\n  add\n  tag_11\n  swap2\n  swap1\n  tag_12\n  jump\t// in\ntag_11:\n  mload(0x40)\n  dup1\n  swap2\n  sub\n  swap1\n  revert\n    /* \"@openzeppelin/contracts/access/Ownable.sol\":1269:1364  if (initialOwner == address(0)) {... */\ntag_10:\n    /* \"@openzeppelin/contracts/access/Ownable.sol\":1373:1405  _transferOwnership(initialOwner) */\n  tag_13\n    /* \"@openzeppelin/contracts/access/Ownable.sol\":1392:1404  initialOwner */\n  dup2\n    /* \"@openzeppelin/contracts/access/Ownable.sol\":1373:1391  _transferOwnership */\n  shl(0x20, tag_14)\n    /* \"@openzeppelin/contracts/access/Ownable.sol\":1373:1405  _transferOwnership(initialOwner) */\n  0x20\n  shr\n  jump\t// in\ntag_13:\n    /* \"@openzeppelin/contracts/access/Ownable.sol\":1225:1412  constructor(address initialOwner) {... */\n  pop\n    /* \"contracts/EBRToken.sol\":486:531  _mint(msg.sender, 1000000 * 10 ** decimals()) */\n  tag_16\n    /* \"contracts/EBRToken.sol\":492:502  msg.sender */\n  caller\n    /* \"contracts/EBRToken.sol\":520:530  decimals() */\n  tag_17\n    /* \"contracts/EBRToken.sol\":520:528  decimals */\n  shl(0x20, tag_18)\n    /* \"contracts/EBRToken.sol\":520:530  decimals() */\n  0x20\n  shr\n  jump\t// in\ntag_17:\n    /* \"contracts/EBRToken.sol\":514:516  10 */\n  0x0a\n    /* \"contracts/EBRToken.sol\":514:530  10 ** decimals() */\n  tag_19\n  swap2\n  swap1\n  tag_20\n  jump\t// in\ntag_19:\n    /* \"contracts/EBRToken.sol\":504:511  1000000 */\n  0x0f4240\n    /* \"contracts/EBRToken.sol\":504:530  1000000 * 10 ** decimals() */\n  tag_21\n  swap2\n  swap1\n  tag_22\n  jump\t// in\ntag_21:\n    /* \"contracts/EBRToken.sol\":486:491  _mint */\n  shl(0x20, tag_23)\n    /* \"contracts/EBRToken.sol\":486:531  _mint(msg.sender, 1000000 * 10 ** decimals()) */\n  0x20\n  shr\n  jump\t// in\ntag_16:\n    /* \"contracts/EBRToken.sol\":174:1208  contract EBRToken is ERC20, Ownable {... */\n  jump(tag_24)\n    /* \"@openzeppelin/contracts/access/Ownable.sol\":2912:3099  function _transferOwnership(address newOwner) internal virtual {... */\ntag_14:\n    /* \"@openzeppelin/contracts/access/Ownable.sol\":2985:3001  address oldOwner */\n  0x00\n    /* \"@openzeppelin/contracts/access/Ownable.sol\":3004:3010  _owner */\n  0x05\n  0x00\n  swap1\n  sload\n  swap1\n  0x0100\n  exp\n  swap1\n  div\n  0xffffffffffffffffffffffffffffffffffffffff\n  and\n    /* \"@openzeppelin/contracts/access/Ownable.sol\":2985:3010  address oldOwner = _owner */\n  swap1\n  pop\n    /* \"@openzeppelin/contracts/access/Ownable.sol\":3029:3037  newOwner */\n  dup2\n    /* \"@openzeppelin/contracts/access/Ownable.sol\":3020:3026  _owner */\n  0x05\n  0x00\n    /* \"@openzeppelin/contracts/access/Ownable.sol\":3020:3037  _owner = newOwner */\n  0x0100\n  exp\n  dup2\n  sload\n  dup2\n  0xffffffffffffffffffffffffffffffffffffffff\n  mul\n  not\n  and\n  swap1\n  dup4\n  0xffffffffffffffffffffffffffffffffffffffff\n  and\n  mul\n  or\n  swap1\n  sstore\n  pop\n    /* \"@openzeppelin/contracts/access/Ownable.sol\":3083:3091  newOwner */\n  dup2\n    /* \"@openzeppelin/contracts/access/Ownable.sol\":3052:3092  OwnershipTransferred(oldOwner, newOwner) */\n  0xffffffffffffffffffffffffffffffffffffffff\n  and\n    /* \"@openzeppelin/contracts/access/Ownable.sol\":3073:3081  oldOwner */\n  dup2\n    /* \"@openzeppelin/contracts/access/Ownable.sol\":3052:3092  OwnershipTransferred(oldOwner, newOwner) */\n  0xffffffffffffffffffffffffffffffffffffffff\n  and\n  0x8be0079c531659141344cd1fd0a4f28419497f9722a3daafe3b4186f6b6457e0\n  mload(0x40)\n  mload(0x40)\n  dup1\n  swap2\n  sub\n  swap1\n  log3\n    /* \"@openzeppelin/contracts/access/Ownable.sol\":2975:3099  {... */\n  pop\n    /* \"@openzeppelin/contracts/access/Ownable.sol\":2912:3099  function _transferOwnership(address newOwner) internal virtual {... */\n  pop\n  jump\t// out\n    /* \"@openzeppelin/contracts/token/ERC20/ERC20.sol\":2688:2770  function decimals() public view virtual returns (uint8) {... */\ntag_18:\n    /* \"@openzeppelin/contracts/token/ERC20/ERC20.sol\":2737:2742  uint8 */\n  0x00\n    /* \"@openzeppelin/contracts/token/ERC20/ERC20.sol\":2761:2763  18 */\n  0x12\n    /* \"@openzeppelin/contracts/token/ERC20/ERC20.sol\":2754:2763  return 18 */\n  swap1\n  pop\n    /* \"@openzeppelin/contracts/token/ERC20/ERC20.sol\":2688:2770  function decimals() public view virtual returns (uint8) {... */\n  swap1\n  jump\t// out\n    /* \"@openzeppelin/contracts/token/ERC20/ERC20.sol\":7362:7570  function _mint(address account, uint256 value) internal {... */\ntag_23:\n    /* \"@openzeppelin/contracts/token/ERC20/ERC20.sol\":7451:7452  0 */\n  0x00\n    /* \"@openzeppelin/contracts/token/ERC20/ERC20.sol\":7432:7453  account == address(0) */\n  0xffffffffffffffffffffffffffffffffffffffff\n  and\n    /* \"@openzeppelin/contracts/token/ERC20/ERC20.sol\":7432:7439  account */\n  dup3\n    /* \"@openzeppelin/contracts/token/ERC20/ERC20.sol\":7432:7453  account == address(0) */\n  0xffffffffffffffffffffffffffffffffffffffff\n  and\n  sub\n    /* \"@openzeppelin/contracts/token/ERC20/ERC20.sol\":7428:7519  if (account == address(0)) {... */\n  tag_28\n  jumpi\n    /* \"@openzeppelin/contracts/token/ERC20/ERC20.sol\":7505:7506  0 */\n  0x00\n    /* \"@openzeppelin/contracts/token/ERC20/ERC20.sol\":7476:7508  ERC20InvalidReceiver(address(0)) */\n  mload(0x40)\n  0xec442f0500000000000000000000000000000000000000000000000000000000\n  dup2\n  mstore\n  0x04\n  add\n  tag_29\n  swap2\n  swap1\n  tag_12\n  jump\t// in\ntag_29:\n  mload(0x40)\n  dup1\n  swap2\n  sub\n  swap1\n  revert\n    /* \"@openzeppelin/contracts/token/ERC20/ERC20.sol\":7428:7519  if (account == address(0)) {... */\ntag_28:\n    /* \"@openzeppelin/contracts/token/ERC20/ERC20.sol\":7528:7563  _update(address(0), account, value) */\n  tag_30\n    /* \"@openzeppelin/contracts/token/ERC20/ERC20.sol\":7544:7545  0 */\n  0x00\n    /* \"@openzeppelin/contracts/token/ERC20/ERC20.sol\":7548:7555  account */\n  dup4\n    /* \"@openzeppelin/contracts/token/ERC20/ERC20.sol\":7557:7562  value */\n  dup4\n    /* \"@openzeppelin/contracts/token/ERC20/ERC20.sol\":7528:7535  _update */\n  shl(0x20, tag_31)\n    /* \"@openzeppelin/contracts/token/ERC20/ERC20.sol\":7528:7563  _update(address(0), account, value) */\n  0x20\n  shr\n  jump\t// in\ntag_30:\n    /* \"@openzeppelin/contracts/token/ERC20/ERC20.sol\":7362:7570  function _mint(address account, uint256 value) internal {... */\n  pop\n  pop\n  jump\t// out\n    /* \"@openzeppelin/contracts/token/ERC20/ERC20.sol\":5912:7019  function _update(address from, address to, uint256 value) internal virtual {... */\ntag_31:\n    /* \"@openzeppelin/contracts/token/ERC20/ERC20.sol\":6017:6018  0 */\n  0x00\n    /* \"@openzeppelin/contracts/token/ERC20/ERC20.sol\":6001:6019  from == address(0) */\n  0xffffffffffffffffffffffffffffffffffffffff\n  and\n    /* \"@openzeppelin/contracts/token/ERC20/ERC20.sol\":6001:6005  from */\n  dup4\n    /* \"@openzeppelin/contracts/token/ERC20/ERC20.sol\":6001:6019  from == address(0) */\n  0xffffffffffffffffffffffffffffffffffffffff\n  and\n  sub\n    /* \"@openzeppelin/contracts/token/ERC20/ERC20.sol\":5997:6537  if (from == address(0)) {... */\n  tag_33\n  jumpi\n    /* \"@openzeppelin/contracts/token/ERC20/ERC20.sol\":6153:6158  value */\n  dup1\n    /* \"@openzeppelin/contracts/token/ERC20/ERC20.sol\":6137:6149  _totalSupply */\n  0x02\n  0x00\n    /* \"@openzeppelin/contracts/token/ERC20/ERC20.sol\":6137:6158  _totalSupply += value */\n  dup3\n  dup3\n  sload\n  tag_34\n  swap2\n  swap1\n  tag_35\n  jump\t// in\ntag_34:\n  swap3\n  pop\n  pop\n  dup2\n  swap1\n  sstore\n  pop\n    /* \"@openzeppelin/contracts/token/ERC20/ERC20.sol\":5997:6537  if (from == address(0)) {... */\n  jump(tag_36)\ntag_33:\n    /* \"@openzeppelin/contracts/token/ERC20/ERC20.sol\":6189:6208  uint256 fromBalance */\n  0x00\n    /* \"@openzeppelin/contracts/token/ERC20/ERC20.sol\":6211:6220  _balances */\n  dup1\n    /* \"@openzeppelin/contracts/token/ERC20/ERC20.sol\":6211:6226  _balances[from] */\n  0x00\n    /* \"@openzeppelin/contracts/token/ERC20/ERC20.sol\":6221:6225  from */\n  dup6\n    /* \"@openzeppelin/contracts/token/ERC20/ERC20.sol\":6211:6226  _balances[from] */\n  0xffffffffffffffffffffffffffffffffffffffff\n  and\n  0xffffffffffffffffffffffffffffffffffffffff\n  and\n  dup2\n  mstore\n  0x20\n  add\n  swap1\n  dup2\n  mstore\n  0x20\n  add\n  0x00\n  keccak256\n  sload\n    /* \"@openzeppelin/contracts/token/ERC20/ERC20.sol\":6189:6226  uint256 fromBalance = _balances[from] */\n  swap1\n  pop\n    /* \"@openzeppelin/contracts/token/ERC20/ERC20.sol\":6258:6263  value */\n  dup2\n    /* \"@openzeppelin/contracts/token/ERC20/ERC20.sol\":6244:6255  fromBalance */\n  dup2\n    /* \"@openzeppelin/contracts/token/ERC20/ERC20.sol\":6244:6263  fromBalance < value */\n  lt\n    /* \"@openzeppelin/contracts/token/ERC20/ERC20.sol\":6240:6355  if (fromBalance < value) {... */\n  iszero\n  tag_37\n  jumpi\n    /* \"@openzeppelin/contracts/token/ERC20/ERC20.sol\":6315:6319  from */\n  dup4\n    /* \"@openzeppelin/contracts/token/ERC20/ERC20.sol\":6321:6332  fromBalance */\n  dup2\n    /* \"@openzeppelin/contracts/token/ERC20/ERC20.sol\":6334:6339  value */\n  dup4\n    /* \"@openzeppelin/contracts/token/ERC20/ERC20.sol\":6290:6340  ERC20InsufficientBalance(from, fromBalance, value) */\n  mload(0x40)\n  0xe450d38c00000000000000000000000000000000000000000000000000000000\n  dup2\n  mstore\n  0x04\n  add\n  tag_38\n  swap4\n  swap3\n  swap2\n  swap1\n  tag_39\n  jump\t// in\ntag_38:\n  mload(0x40)\n  dup1\n  swap2\n  sub\n  swap1\n  revert\n    /* \"@openzeppelin/contracts/token/ERC20/ERC20.sol\":6240:6355  if (fromBalance < value) {... */\ntag_37:\n    /* \"@openzeppelin/contracts/token/ERC20/ERC20.sol\":6507:6512  value */\n  dup2\n    /* \"@openzeppelin/contracts/token/ERC20/ERC20.sol\":6493:6504  fromBalance */\n  dup2\n    /* \"@openzeppelin/contracts/token/ERC20/ERC20.sol\":6493:6512  fromBalance - value */\n  sub\n    /* \"@openzeppelin/contracts/token/ERC20/ERC20.sol\":6475:6484  _balances */\n  0x00\n    /* \"@openzeppelin/contracts/token/ERC20/ERC20.sol\":6475:6490  _balances[from] */\n  dup1\n    /* \"@openzeppelin/contracts/token/ERC20/ERC20.sol\":6485:6489  from */\n  dup7\n    /* \"@openzeppelin/contracts/token/ERC20/ERC20.sol\":6475:6490  _balances[from] */\n  0xffffffffffffffffffffffffffffffffffffffff\n  and\n  0xffffffffffffffffffffffffffffffffffffffff\n  and\n  dup2\n  mstore\n  0x20\n  add\n  swap1\n  dup2\n  mstore\n  0x20\n  add\n  0x00\n  keccak256\n    /* \"@openzeppelin/contracts/token/ERC20/ERC20.sol\":6475:6512  _balances[from] = fromBalance - value */\n  dup2\n  swap1\n  sstore\n  pop\n    /* \"@openzeppelin/contracts/token/ERC20/ERC20.sol\":6175:6537  {... */\n  pop\n    /* \"@openzeppelin/contracts/token/ERC20/ERC20.sol\":5997:6537  if (from == address(0)) {... */\ntag_36:\n    /* \"@openzeppelin/contracts/token/ERC20/ERC20.sol\":6565:6566  0 */\n  0x00\n    /* \"@openzeppelin/contracts/token/ERC20/ERC20.sol\":6551:6567  to == address(0) */\n  0xffffffffffffffffffffffffffffffffffffffff\n  and\n    /* \"@openzeppelin/contracts/token/ERC20/ERC20.sol\":6551:6553  to */\n  dup3\n    /* \"@openzeppelin/contracts/token/ERC20/ERC20.sol\":6551:6567  to == address(0) */\n  0xffffffffffffffffffffffffffffffffffffffff\n  and\n  sub\n    /* \"@openzeppelin/contracts/token/ERC20/ERC20.sol\":6547:6972  if (to == address(0)) {... */\n  tag_40\n  jumpi\n    /* \"@openzeppelin/contracts/token/ERC20/ERC20.sol\":6730:6735  value */\n  dup1\n    /* \"@openzeppelin/contracts/token/ERC20/ERC20.sol\":6714:6726  _totalSupply */\n  0x02\n  0x00\n    /* \"@openzeppelin/contracts/token/ERC20/ERC20.sol\":6714:6735  _totalSupply -= value */\n  dup3\n  dup3\n  sload\n  sub\n  swap3\n  pop\n  pop\n  dup2\n  swap1\n  sstore\n  pop\n    /* \"@openzeppelin/contracts/token/ERC20/ERC20.sol\":6547:6972  if (to == address(0)) {... */\n  jump(tag_41)\ntag_40:\n    /* \"@openzeppelin/contracts/token/ERC20/ERC20.sol\":6942:6947  value */\n  dup1\n    /* \"@openzeppelin/contracts/token/ERC20/ERC20.sol\":6925:6934  _balances */\n  0x00\n    /* \"@openzeppelin/contracts/token/ERC20/ERC20.sol\":6925:6938  _balances[to] */\n  dup1\n    /* \"@openzeppelin/contracts/token/ERC20/ERC20.sol\":6935:6937  to */\n  dup5\n    /* \"@openzeppelin/contracts/token/ERC20/ERC20.sol\":6925:6938  _balances[to] */\n  0xffffffffffffffffffffffffffffffffffffffff\n  and\n  0xffffffffffffffffffffffffffffffffffffffff\n  and\n  dup2\n  mstore\n  0x20\n  add\n  swap1\n  dup2\n  mstore\n  0x20\n  add\n  0x00\n  keccak256\n  0x00\n    /* \"@openzeppelin/contracts/token/ERC20/ERC20.sol\":6925:6947  _balances[to] += value */\n  dup3\n  dup3\n  sload\n  add\n  swap3\n  pop\n  pop\n  dup2\n  swap1\n  sstore\n  pop\n    /* \"@openzeppelin/contracts/token/ERC20/ERC20.sol\":6547:6972  if (to == address(0)) {... */\ntag_41:\n    /* \"@openzeppelin/contracts/token/ERC20/ERC20.sol\":7002:7004  to */\n  dup2\n    /* \"@openzeppelin/contracts/token/ERC20/ERC20.sol\":6987:7012  Transfer(from, to, value) */\n  0xffffffffffffffffffffffffffffffffffffffff\n  and\n    /* \"@openzeppelin/contracts/token/ERC20/ERC20.sol\":6996:7000  from */\n  dup4\n    /* \"@openzeppelin/contracts/token/ERC20/ERC20.sol\":6987:7012  Transfer(from, to, value) */\n  0xffffffffffffffffffffffffffffffffffffffff\n  and\n  0xddf252ad1be2c89b69c2b068fc378daa952ba7f163c4a11628f55a4df523b3ef\n    /* \"@openzeppelin/contracts/token/ERC20/ERC20.sol\":7006:7011  value */\n  dup4\n    /* \"@openzeppelin/contracts/token/ERC20/ERC20.sol\":6987:7012  Transfer(from, to, value) */\n  mload(0x40)\n  tag_42\n  swap2\n  swap1\n  tag_43\n  jump\t// in\ntag_42:\n  mload(0x40)\n  dup1\n  swap2\n  sub\n  swap1\n  log3\n    /* \"@openzeppelin/contracts/token/ERC20/ERC20.sol\":5912:7019  function _update(address from, address to, uint256 value) internal virtual {... */\n  pop\n  pop\n  pop\n  jump\t// out\n    /* \"#utility.yul\":7:106   */\ntag_44:\n    /* \"#utility.yul\":59:65   */\n  0x00\n    /* \"#utility.yul\":93:98   */\n  dup2\n    /* \"#utility.yul\":87:99   */\n  mload\n    /* \"#utility.yul\":77:99   */\n  swap1\n  pop\n    /* \"#utility.yul\":7:106   */\n  swap2\n  swap1\n  pop\n  jump\t// out\n    /* \"#utility.yul\":112:292   */\ntag_45:\n    /* \"#utility.yul\":160:237   */\n  0x4e487b7100000000000000000000000000000000000000000000000000000000\n    /* \"#utility.yul\":157:158   */\n  0x00\n    /* \"#utility.yul\":150:238   */\n  mstore\n    /* \"#utility.yul\":257:261   */\n  0x41\n    /* \"#utility.yul\":254:255   */\n  0x04\n    /* \"#utility.yul\":247:262   */\n  mstore\n    /* \"#utility.yul\":281:285   */\n  0x24\n    /* \"#utility.yul\":278:279   */\n  0x00\n    /* \"#utility.yul\":271:286   */\n  revert\n    /* \"#utility.yul\":298:478   */\ntag_46:\n    /* \"#utility.yul\":346:423   */\n  0x4e487b7100000000000000000000000000000000000000000000000000000000\n    /* \"#utility.yul\":343:344   */\n  0x00\n    /* \"#utility.yul\":336:424   */\n  mstore\n    /* \"#utility.yul\":443:447   */\n  0x22\n    /* \"#utility.yul\":440:441   */\n  0x04\n    /* \"#utility.yul\":433:448   */\n  mstore\n    /* \"#utility.yul\":467:471   */\n  0x24\n    /* \"#utility.yul\":464:465   */\n  0x00\n    /* \"#utility.yul\":457:472   */\n  revert\n    /* \"#utility.yul\":484:804   */\ntag_47:\n    /* \"#utility.yul\":528:534   */\n  0x00\n    /* \"#utility.yul\":565:566   */\n  0x02\n    /* \"#utility.yul\":559:563   */\n  dup3\n    /* \"#utility.yul\":555:567   */\n  div\n    /* \"#utility.yul\":545:567   */\n  swap1\n  pop\n    /* \"#utility.yul\":612:613   */\n  0x01\n    /* \"#utility.yul\":606:610   */\n  dup3\n    /* \"#utility.yul\":602:614   */\n  and\n    /* \"#utility.yul\":633:651   */\n  dup1\n    /* \"#utility.yul\":623:704   */\n  tag_78\n  jumpi\n    /* \"#utility.yul\":689:693   */\n  0x7f\n    /* \"#utility.yul\":681:687   */\n  dup3\n    /* \"#utility.yul\":677:694   */\n  and\n    /* \"#utility.yul\":667:694   */\n  swap2\n  pop\n    /* \"#utility.yul\":623:704   */\ntag_78:\n    /* \"#utility.yul\":751:753   */\n  0x20\n    /* \"#utility.yul\":743:749   */\n  dup3\n    /* \"#utility.yul\":740:754   */\n  lt\n    /* \"#utility.yul\":720:738   */\n  dup2\n    /* \"#utility.yul\":717:755   */\n  sub\n    /* \"#utility.yul\":714:798   */\n  tag_79\n  jumpi\n    /* \"#utility.yul\":770:788   */\n  tag_80\n  tag_46\n  jump\t// in\ntag_80:\n    /* \"#utility.yul\":714:798   */\ntag_79:\n    /* \"#utility.yul\":535:804   */\n  pop\n    /* \"#utility.yul\":484:804   */\n  swap2\n  swap1\n  pop\n  jump\t// out\n    /* \"#utility.yul\":810:951   */\ntag_48:\n    /* \"#utility.yul\":859:863   */\n  0x00\n    /* \"#utility.yul\":882:885   */\n  dup2\n    /* \"#utility.yul\":874:885   */\n  swap1\n  pop\n    /* \"#utility.yul\":905:908   */\n  dup2\n    /* \"#utility.yul\":902:903   */\n  0x00\n    /* \"#utility.yul\":895:909   */\n  mstore\n    /* \"#utility.yul\":939:943   */\n  0x20\n    /* \"#utility.yul\":936:937   */\n  0x00\n    /* \"#utility.yul\":926:944   */\n  keccak256\n    /* \"#utility.yul\":918:944   */\n  swap1\n  pop\n    /* \"#utility.yul\":810:951   */\n  swap2\n  swap1\n  pop\n  jump\t// out\n    /* \"#utility.yul\":957:1050   */\ntag_49:\n    /* \"#utility.yul\":994:1000   */\n  0x00\n    /* \"#utility.yul\":1041:1043   */\n  0x20\n    /* \"#utility.yul\":1036:1038   */\n  0x1f\n    /* \"#utility.yul\":1029:1034   */\n  dup4\n    /* \"#utility.yul\":1025:1039   */\n  add\n    /* \"#utility.yul\":1021:1044   */\n  div\n    /* \"#utility.yul\":1011:1044   */\n  swap1\n  pop\n    /* \"#utility.yul\":957:1050   */\n  swap2\n  swap1\n  pop\n  jump\t// out\n    /* \"#utility.yul\":1056:1163   */\ntag_50:\n    /* \"#utility.yul\":1100:1108   */\n  0x00\n    /* \"#utility.yul\":1150:1155   */\n  dup3\n    /* \"#utility.yul\":1144:1148   */\n  dup3\n    /* \"#utility.yul\":1140:1156   */\n  shl\n    /* \"#utility.yul\":1119:1156   */\n  swap1\n  pop\n    /* \"#utility.yul\":1056:1163   */\n  swap3\n  swap2\n  pop\n  pop\n  jump\t// out\n    /* \"#utility.yul\":1169:1562   */\ntag_51:\n    /* \"#utility.yul\":1238:1244   */\n  0x00\n    /* \"#utility.yul\":1288:1289   */\n  0x08\n    /* \"#utility.yul\":1276:1286   */\n  dup4\n    /* \"#utility.yul\":1272:1290   */\n  mul\n    /* \"#utility.yul\":1311:1408   */\n  tag_85\n    /* \"#utility.yul\":1341:1407   */\n  0xffffffffffffffffffffffffffffffffffffffffffffffffffffffffffffffff\n    /* \"#utility.yul\":1330:1339   */\n  dup3\n    /* \"#utility.yul\":1311:1408   */\n  tag_50\n  jump\t// in\ntag_85:\n    /* \"#utility.yul\":1429:1468   */\n  tag_86\n    /* \"#utility.yul\":1459:1467   */\n  dup7\n    /* \"#utility.yul\":1448:1457   */\n  dup4\n    /* \"#utility.yul\":1429:1468   */\n  tag_50\n  jump\t// in\ntag_86:\n    /* \"#utility.yul\":1417:1468   */\n  swap6\n  pop\n    /* \"#utility.yul\":1501:1505   */\n  dup1\n    /* \"#utility.yul\":1497:1506   */\n  not\n    /* \"#utility.yul\":1490:1495   */\n  dup5\n    /* \"#utility.yul\":1486:1507   */\n  and\n    /* \"#utility.yul\":1477:1507   */\n  swap4\n  pop\n    /* \"#utility.yul\":1550:1554   */\n  dup1\n    /* \"#utility.yul\":1540:1548   */\n  dup7\n    /* \"#utility.yul\":1536:1555   */\n  and\n    /* \"#utility.yul\":1529:1534   */\n  dup5\n    /* \"#utility.yul\":1526:1556   */\n  or\n    /* \"#utility.yul\":1516:1556   */\n  swap3\n  pop\n    /* \"#utility.yul\":1245:1562   */\n  pop\n  pop\n    /* \"#utility.yul\":1169:1562   */\n  swap4\n  swap3\n  pop\n  pop\n  pop\n  jump\t// out\n    /* \"#utility.yul\":1568:1645   */\ntag_52:\n    /* \"#utility.yul\":1605:1612   */\n  0x00\n    /* \"#utility.yul\":1634:1639   */\n  dup2\n    /* \"#utility.yul\":1623:1639   */\n  swap1\n  pop\n    /* \"#utility.yul\":1568:1645   */\n  swap2\n  swap1\n  pop\n  jump\t// out\n    /* \"#utility.yul\":1651:1711   */\ntag_53:\n    /* \"#utility.yul\":1679:1682   */\n  0x00\n    /* \"#utility.yul\":1700:1705   */\n  dup2\n    /* \"#utility.yul\":1693:1705   */\n  swap1\n  pop\n    /* \"#utility.yul\":1651:1711   */\n  swap2\n  swap1\n  pop\n  jump\t// out\n    /* \"#utility.yul\":1717:1859   */\ntag_54:\n    /* \"#utility.yul\":1767:1776   */\n  0x00\n    /* \"#utility.yul\":1800:1853   */\n  tag_90\n    /* \"#utility.yul\":1818:1852   */\n  tag_91\n    /* \"#utility.yul\":1827:1851   */\n  tag_92\n    /* \"#utility.yul\":1845:1850   */\n  dup5\n    /* \"#utility.yul\":1827:1851   */\n  tag_52\n  jump\t// in\ntag_92:\n    /* \"#utility.yul\":1818:1852   */\n  tag_53\n  jump\t// in\ntag_91:\n    /* \"#utility.yul\":1800:1853   */\n  tag_52\n  jump\t// in\ntag_90:\n    /* \"#utility.yul\":1787:1853   */\n  swap1\n  pop\n    /* \"#utility.yul\":1717:1859   */\n  swap2\n  swap1\n  pop\n  jump\t// out\n    /* \"#utility.yul\":1865:1940   */\ntag_55:\n    /* \"#utility.yul\":1908:1911   */\n  0x00\n    /* \"#utility.yul\":1929:1934   */\n  dup2\n    /* \"#utility.yul\":1922:1934   */\n  swap1\n  pop\n    /* \"#utility.yul\":1865:1940   */\n  swap2\n  swap1\n  pop\n  jump\t// out\n    /* \"#utility.yul\":1946:2215   */\ntag_56:\n    /* \"#utility.yul\":2056:2095   */\n  tag_95\n    /* \"#utility.yul\":2087:2094   */\n  dup4\n    /* \"#utility.yul\":2056:2095   */\n  tag_54\n  jump\t// in\ntag_95:\n    /* \"#utility.yul\":2117:2208   */\n  tag_96\n    /* \"#utility.yul\":2166:2207   */\n  tag_97\n    /* \"#utility.yul\":2190:2206   */\n  dup3\n    /* \"#utility.yul\":2166:2207   */\n  tag_55\n  jump\t// in\ntag_97:\n    /* \"#utility.yul\":2158:2164   */\n  dup5\n    /* \"#utility.yul\":2151:2155   */\n  dup5\n    /* \"#utility.yul\":2145:2156   */\n  sload\n    /* \"#utility.yul\":2117:2208   */\n  tag_51\n  jump\t// in\ntag_96:\n    /* \"#utility.yul\":2111:2115   */\n  dup3\n    /* \"#utility.yul\":2104:2209   */\n  sstore\n    /* \"#utility.yul\":2022:2215   */\n  pop\n    /* \"#utility.yul\":1946:2215   */\n  pop\n  pop\n  pop\n  jump\t// out\n    /* \"#utility.yul\":2221:2294   */\ntag_57:\n    /* \"#utility.yul\":2266:2269   */\n  0x00\n    /* \"#utility.yul\":2221:2294   */\n  swap1\n  jump\t// out\n    /* \"#utility.yul\":2300:2489   */\ntag_58:\n    /* \"#utility.yul\":2377:2409   */\n  tag_100\n  tag_57\n  jump\t// in\ntag_100:\n    /* \"#utility.yul\":2418:2483   */\n  tag_101\n    /* \"#utility.yul\":2476:2482   */\n  dup2\n    /* \"#utility.yul\":2468:2474   */\n  dup5\n    /* \"#utility.yul\":2462:2466   */\n  dup5\n    /* \"#utility.yul\":2418:2483   */\n  tag_56\n  jump\t// in\ntag_101:\n    /* \"#utility.yul\":2353:2489   */\n  pop\n    /* \"#utility.yul\":2300:2489   */\n  pop\n  pop\n  jump\t// out\n    /* \"#utility.yul\":2495:2681   */\ntag_59:\n    /* \"#utility.yul\":2555:2675   */\ntag_103:\n    /* \"#utility.yul\":2572:2575   */\n  dup2\n    /* \"#utility.yul\":2565:2570   */\n  dup2\n    /* \"#utility.yul\":2562:2576   */\n  lt\n    /* \"#utility.yul\":2555:2675   */\n  iszero\n  tag_105\n  jumpi\n    /* \"#utility.yul\":2626:2665   */\n  tag_106\n    /* \"#utility.yul\":2663:2664   */\n  0x00\n    /* \"#utility.yul\":2656:2661   */\n  dup3\n    /* \"#utility.yul\":2626:2665   */\n  tag_58\n  jump\t// in\ntag_106:\n    /* \"#utility.yul\":2599:2600   */\n  0x01\n    /* \"#utility.yul\":2592:2597   */\n  dup2\n    /* \"#utility.yul\":2588:2601   */\n  add\n    /* \"#utility.yul\":2579:2601   */\n  swap1\n  pop\n    /* \"#utility.yul\":2555:2675   */\n  jump(tag_103)\ntag_105:\n    /* \"#utility.yul\":2495:2681   */\n  pop\n  pop\n  jump\t// out\n    /* \"#utility.yul\":2687:3230   */\ntag_60:\n    /* \"#utility.yul\":2788:2790   */\n  0x1f\n    /* \"#utility.yul\":2783:2786   */\n  dup3\n    /* \"#utility.yul\":2780:2791   */\n  gt\n    /* \"#utility.yul\":2777:3223   */\n  iszero\n  tag_108\n  jumpi\n    /* \"#utility.yul\":2822:2860   */\n  tag_109\n    /* \"#utility.yul\":2854:2859   */\n  dup2\n    /* \"#utility.yul\":2822:2860   */\n  tag_48\n  jump\t// in\ntag_109:\n    /* \"#utility.yul\":2906:2935   */\n  tag_110\n    /* \"#utility.yul\":2924:2934   */\n  dup5\n    /* \"#utility.yul\":2906:2935   */\n  tag_49\n  jump\t// in\ntag_110:\n    /* \"#utility.yul\":2896:2904   */\n  dup2\n    /* \"#utility.yul\":2892:2936   */\n  add\n    /* \"#utility.yul\":3089:3091   */\n  0x20\n    /* \"#utility.yul\":3077:3087   */\n  dup6\n    /* \"#utility.yul\":3074:3092   */\n  lt\n    /* \"#utility.yul\":3071:3120   */\n  iszero\n  tag_111\n  jumpi\n    /* \"#utility.yul\":3110:3118   */\n  dup2\n    /* \"#utility.yul\":3095:3118   */\n  swap1\n  pop\n    /* \"#utility.yul\":3071:3120   */\ntag_111:\n    /* \"#utility.yul\":3133:3213   */\n  tag_112\n    /* \"#utility.yul\":3189:3211   */\n  tag_113\n    /* \"#utility.yul\":3207:3210   */\n  dup6\n    /* \"#utility.yul\":3189:3211   */\n  tag_49\n  jump\t// in\ntag_113:\n    /* \"#utility.yul\":3179:3187   */\n  dup4\n    /* \"#utility.yul\":3175:3212   */\n  add\n    /* \"#utility.yul\":3162:3173   */\n  dup3\n    /* \"#utility.yul\":3133:3213   */\n  tag_59\n  jump\t// in\ntag_112:\n    /* \"#utility.yul\":2792:3223   */\n  pop\n  pop\n    /* \"#utility.yul\":2777:3223   */\ntag_108:\n    /* \"#utility.yul\":2687:3230   */\n  pop\n  pop\n  pop\n  jump\t// out\n    /* \"#utility.yul\":3236:3353   */\ntag_61:\n    /* \"#utility.yul\":3290:3298   */\n  0x00\n    /* \"#utility.yul\":3340:3345   */\n  dup3\n    /* \"#utility.yul\":3334:3338   */\n  dup3\n    /* \"#utility.yul\":3330:3346   */\n  shr\n    /* \"#utility.yul\":3309:3346   */\n  swap1\n  pop\n    /* \"#utility.yul\":3236:3353   */\n  swap3\n  swap2\n  pop\n  pop\n  jump\t// out\n    /* \"#utility.yul\":3359:3528   */\ntag_62:\n    /* \"#utility.yul\":3403:3409   */\n  0x00\n    /* \"#utility.yul\":3436:3487   */\n  tag_116\n    /* \"#utility.yul\":3484:3485   */\n  0x00\n    /* \"#utility.yul\":3480:3486   */\n  not\n    /* \"#utility.yul\":3472:3477   */\n  dup5\n    /* \"#utility.yul\":3469:3470   */\n  0x08\n    /* \"#utility.yul\":3465:3478   */\n  mul\n    /* \"#utility.yul\":3436:3487   */\n  tag_61\n  jump\t// in\ntag_116:\n    /* \"#utility.yul\":3432:3488   */\n  not\n    /* \"#utility.yul\":3517:3521   */\n  dup1\n    /* \"#utility.yul\":3511:3515   */\n  dup4\n    /* \"#utility.yul\":3507:3522   */\n  and\n    /* \"#utility.yul\":3497:3522   */\n  swap2\n  pop\n    /* \"#utility.yul\":3410:3528   */\n  pop\n    /* \"#utility.yul\":3359:3528   */\n  swap3\n  swap2\n  pop\n  pop\n  jump\t// out\n    /* \"#utility.yul\":3533:3828   */\ntag_63:\n    /* \"#utility.yul\":3609:3613   */\n  0x00\n    /* \"#utility.yul\":3755:3784   */\n  tag_118\n    /* \"#utility.yul\":3780:3783   */\n  dup4\n    /* \"#utility.yul\":3774:3778   */\n  dup4\n    /* \"#utility.yul\":3755:3784   */\n  tag_62\n  jump\t// in\ntag_118:\n    /* \"#utility.yul\":3747:3784   */\n  swap2\n  pop\n    /* \"#utility.yul\":3817:3820   */\n  dup3\n    /* \"#utility.yul\":3814:3815   */\n  0x02\n    /* \"#utility.yul\":3810:3821   */\n  mul\n    /* \"#utility.yul\":3804:3808   */\n  dup3\n    /* \"#utility.yul\":3801:3822   */\n  or\n    /* \"#utility.yul\":3793:3822   */\n  swap1\n  pop\n    /* \"#utility.yul\":3533:3828   */\n  swap3\n  swap2\n  pop\n  pop\n  jump\t// out\n    /* \"#utility.yul\":3833:5228   */\ntag_7:\n    /* \"#utility.yul\":3950:3987   */\n  tag_120\n    /* \"#utility.yul\":3983:3986   */\n  dup3\n    /* \"#utility.yul\":3950:3987   */\n  tag_44\n  jump\t// in\ntag_120:\n    /* \"#utility.yul\":4052:4070   */\n  0xffffffffffffffff\n    /* \"#utility.yul\":4044:4050   */\n  dup2\n    /* \"#utility.yul\":4041:4071   */\n  gt\n    /* \"#utility.yul\":4038:4094   */\n  iszero\n  tag_121\n  jumpi\n    /* \"#utility.yul\":4074:4092   */\n  tag_122\n  tag_45\n  jump\t// in\ntag_122:\n    /* \"#utility.yul\":4038:4094   */\ntag_121:\n    /* \"#utility.yul\":4118:4156   */\n  tag_123\n    /* \"#utility.yul\":4150:4154   */\n  dup3\n    /* \"#utility.yul\":4144:4155   */\n  sload\n    /* \"#utility.yul\":4118:4156   */\n  tag_47\n  jump\t// in\ntag_123:\n    /* \"#utility.yul\":4203:4270   */\n  tag_124\n    /* \"#utility.yul\":4263:4269   */\n  dup3\n    /* \"#utility.yul\":4255:4261   */\n  dup3\n    /* \"#utility.yul\":4249:4253   */\n  dup6\n    /* \"#utility.yul\":4203:4270   */\n  tag_60\n  jump\t// in\ntag_124:\n    /* \"#utility.yul\":4297:4298   */\n  0x00\n    /* \"#utility.yul\":4321:4325   */\n  0x20\n    /* \"#utility.yul\":4308:4325   */\n  swap1\n  pop\n    /* \"#utility.yul\":4353:4355   */\n  0x1f\n    /* \"#utility.yul\":4345:4351   */\n  dup4\n    /* \"#utility.yul\":4342:4356   */\n  gt\n    /* \"#utility.yul\":4370:4371   */\n  0x01\n    /* \"#utility.yul\":4365:4983   */\n  dup2\n  eq\n  tag_126\n  jumpi\n    /* \"#utility.yul\":5027:5028   */\n  0x00\n    /* \"#utility.yul\":5044:5050   */\n  dup5\n    /* \"#utility.yul\":5041:5118   */\n  iszero\n  tag_127\n  jumpi\n    /* \"#utility.yul\":5093:5102   */\n  dup3\n    /* \"#utility.yul\":5088:5091   */\n  dup8\n    /* \"#utility.yul\":5084:5103   */\n  add\n    /* \"#utility.yul\":5078:5104   */\n  mload\n    /* \"#utility.yul\":5069:5104   */\n  swap1\n  pop\n    /* \"#utility.yul\":5041:5118   */\ntag_127:\n    /* \"#utility.yul\":5144:5211   */\n  tag_128\n    /* \"#utility.yul\":5204:5210   */\n  dup6\n    /* \"#utility.yul\":5197:5202   */\n  dup3\n    /* \"#utility.yul\":5144:5211   */\n  tag_63\n  jump\t// in\ntag_128:\n    /* \"#utility.yul\":5138:5142   */\n  dup7\n    /* \"#utility.yul\":5131:5212   */\n  sstore\n    /* \"#utility.yul\":5000:5222   */\n  pop\n    /* \"#utility.yul\":4335:5222   */\n  jump(tag_125)\n    /* \"#utility.yul\":4365:4983   */\ntag_126:\n    /* \"#utility.yul\":4417:4421   */\n  0x1f\n    /* \"#utility.yul\":4413:4422   */\n  not\n    /* \"#utility.yul\":4405:4411   */\n  dup5\n    /* \"#utility.yul\":4401:4423   */\n  and\n    /* \"#utility.yul\":4451:4488   */\n  tag_129\n    /* \"#utility.yul\":4483:4487   */\n  dup7\n    /* \"#utility.yul\":4451:4488   */\n  tag_48\n  jump\t// in\ntag_129:\n    /* \"#utility.yul\":4510:4511   */\n  0x00\n    /* \"#utility.yul\":4524:4732   */\ntag_130:\n    /* \"#utility.yul\":4538:4545   */\n  dup3\n    /* \"#utility.yul\":4535:4536   */\n  dup2\n    /* \"#utility.yul\":4532:4546   */\n  lt\n    /* \"#utility.yul\":4524:4732   */\n  iszero\n  tag_132\n  jumpi\n    /* \"#utility.yul\":4617:4626   */\n  dup5\n    /* \"#utility.yul\":4612:4615   */\n  dup10\n    /* \"#utility.yul\":4608:4627   */\n  add\n    /* \"#utility.yul\":4602:4628   */\n  mload\n    /* \"#utility.yul\":4594:4600   */\n  dup3\n    /* \"#utility.yul\":4587:4629   */\n  sstore\n    /* \"#utility.yul\":4668:4669   */\n  0x01\n    /* \"#utility.yul\":4660:4666   */\n  dup3\n    /* \"#utility.yul\":4656:4670   */\n  add\n    /* \"#utility.yul\":4646:4670   */\n  swap2\n  pop\n    /* \"#utility.yul\":4715:4717   */\n  0x20\n    /* \"#utility.yul\":4704:4713   */\n  dup6\n    /* \"#utility.yul\":4700:4718   */\n  add\n    /* \"#utility.yul\":4687:4718   */\n  swap5\n  pop\n    /* \"#utility.yul\":4561:4565   */\n  0x20\n    /* \"#utility.yul\":4558:4559   */\n  dup2\n    /* \"#utility.yul\":4554:4566   */\n  add\n    /* \"#utility.yul\":4549:4566   */\n  swap1\n  pop\n    /* \"#utility.yul\":4524:4732   */\n  jump(tag_130)\ntag_132:\n    /* \"#utility.yul\":4760:4766   */\n  dup7\n    /* \"#utility.yul\":4751:4758   */\n  dup4\n    /* \"#utility.yul\":4748:4767   */\n  lt\n    /* \"#utility.yul\":4745:4924   */\n  iszero\n  tag_133\n  jumpi\n    /* \"#utility.yul\":4818:4827   */\n  dup5\n    /* \"#utility.yul\":4813:4816   */\n  dup10\n    /* \"#utility.yul\":4809:4828   */\n  add\n    /* \"#utility.yul\":4803:4829   */\n  mload\n    /* \"#utility.yul\":4861:4909   */\n  tag_134\n    /* \"#utility.yul\":4903:4907   */\n  0x1f\n    /* \"#utility.yul\":4895:4901   */\n  dup10\n    /* \"#utility.yul\":4891:4908   */\n  and\n    /* \"#utility.yul\":4880:4889   */\n  dup3\n    /* \"#utility.yul\":4861:4909   */\n  tag_62\n  jump\t// in\ntag_134:\n    /* \"#utility.yul\":4853:4859   */\n  dup4\n    /* \"#utility.yul\":4846:4910   */\n  sstore\n    /* \"#utility.yul\":4768:4924   */\n  pop\n    /* \"#utility.yul\":4745:4924   */\ntag_133:\n    /* \"#utility.yul\":4970:4971   */\n  0x01\n    /* \"#utility.yul\":4966:4967   */\n  0x02\n    /* \"#utility.yul\":4958:4964   */\n  dup9\n    /* \"#utility.yul\":4954:4968   */\n  mul\n    /* \"#utility.yul\":4950:4972   */\n  add\n    /* \"#utility.yul\":4944:4948   */\n  dup9\n    /* \"#utility.yul\":4937:4973   */\n  sstore\n    /* \"#utility.yul\":4372:4983   */\n  pop\n  pop\n  pop\n    /* \"#utility.yul\":4335:5222   */\ntag_125:\n  pop\n    /* \"#utility.yul\":3925:5228   */\n  pop\n  pop\n  pop\n    /* \"#utility.yul\":3833:5228   */\n  pop\n  pop\n  jump\t// out\n    /* \"#utility.yul\":5234:5360   */\ntag_64:\n    /* \"#utility.yul\":5271:5278   */\n  0x00\n    /* \"#utility.yul\":5311:5353   */\n  0xffffffffffffffffffffffffffffffffffffffff\n    /* \"#utility.yul\":5304:5309   */\n  dup3\n    /* \"#utility.yul\":5300:5354   */\n  and\n    /* \"#utility.yul\":5289:5354   */\n  swap1\n  pop\n    /* \"#utility.yul\":5234:5360   */\n  swap2\n  swap1\n  pop\n  jump\t// out\n    /* \"#utility.yul\":5366:5462   */\ntag_65:\n    /* \"#utility.yul\":5403:5410   */\n  0x00\n    /* \"#utility.yul\":5432:5456   */\n  tag_137\n    /* \"#utility.yul\":5450:5455   */\n  dup3\n    /* \"#utility.yul\":5432:5456   */\n  tag_64\n  jump\t// in\ntag_137:\n    /* \"#utility.yul\":5421:5456   */\n  swap1\n  pop\n    /* \"#utility.yul\":5366:5462   */\n  swap2\n  swap1\n  pop\n  jump\t// out\n    /* \"#utility.yul\":5468:5586   */\ntag_66:\n    /* \"#utility.yul\":5555:5579   */\n  tag_139\n    /* \"#utility.yul\":5573:5578   */\n  dup2\n    /* \"#utility.yul\":5555:5579   */\n  tag_65\n  jump\t// in\ntag_139:\n    /* \"#utility.yul\":5550:5553   */\n  dup3\n    /* \"#utility.yul\":5543:5580   */\n  mstore\n    /* \"#utility.yul\":5468:5586   */\n  pop\n  pop\n  jump\t// out\n    /* \"#utility.yul\":5592:5814   */\ntag_12:\n    /* \"#utility.yul\":5685:5689   */\n  0x00\n    /* \"#utility.yul\":5723:5725   */\n  0x20\n    /* \"#utility.yul\":5712:5721   */\n  dup3\n    /* \"#utility.yul\":5708:5726   */\n  add\n    /* \"#utility.yul\":5700:5726   */\n  swap1\n  pop\n    /* \"#utility.yul\":5736:5807   */\n  tag_141\n    /* \"#utility.yul\":5804:5805   */\n  0x00\n    /* \"#utility.yul\":5793:5802   */\n  dup4\n    /* \"#utility.yul\":5789:5806   */\n  add\n    /* \"#utility.yul\":5780:5786   */\n  dup5\n    /* \"#utility.yul\":5736:5807   */\n  tag_66\n  jump\t// in\ntag_141:\n    /* \"#utility.yul\":5592:5814   */\n  swap3\n  swap2\n  pop\n  pop\n  jump\t// out\n    /* \"#utility.yul\":5820:6000   */\ntag_67:\n    /* \"#utility.yul\":5868:5945   */\n  0x4e487b7100000000000000000000000000000000000000000000000000000000\n    /* \"#utility.yul\":5865:5866   */\n  0x00\n    /* \"#utility.yul\":5858:5946   */\n  mstore\n    /* \"#utility.yul\":5965:5969   */\n  0x11\n    /* \"#utility.yul\":5962:5963   */\n  0x04\n    /* \"#utility.yul\":5955:5970   */\n  mstore\n    /* \"#utility.yul\":5989:5993   */\n  0x24\n    /* \"#utility.yul\":5986:5987   */\n  0x00\n    /* \"#utility.yul\":5979:5994   */\n  revert\n    /* \"#utility.yul\":6006:6108   */\ntag_68:\n    /* \"#utility.yul\":6048:6056   */\n  0x00\n    /* \"#utility.yul\":6095:6100   */\n  dup2\n    /* \"#utility.yul\":6092:6093   */\n  0x01\n    /* \"#utility.yul\":6088:6101   */\n  shr\n    /* \"#utility.yul\":6067:6101   */\n  swap1\n  pop\n    /* \"#utility.yul\":6006:6108   */\n  swap2\n  swap1\n  pop\n  jump\t// out\n    /* \"#utility.yul\":6114:6962   */\ntag_69:\n    /* \"#utility.yul\":6175:6180   */\n  0x00\n    /* \"#utility.yul\":6182:6186   */\n  dup1\n    /* \"#utility.yul\":6206:6212   */\n  dup3\n    /* \"#utility.yul\":6197:6212   */\n  swap2\n  pop\n    /* \"#utility.yul\":6230:6235   */\n  dup4\n    /* \"#utility.yul\":6221:6235   */\n  swap1\n  pop\n    /* \"#utility.yul\":6244:6956   */\ntag_145:\n    /* \"#utility.yul\":6265:6266   */\n  0x01\n    /* \"#utility.yul\":6255:6263   */\n  dup6\n    /* \"#utility.yul\":6252:6267   */\n  gt\n    /* \"#utility.yul\":6244:6956   */\n  iszero\n  tag_147\n  jumpi\n    /* \"#utility.yul\":6360:6364   */\n  dup1\n    /* \"#utility.yul\":6355:6358   */\n  dup7\n    /* \"#utility.yul\":6351:6365   */\n  div\n    /* \"#utility.yul\":6345:6349   */\n  dup2\n    /* \"#utility.yul\":6342:6366   */\n  gt\n    /* \"#utility.yul\":6339:6389   */\n  iszero\n  tag_148\n  jumpi\n    /* \"#utility.yul\":6369:6387   */\n  tag_149\n  tag_67\n  jump\t// in\ntag_149:\n    /* \"#utility.yul\":6339:6389   */\ntag_148:\n    /* \"#utility.yul\":6419:6420   */\n  0x01\n    /* \"#utility.yul\":6409:6417   */\n  dup6\n    /* \"#utility.yul\":6405:6421   */\n  and\n    /* \"#utility.yul\":6402:6853   */\n  iszero\n  tag_150\n  jumpi\n    /* \"#utility.yul\":6834:6838   */\n  dup1\n    /* \"#utility.yul\":6827:6832   */\n  dup3\n    /* \"#utility.yul\":6823:6839   */\n  mul\n    /* \"#utility.yul\":6814:6839   */\n  swap2\n  pop\n    /* \"#utility.yul\":6402:6853   */\ntag_150:\n    /* \"#utility.yul\":6884:6888   */\n  dup1\n    /* \"#utility.yul\":6878:6882   */\n  dup2\n    /* \"#utility.yul\":6874:6889   */\n  mul\n    /* \"#utility.yul\":6866:6889   */\n  swap1\n  pop\n    /* \"#utility.yul\":6914:6946   */\n  tag_151\n    /* \"#utility.yul\":6937:6945   */\n  dup6\n    /* \"#utility.yul\":6914:6946   */\n  tag_68\n  jump\t// in\ntag_151:\n    /* \"#utility.yul\":6902:6946   */\n  swap5\n  pop\n    /* \"#utility.yul\":6244:6956   */\n  jump(tag_145)\ntag_147:\n    /* \"#utility.yul\":6114:6962   */\n  swap5\n  pop\n  swap5\n  swap3\n  pop\n  pop\n  pop\n  jump\t// out\n    /* \"#utility.yul\":6968:8041   */\ntag_70:\n    /* \"#utility.yul\":7022:7027   */\n  0x00\n    /* \"#utility.yul\":7213:7221   */\n  dup3\n    /* \"#utility.yul\":7203:7243   */\n  tag_153\n  jumpi\n    /* \"#utility.yul\":7234:7235   */\n  0x01\n    /* \"#utility.yul\":7225:7235   */\n  swap1\n  pop\n    /* \"#utility.yul\":7236:7241   */\n  jump(tag_152)\n    /* \"#utility.yul\":7203:7243   */\ntag_153:\n    /* \"#utility.yul\":7262:7266   */\n  dup2\n    /* \"#utility.yul\":7252:7288   */\n  tag_154\n  jumpi\n    /* \"#utility.yul\":7279:7280   */\n  0x00\n    /* \"#utility.yul\":7270:7280   */\n  swap1\n  pop\n    /* \"#utility.yul\":7281:7286   */\n  jump(tag_152)\n    /* \"#utility.yul\":7252:7288   */\ntag_154:\n    /* \"#utility.yul\":7348:7352   */\n  dup2\n    /* \"#utility.yul\":7396:7397   */\n  0x01\n    /* \"#utility.yul\":7391:7418   */\n  dup2\n  eq\n  tag_156\n  jumpi\n    /* \"#utility.yul\":7432:7433   */\n  0x02\n    /* \"#utility.yul\":7427:7618   */\n  dup2\n  eq\n  tag_157\n  jumpi\n    /* \"#utility.yul\":7341:7618   */\n  jump(tag_155)\n    /* \"#utility.yul\":7391:7418   */\ntag_156:\n    /* \"#utility.yul\":7409:7410   */\n  0x01\n    /* \"#utility.yul\":7400:7410   */\n  swap2\n  pop\n    /* \"#utility.yul\":7411:7416   */\n  pop\n  jump(tag_152)\n    /* \"#utility.yul\":7427:7618   */\ntag_157:\n    /* \"#utility.yul\":7472:7475   */\n  0xff\n    /* \"#utility.yul\":7462:7470   */\n  dup5\n    /* \"#utility.yul\":7459:7476   */\n  gt\n    /* \"#utility.yul\":7456:7499   */\n  iszero\n  tag_158\n  jumpi\n    /* \"#utility.yul\":7479:7497   */\n  tag_159\n  tag_67\n  jump\t// in\ntag_159:\n    /* \"#utility.yul\":7456:7499   */\ntag_158:\n    /* \"#utility.yul\":7528:7536   */\n  dup4\n    /* \"#utility.yul\":7525:7526   */\n  0x02\n    /* \"#utility.yul\":7521:7537   */\n  exp\n    /* \"#utility.yul\":7512:7537   */\n  swap2\n  pop\n    /* \"#utility.yul\":7563:7566   */\n  dup5\n    /* \"#utility.yul\":7556:7561   */\n  dup3\n    /* \"#utility.yul\":7553:7567   */\n  gt\n    /* \"#utility.yul\":7550:7590   */\n  iszero\n  tag_160\n  jumpi\n    /* \"#utility.yul\":7570:7588   */\n  tag_161\n  tag_67\n  jump\t// in\ntag_161:\n    /* \"#utility.yul\":7550:7590   */\ntag_160:\n    /* \"#utility.yul\":7603:7608   */\n  pop\n  jump(tag_152)\n    /* \"#utility.yul\":7341:7618   */\ntag_155:\n  pop\n    /* \"#utility.yul\":7727:7729   */\n  0x20\n    /* \"#utility.yul\":7717:7725   */\n  dup4\n    /* \"#utility.yul\":7714:7730   */\n  lt\n    /* \"#utility.yul\":7708:7711   */\n  0x0133\n    /* \"#utility.yul\":7702:7706   */\n  dup4\n    /* \"#utility.yul\":7699:7712   */\n  lt\n    /* \"#utility.yul\":7695:7731   */\n  and\n    /* \"#utility.yul\":7677:7679   */\n  0x4e\n    /* \"#utility.yul\":7667:7675   */\n  dup5\n    /* \"#utility.yul\":7664:7680   */\n  lt\n    /* \"#utility.yul\":7659:7661   */\n  0x0b\n    /* \"#utility.yul\":7653:7657   */\n  dup5\n    /* \"#utility.yul\":7650:7662   */\n  lt\n    /* \"#utility.yul\":7646:7681   */\n  and\n    /* \"#utility.yul\":7630:7741   */\n  or\n    /* \"#utility.yul\":7627:7873   */\n  iszero\n  tag_162\n  jumpi\n    /* \"#utility.yul\":7783:7791   */\n  dup3\n    /* \"#utility.yul\":7777:7781   */\n  dup3\n    /* \"#utility.yul\":7773:7792   */\n  exp\n    /* \"#utility.yul\":7764:7792   */\n  swap1\n  pop\n    /* \"#utility.yul\":7818:7821   */\n  dup4\n    /* \"#utility.yul\":7811:7816   */\n  dup2\n    /* \"#utility.yul\":7808:7822   */\n  gt\n    /* \"#utility.yul\":7805:7845   */\n  iszero\n  tag_163\n  jumpi\n    /* \"#utility.yul\":7825:7843   */\n  tag_164\n  tag_67\n  jump\t// in\ntag_164:\n    /* \"#utility.yul\":7805:7845   */\ntag_163:\n    /* \"#utility.yul\":7858:7863   */\n  jump(tag_152)\n    /* \"#utility.yul\":7627:7873   */\ntag_162:\n    /* \"#utility.yul\":7898:7940   */\n  tag_165\n    /* \"#utility.yul\":7936:7939   */\n  dup5\n    /* \"#utility.yul\":7926:7934   */\n  dup5\n    /* \"#utility.yul\":7920:7924   */\n  dup5\n    /* \"#utility.yul\":7917:7918   */\n  0x01\n    /* \"#utility.yul\":7898:7940   */\n  tag_69\n  jump\t// in\ntag_165:\n    /* \"#utility.yul\":7883:7940   */\n  swap3\n  pop\n  swap1\n  pop\n    /* \"#utility.yul\":7972:7976   */\n  dup2\n    /* \"#utility.yul\":7967:7970   */\n  dup5\n    /* \"#utility.yul\":7963:7977   */\n  div\n    /* \"#utility.yul\":7956:7961   */\n  dup2\n    /* \"#utility.yul\":7953:7978   */\n  gt\n    /* \"#utility.yul\":7950:8001   */\n  iszero\n  tag_166\n  jumpi\n    /* \"#utility.yul\":7981:7999   */\n  tag_167\n  tag_67\n  jump\t// in\ntag_167:\n    /* \"#utility.yul\":7950:8001   */\ntag_166:\n    /* \"#utility.yul\":8030:8034   */\n  dup2\n    /* \"#utility.yul\":8023:8028   */\n  dup2\n    /* \"#utility.yul\":8019:8035   */\n  mul\n    /* \"#utility.yul\":8010:8035   */\n  swap1\n  pop\n    /* \"#utility.yul\":6968:8041   */\ntag_152:\n  swap4\n  swap3\n  pop\n  pop\n  pop\n  jump\t// out\n    /* \"#utility.yul\":8047:8133   */\ntag_71:\n    /* \"#utility.yul\":8082:8089   */\n  0x00\n    /* \"#utility.yul\":8122:8126   */\n  0xff\n    /* \"#utility.yul\":8115:8120   */\n  dup3\n    /* \"#utility.yul\":8111:8127   */\n  and\n    /* \"#utility.yul\":8100:8127   */\n  swap1\n  pop\n    /* \"#utility.yul\":8047:8133   */\n  swap2\n  swap1\n  pop\n  jump\t// out\n    /* \"#utility.yul\":8139:8420   */\ntag_20:\n    /* \"#utility.yul\":8197:8202   */\n  0x00\n    /* \"#utility.yul\":8221:8244   */\n  tag_170\n    /* \"#utility.yul\":8239:8243   */\n  dup3\n    /* \"#utility.yul\":8221:8244   */\n  tag_52\n  jump\t// in\ntag_170:\n    /* \"#utility.yul\":8213:8244   */\n  swap2\n  pop\n    /* \"#utility.yul\":8265:8290   */\n  tag_171\n    /* \"#utility.yul\":8281:8289   */\n  dup4\n    /* \"#utility.yul\":8265:8290   */\n  tag_71\n  jump\t// in\ntag_171:\n    /* \"#utility.yul\":8253:8290   */\n  swap3\n  pop\n    /* \"#utility.yul\":8309:8413   */\n  tag_172\n    /* \"#utility.yul\":8346:8412   */\n  0xffffffffffffffffffffffffffffffffffffffffffffffffffffffffffffffff\n    /* \"#utility.yul\":8336:8344   */\n  dup5\n    /* \"#utility.yul\":8330:8334   */\n  dup5\n    /* \"#utility.yul\":8309:8413   */\n  tag_70\n  jump\t// in\ntag_172:\n    /* \"#utility.yul\":8300:8413   */\n  swap1\n  pop\n    /* \"#utility.yul\":8139:8420   */\n  swap3\n  swap2\n  pop\n  pop\n  jump\t// out\n    /* \"#utility.yul\":8426:8836   */\ntag_22:\n    /* \"#utility.yul\":8466:8473   */\n  0x00\n    /* \"#utility.yul\":8489:8509   */\n  tag_174\n    /* \"#utility.yul\":8507:8508   */\n  dup3\n    /* \"#utility.yul\":8489:8509   */\n  tag_52\n  jump\t// in\ntag_174:\n    /* \"#utility.yul\":8484:8509   */\n  swap2\n  pop\n    /* \"#utility.yul\":8523:8543   */\n  tag_175\n    /* \"#utility.yul\":8541:8542   */\n  dup4\n    /* \"#utility.yul\":8523:8543   */\n  tag_52\n  jump\t// in\ntag_175:\n    /* \"#utility.yul\":8518:8543   */\n  swap3\n  pop\n    /* \"#utility.yul\":8578:8579   */\n  dup3\n    /* \"#utility.yul\":8575:8576   */\n  dup3\n    /* \"#utility.yul\":8571:8580   */\n  mul\n    /* \"#utility.yul\":8600:8630   */\n  tag_176\n    /* \"#utility.yul\":8618:8629   */\n  dup2\n    /* \"#utility.yul\":8600:8630   */\n  tag_52\n  jump\t// in\ntag_176:\n    /* \"#utility.yul\":8589:8630   */\n  swap2\n  pop\n    /* \"#utility.yul\":8779:8780   */\n  dup3\n    /* \"#utility.yul\":8770:8777   */\n  dup3\n    /* \"#utility.yul\":8766:8781   */\n  div\n    /* \"#utility.yul\":8763:8764   */\n  dup5\n    /* \"#utility.yul\":8760:8782   */\n  eq\n    /* \"#utility.yul\":8740:8741   */\n  dup4\n    /* \"#utility.yul\":8733:8742   */\n  iszero\n    /* \"#utility.yul\":8713:8796   */\n  or\n    /* \"#utility.yul\":8690:8829   */\n  tag_177\n  jumpi\n    /* \"#utility.yul\":8809:8827   */\n  tag_178\n  tag_67\n  jump\t// in\ntag_178:\n    /* \"#utility.yul\":8690:8829   */\ntag_177:\n    /* \"#utility.yul\":8474:8836   */\n  pop\n    /* \"#utility.yul\":8426:8836   */\n  swap3\n  swap2\n  pop\n  pop\n  jump\t// out\n    /* \"#utility.yul\":8842:9033   */\ntag_35:\n    /* \"#utility.yul\":8882:8885   */\n  0x00\n    /* \"#utility.yul\":8901:8921   */\n  tag_180\n    /* \"#utility.yul\":8919:8920   */\n  dup3\n    /* \"#utility.yul\":8901:8921   */\n  tag_52\n  jump\t// in\ntag_180:\n    /* \"#utility.yul\":8896:8921   */\n  swap2\n  pop\n    /* \"#utility.yul\":8935:8955   */\n  tag_181\n    /* \"#utility.yul\":8953:8954   */\n  dup4\n    /* \"#utility.yul\":8935:8955   */\n  tag_52\n  jump\t// in\ntag_181:\n    /* \"#utility.yul\":8930:8955   */\n  swap3\n  pop\n    /* \"#utility.yul\":8978:8979   */\n  dup3\n    /* \"#utility.yul\":8975:8976   */\n  dup3\n    /* \"#utility.yul\":8971:8980   */\n  add\n    /* \"#utility.yul\":8964:8980   */\n  swap1\n  pop\n    /* \"#utility.yul\":8999:9002   */\n  dup1\n    /* \"#utility.yul\":8996:8997   */\n  dup3\n    /* \"#utility.yul\":8993:9003   */\n  gt\n    /* \"#utility.yul\":8990:9026   */\n  iszero\n  tag_182\n  jumpi\n    /* \"#utility.yul\":9006:9024   */\n  tag_183\n  tag_67\n  jump\t// in\ntag_183:\n    /* \"#utility.yul\":8990:9026   */\ntag_182:\n    /* \"#utility.yul\":8842:9033   */\n  swap3\n  swap2\n  pop\n  pop\n  jump\t// out\n    /* \"#utility.yul\":9039:9157   */\ntag_72:\n    /* \"#utility.yul\":9126:9150   */\n  tag_185\n    /* \"#utility.yul\":9144:9149   */\n  dup2\n    /* \"#utility.yul\":9126:9150   */\n  tag_52\n  jump\t// in\ntag_185:\n    /* \"#utility.yul\":9121:9124   */\n  dup3\n    /* \"#utility.yul\":9114:9151   */\n  mstore\n    /* \"#utility.yul\":9039:9157   */\n  pop\n  pop\n  jump\t// out\n    /* \"#utility.yul\":9163:9605   */\ntag_39:\n    /* \"#utility.yul\":9312:9316   */\n  0x00\n    /* \"#utility.yul\":9350:9352   */\n  0x60\n    /* \"#utility.yul\":9339:9348   */\n  dup3\n    /* \"#utility.yul\":9335:9353   */\n  add\n    /* \"#utility.yul\":9327:9353   */\n  swap1\n  pop\n    /* \"#utility.yul\":9363:9434   */\n  tag_187\n    /* \"#utility.yul\":9431:9432   */\n  0x00\n    /* \"#utility.yul\":9420:9429   */\n  dup4\n    /* \"#utility.yul\":9416:9433   */\n  add\n    /* \"#utility.yul\":9407:9413   */\n  dup7\n    /* \"#utility.yul\":9363:9434   */\n  tag_66\n  jump\t// in\ntag_187:\n    /* \"#utility.yul\":9444:9516   */\n  tag_188\n    /* \"#utility.yul\":9512:9514   */\n  0x20\n    /* \"#utility.yul\":9501:9510   */\n  dup4\n    /* \"#utility.yul\":9497:9515   */\n  add\n    /* \"#utility.yul\":9488:9494   */\n  dup6\n    /* \"#utility.yul\":9444:9516   */\n  tag_72\n  jump\t// in\ntag_188:\n    /* \"#utility.yul\":9526:9598   */\n  tag_189\n    /* \"#utility.yul\":9594:9596   */\n  0x40\n    /* \"#utility.yul\":9583:9592   */\n  dup4\n    /* \"#utility.yul\":9579:9597   */\n  add\n    /* \"#utility.yul\":9570:9576   */\n  dup5\n    /* \"#utility.yul\":9526:9598   */\n  tag_72\n  jump\t// in\ntag_189:\n    /* \"#utility.yul\":9163:9605   */\n  swap5\n  swap4\n  pop\n  pop\n  pop\n  pop\n  jump\t// out\n    /* \"#utility.yul\":9611:9833   */\ntag_43:\n    /* \"#utility.yul\":9704:9708   */\n  0x00\n    /* \"#utility.yul\":9742:9744   */\n  0x20\n    /* \"#utility.yul\":9731:9740   */\n  dup3\n    /* \"#utility.yul\":9727:9745   */\n  add\n    /* \"#utility.yul\":9719:9745   */\n  swap1\n  pop\n    /* \"#utility.yul\":9755:9826   */\n  tag_191\n    /* \"#utility.yul\":9823:9824   */\n  0x00\n    /* \"#utility.yul\":9812:9821   */\n  dup4\n    /* \"#utility.yul\":9808:9825   */\n  add\n    /* \"#utility.yul\":9799:9805   */\n  dup5\n    /* \"#utility.yul\":9755:9826   */\n  tag_72\n  jump\t// in\ntag_191:\n    /* \"#utility.yul\":9611:9833   */\n  swap3\n  swap2\n  pop\n  pop\n  jump\t// out\n    /* \"contracts/EBRToken.sol\":174:1208  contract EBRToken is ERC20, Ownable {... */\ntag_24:\n  dataSize(sub_0)\n  dup1\n  dataOffset(sub_0)\n  0x00\n  codecopy\n  0x00\n  return\nstop\n\nsub_0: assembly {\n        /* \"contracts/EBRToken.sol\":174:1208  contract EBRToken is ERC20, Ownable {... */\n      mstore(0x40, 0x80)\n      callvalue\n      dup1\n      iszero\n      tag_1\n      jumpi\n      0x00\n      dup1\n      revert\n    tag_1:\n      pop\n      jumpi(tag_2, lt(calldatasize, 0x04))\n      shr(0xe0, calldataload(0x00))\n      dup1\n      0x715018a6\n      gt\n      tag_18\n      jumpi\n      dup1\n      0xa9059cbb\n      gt\n      tag_19\n      jumpi\n      dup1\n      0xa9059cbb\n      eq\n      tag_14\n      jumpi\n      dup1\n      0xd5714091\n      eq\n      tag_15\n      jumpi\n      dup1\n      0xdd62ed3e\n      eq\n      tag_16\n      jumpi\n      dup1\n      0xf2fde38b\n      eq\n      tag_17\n      jumpi\n      jump(tag_2)\n    tag_19:\n      dup1\n      0x715018a6\n      eq\n      tag_10\n      jumpi\n      dup1\n      0x7a3a9cbd\n      eq\n      tag_11\n      jumpi\n      dup1\n      0x8da5cb5b\n      eq\n      tag_12\n      jumpi\n      dup1\n      0x95d89b41\n      eq\n      tag_13\n      jumpi\n      jump(tag_2)\n    tag_18:\n      dup1\n      0x23b872dd\n      gt\n      tag_20\n      jumpi\n      dup1\n      0x23b872dd\n      eq\n      tag_6\n      jumpi\n      dup1\n      0x313ce567\n      eq\n      tag_7\n      jumpi\n      dup1\n      0x67001e33\n      eq\n      tag_8\n      jumpi\n      dup1\n      0x70a08231\n      eq\n      tag_9\n      jumpi\n      jump(tag_2)\n    tag_20:\n      dup1\n      0x06fdde03\n      eq\n      tag_3\n      jumpi\n      dup1\n      0x095ea7b3\n      eq\n      tag_4\n      jumpi\n      dup1\n      0x18160ddd\n      eq\n      tag_5\n      jumpi\n    tag_2:\n      0x00\n      dup1\n      revert\n        /* \"@openzeppelin/contracts/token/ERC20/ERC20.sol\":1760:1849  function name() public view virtual returns (string memory) {... */\n    tag_3:\n      tag_21\n      tag_22\n      jump\t// in\n    tag_21:\n      mload(0x40)\n      tag_23\n      swap2\n      swap1\n      tag_24\n      jump\t// in\n    tag_23:\n      mload(0x40)\n      dup1\n      swap2\n      sub\n      swap1\n      return\n        /* \"@openzeppelin/contracts/token/ERC20/ERC20.sol\":3902:4088  function approve(address spender, uint256 value) public virtual returns (bool) {... */\n    tag_4:\n      tag_25\n      0x04\n      dup1\n      calldatasize\n      sub\n      dup2\n      add\n      swap1\n      tag_26\n      swap2\n      swap1\n      tag_27\n      jump\t// in\n    tag_26:\n      tag_28\n      jump\t// in\n    tag_25:\n      mload(0x40)\n      tag_29\n      swap2\n      swap1\n      tag_30\n      jump\t// in\n    tag_29:\n      mload(0x40)\n      dup1\n      swap2\n      sub\n      swap1\n      return\n        /* \"@openzeppelin/contracts/token/ERC20/ERC20.sol\":2803:2900  function totalSupply() public view virtual returns (uint256) {... */\n    tag_5:\n      tag_31\n      tag_32\n      jump\t// in\n    tag_31:\n      mload(0x40)\n      tag_33\n      swap2\n      swap1\n      tag_34\n      jump\t// in\n    tag_33:\n      mload(0x40)\n      dup1\n      swap2\n      sub\n      swap1\n      return\n        /* \"@openzeppelin/contracts/token/ERC20/ERC20.sol\":4680:4924  function transferFrom(address from, address to, uint256 value) public virtual returns (bool) {... */\n    tag_6:\n      tag_35\n      0x04\n      dup1\n      calldatasize\n      sub\n      dup2\n      add\n      swap1\n      tag_36\n      swap2\n      swap1\n      tag_37\n      jump\t// in\n    tag_36:\n      tag_38\n      jump\t// in\n    tag_35:\n      mload(0x40)\n      tag_39\n      swap2\n      swap1\n      tag_30\n      jump\t// in\n    tag_39:\n      mload(0x40)\n      dup1\n      swap2\n      sub\n      swap1\n      return\n        /* \"@openzeppelin/contracts/token/ERC20/ERC20.sol\":2688:2770  function decimals() public view virtual returns (uint8) {... */\n    tag_7:\n      tag_40\n      tag_41\n      jump\t// in\n    tag_40:\n      mload(0x40)\n      tag_42\n      swap2\n      swap1\n      tag_43\n      jump\t// in\n    tag_42:\n      mload(0x40)\n      dup1\n      swap2\n      sub\n      swap1\n      return\n        /* \"contracts/EBRToken.sol\":597:700  function addRecycler(address _recycler) public onlyOwner {... */\n    tag_8:\n      tag_44\n      0x04\n      dup1\n      calldatasize\n      sub\n      dup2\n      add\n      swap1\n      tag_45\n      swap2\n      swap1\n      tag_46\n      jump\t// in\n    tag_45:\n      tag_47\n      jump\t// in\n    tag_44:\n      stop\n        /* \"@openzeppelin/contracts/token/ERC20/ERC20.sol\":2933:3049  function balanceOf(address account) public view virtual returns (uint256) {... */\n    tag_9:\n      tag_48\n      0x04\n      dup1\n      calldatasize\n      sub\n      dup2\n      add\n      swap1\n      tag_49\n      swap2\n      swap1\n      tag_46\n      jump\t// in\n    tag_49:\n      tag_50\n      jump\t// in\n    tag_48:\n      mload(0x40)\n      tag_51\n      swap2\n      swap1\n      tag_34\n      jump\t// in\n    tag_51:\n      mload(0x40)\n      dup1\n      swap2\n      sub\n      swap1\n      return\n        /* \"@openzeppelin/contracts/access/Ownable.sol\":2293:2394  function renounceOwnership() public virtual onlyOwner {... */\n    tag_10:\n      tag_52\n      tag_53\n      jump\t// in\n    tag_52:\n      stop\n        /* \"contracts/EBRToken.sol\":292:333  mapping(address => bool) public recyclers */\n    tag_11:\n      tag_54\n      0x04\n      dup1\n      calldatasize\n      sub\n      dup2\n      add\n      swap1\n      tag_55\n      swap2\n      swap1\n      tag_46\n      jump\t// in\n    tag_55:\n      tag_56\n      jump\t// in\n    tag_54:\n      mload(0x40)\n      tag_57\n      swap2\n      swap1\n      tag_30\n      jump\t// in\n    tag_57:\n      mload(0x40)\n      dup1\n      swap2\n      sub\n      swap1\n      return\n        /* \"@openzeppelin/contracts/access/Ownable.sol\":1638:1723  function owner() public view virtual returns (address) {... */\n    tag_12:\n      tag_58\n      tag_59\n      jump\t// in\n    tag_58:\n      mload(0x40)\n      tag_60\n      swap2\n      swap1\n      tag_61\n      jump\t// in\n    tag_60:\n      mload(0x40)\n      dup1\n      swap2\n      sub\n      swap1\n      return\n        /* \"@openzeppelin/contracts/token/ERC20/ERC20.sol\":1962:2055  function symbol() public view virtual returns (string memory) {... */\n    tag_13:\n      tag_62\n      tag_63\n      jump\t// in\n    tag_62:\n      mload(0x40)\n      tag_64\n      swap2\n      swap1\n      tag_24\n      jump\t// in\n    tag_64:\n      mload(0x40)\n      dup1\n      swap2\n      sub\n      swap1\n      return\n        /* \"@openzeppelin/contracts/token/ERC20/ERC20.sol\":3244:3422  function transfer(address to, uint256 value) public virtual returns (bool) {... */\n    tag_14:\n      tag_65\n      0x04\n      dup1\n      calldatasize\n      sub\n      dup2\n      add\n      swap1\n      tag_66\n      swap2\n      swap1\n      tag_27\n      jump\t// in\n    tag_66:\n      tag_67\n      jump\t// in\n    tag_65:\n      mload(0x40)\n      tag_68\n      swap2\n      swap1\n      tag_30\n      jump\t// in\n    tag_68:\n      mload(0x40)\n      dup1\n      swap2\n      sub\n      swap1\n      return\n        /* \"contracts/EBRToken.sol\":966:1205  function issueReward(address user, uint256 weight) public onlyRecycler {... */\n    tag_15:\n      tag_69\n      0x04\n      dup1\n      calldatasize\n      sub\n      dup2\n      add\n      swap1\n      tag_70\n      swap2\n      swap1\n      tag_27\n      jump\t// in\n    tag_70:\n      tag_71\n      jump\t// in\n    tag_69:\n      stop\n        /* \"@openzeppelin/contracts/token/ERC20/ERC20.sol\":3455:3595  function allowance(address owner, address spender) public view virtual returns (uint256) {... */\n    tag_16:\n      tag_72\n      0x04\n      dup1\n      calldatasize\n      sub\n      dup2\n      add\n      swap1\n      tag_73\n      swap2\n      swap1\n      tag_74\n      jump\t// in\n    tag_73:\n      tag_75\n      jump\t// in\n    tag_72:\n      mload(0x40)\n      tag_76\n      swap2\n      swap1\n      tag_34\n      jump\t// in\n    tag_76:\n      mload(0x40)\n      dup1\n      swap2\n      sub\n      swap1\n      return\n        /* \"@openzeppelin/contracts/access/Ownable.sol\":2543:2758  function transferOwnership(address newOwner) public virtual onlyOwner {... */\n    tag_17:\n      tag_77\n      0x04\n      dup1\n      calldatasize\n      sub\n      dup2\n      add\n      swap1\n      tag_78\n      swap2\n      swap1\n      tag_46\n      jump\t// in\n    tag_78:\n      tag_79\n      jump\t// in\n    tag_77:\n      stop\n        /* \"@openzeppelin/contracts/token/ERC20/ERC20.sol\":1760:1849  function name() public view virtual returns (string memory) {... */\n    tag_22:\n        /* \"@openzeppelin/contracts/token/ERC20/ERC20.sol\":1805:1818  string memory */\n      0x60\n        /* \"@openzeppelin/contracts/token/ERC20/ERC20.sol\":1837:1842  _name */\n      0x03\n        /* \"@openzeppelin/contracts/token/ERC20/ERC20.sol\":1830:1842  return _name */\n      dup1\n      sload\n      tag_81\n      swap1\n      tag_82\n      jump\t// in\n    tag_81:\n      dup1\n      0x1f\n      add\n      0x20\n      dup1\n      swap2\n      div\n      mul\n      0x20\n      add\n      mload(0x40)\n      swap1\n      dup2\n      add\n      0x40\n      mstore\n      dup1\n      swap3\n      swap2\n      swap1\n      dup2\n      dup2\n      mstore\n      0x20\n      add\n      dup3\n      dup1\n      sload\n      tag_83\n      swap1\n      tag_82\n      jump\t// in\n    tag_83:\n      dup1\n      iszero\n      tag_84\n      jumpi\n      dup1\n      0x1f\n      lt\n      tag_85\n      jumpi\n      0x0100\n      dup1\n      dup4\n      sload\n      div\n      mul\n      dup4\n      mstore\n      swap2\n      0x20\n      add\n      swap2\n      jump(tag_84)\n    tag_85:\n      dup3\n      add\n      swap2\n      swap1\n      0x00\n      mstore\n      keccak256(0x00, 0x20)\n      swap1\n    tag_86:\n      dup2\n      sload\n      dup2\n      mstore\n      swap1\n      0x01\n      add\n      swap1\n      0x20\n      add\n      dup1\n      dup4\n      gt\n      tag_86\n      jumpi\n      dup3\n      swap1\n      sub\n      0x1f\n      and\n      dup3\n      add\n      swap2\n    tag_84:\n      pop\n      pop\n      pop\n      pop\n      pop\n      swap1\n      pop\n        /* \"@openzeppelin/contracts/token/ERC20/ERC20.sol\":1760:1849  function name() public view virtual returns (string memory) {... */\n      swap1\n      jump\t// out\n        /* \"@openzeppelin/contracts/token/ERC20/ERC20.sol\":3902:4088  function approve(address spender, uint256 value) public virtual returns (bool) {... */\n    tag_28:\n        /* \"@openzeppelin/contracts/token/ERC20/ERC20.sol\":3975:3979  bool */\n      0x00\n        /* \"@openzeppelin/contracts/token/ERC20/ERC20.sol\":3991:4004  address owner */\n      dup1\n        /* \"@openzeppelin/contracts/token/ERC20/ERC20.sol\":4007:4019  _msgSender() */\n      tag_88\n        /* \"@openzeppelin/contracts/token/ERC20/ERC20.sol\":4007:4017  _msgSender */\n      tag_89\n        /* \"@openzeppelin/contracts/token/ERC20/ERC20.sol\":4007:4019  _msgSender() */\n      jump\t// in\n    tag_88:\n        /* \"@openzeppelin/contracts/token/ERC20/ERC20.sol\":3991:4019  address owner = _msgSender() */\n      swap1\n      pop\n        /* \"@openzeppelin/contracts/token/ERC20/ERC20.sol\":4029:4060  _approve(owner, spender, value) */\n      tag_90\n        /* \"@openzeppelin/contracts/token/ERC20/ERC20.sol\":4038:4043  owner */\n      dup2\n        /* \"@openzeppelin/contracts/token/ERC20/ERC20.sol\":4045:4052  spender */\n      dup6\n        /* \"@openzeppelin/contracts/token/ERC20/ERC20.sol\":4054:4059  value */\n      dup6\n        /* \"@openzeppelin/contracts/token/ERC20/ERC20.sol\":4029:4037  _approve */\n      tag_91\n        /* \"@openzeppelin/contracts/token/ERC20/ERC20.sol\":4029:4060  _approve(owner, spender, value) */\n      jump\t// in\n    tag_90:\n        /* \"@openzeppelin/contracts/token/ERC20/ERC20.sol\":4077:4081  true */\n      0x01\n        /* \"@openzeppelin/contracts/token/ERC20/ERC20.sol\":4070:4081  return true */\n      swap2\n      pop\n      pop\n        /* \"@openzeppelin/contracts/token/ERC20/ERC20.sol\":3902:4088  function approve(address spender, uint256 value) public virtual returns (bool) {... */\n      swap3\n      swap2\n      pop\n      pop\n      jump\t// out\n        /* \"@openzeppelin/contracts/token/ERC20/ERC20.sol\":2803:2900  function totalSupply() public view virtual returns (uint256) {... */\n    tag_32:\n        /* \"@openzeppelin/contracts/token/ERC20/ERC20.sol\":2855:2862  uint256 */\n      0x00\n        /* \"@openzeppelin/contracts/token/ERC20/ERC20.sol\":2881:2893  _totalSupply */\n      sload(0x02)\n        /* \"@openzeppelin/contracts/token/ERC20/ERC20.sol\":2874:2893  return _totalSupply */\n      swap1\n      pop\n        /* \"@openzeppelin/contracts/token/ERC20/ERC20.sol\":2803:2900  function totalSupply() public view virtual returns (uint256) {... */\n      swap1\n      jump\t// out\n        /* \"@openzeppelin/contracts/token/ERC20/ERC20.sol\":4680:4924  function transferFrom(address from, address to, uint256 value) public virtual returns (bool) {... */\n    tag_38:\n        /* \"@openzeppelin/contracts/token/ERC20/ERC20.sol\":4767:4771  bool */\n      0x00\n        /* \"@openzeppelin/contracts/token/ERC20/ERC20.sol\":4783:4798  address spender */\n      dup1\n        /* \"@openzeppelin/contracts/token/ERC20/ERC20.sol\":4801:4813  _msgSender() */\n      tag_94\n        /* \"@openzeppelin/contracts/token/ERC20/ERC20.sol\":4801:4811  _msgSender */\n      tag_89\n        /* \"@openzeppelin/contracts/token/ERC20/ERC20.sol\":4801:4813  _msgSender() */\n      jump\t// in\n    tag_94:\n        /* \"@openzeppelin/contracts/token/ERC20/ERC20.sol\":4783:4813  address spender = _msgSender() */\n      swap1\n      pop\n        /* \"@openzeppelin/contracts/token/ERC20/ERC20.sol\":4823:4860  _spendAllowance(from, spender, value) */\n      tag_95\n        /* \"@openzeppelin/contracts/token/ERC20/ERC20.sol\":4839:4843  from */\n      dup6\n        /* \"@openzeppelin/contracts/token/ERC20/ERC20.sol\":4845:4852  spender */\n      dup3\n        /* \"@openzeppelin/contracts/token/ERC20/ERC20.sol\":4854:4859  value */\n      dup6\n        /* \"@openzeppelin/contracts/token/ERC20/ERC20.sol\":4823:4838  _spendAllowance */\n      tag_96\n        /* \"@openzeppelin/contracts/token/ERC20/ERC20.sol\":4823:4860  _spendAllowance(from, spender, value) */\n      jump\t// in\n    tag_95:\n        /* \"@openzeppelin/contracts/token/ERC20/ERC20.sol\":4870:4896  _transfer(from, to, value) */\n      tag_97\n        /* \"@openzeppelin/contracts/token/ERC20/ERC20.sol\":4880:4884  from */\n      dup6\n        /* \"@openzeppelin/contracts/token/ERC20/ERC20.sol\":4886:4888  to */\n      dup6\n        /* \"@openzeppelin/contracts/token/ERC20/ERC20.sol\":4890:4895  value */\n      dup6\n        /* \"@openzeppelin/contracts/token/ERC20/ERC20.sol\":4870:4879  _transfer */\n      tag_98\n        /* \"@openzeppelin/contracts/token/ERC20/ERC20.sol\":4870:4896  _transfer(from, to, value) */\n      jump\t// in\n    tag_97:\n        /* \"@openzeppelin/contracts/token/ERC20/ERC20.sol\":4913:4917  true */\n      0x01\n        /* \"@openzeppelin/contracts/token/ERC20/ERC20.sol\":4906:4917  return true */\n      swap2\n      pop\n      pop\n        /* \"@openzeppelin/contracts/token/ERC20/ERC20.sol\":4680:4924  function transferFrom(address from, address to, uint256 value) public virtual returns (bool) {... */\n      swap4\n      swap3\n      pop\n      pop\n      pop\n      jump\t// out\n        /* \"@openzeppelin/contracts/token/ERC20/ERC20.sol\":2688:2770  function decimals() public view virtual returns (uint8) {... */\n    tag_41:\n        /* \"@openzeppelin/contracts/token/ERC20/ERC20.sol\":2737:2742  uint8 */\n      0x00\n        /* \"@openzeppelin/contracts/token/ERC20/ERC20.sol\":2761:2763  18 */\n      0x12\n        /* \"@openzeppelin/contracts/token/ERC20/ERC20.sol\":2754:2763  return 18 */\n      swap1\n      pop\n        /* \"@openzeppelin/contracts/token/ERC20/ERC20.sol\":2688:2770  function decimals() public view virtual returns (uint8) {... */\n      swap1\n      jump\t// out\n        /* \"contracts/EBRToken.sol\":597:700  function addRecycler(address _recycler) public onlyOwner {... */\n    tag_47:\n        /* \"@openzeppelin/contracts/access/Ownable.sol\":1531:1544  _checkOwner() */\n      tag_101\n        /* \"@openzeppelin/contracts/access/Ownable.sol\":1531:1542  _checkOwner */\n      tag_102\n        /* \"@openzeppelin/contracts/access/Ownable.sol\":1531:1544  _checkOwner() */\n      jump\t// in\n    tag_101:\n        /* \"contracts/EBRToken.sol\":688:692  true */\n      0x01\n        /* \"contracts/EBRToken.sol\":665:674  recyclers */\n      0x06\n        /* \"contracts/EBRToken.sol\":665:685  recyclers[_recycler] */\n      0x00\n        /* \"contracts/EBRToken.sol\":675:684  _recycler */\n      dup4\n        /* \"contracts/EBRToken.sol\":665:685  recyclers[_recycler] */\n      0xffffffffffffffffffffffffffffffffffffffff\n      and\n      0xffffffffffffffffffffffffffffffffffffffff\n      and\n      dup2\n      mstore\n      0x20\n      add\n      swap1\n      dup2\n      mstore\n      0x20\n      add\n      0x00\n      keccak256\n      0x00\n        /* \"contracts/EBRToken.sol\":665:692  recyclers[_recycler] = true */\n      0x0100\n      exp\n      dup2\n      sload\n      dup2\n      0xff\n      mul\n      not\n      and\n      swap1\n      dup4\n      iszero\n      iszero\n      mul\n      or\n      swap1\n      sstore\n      pop\n        /* \"contracts/EBRToken.sol\":597:700  function addRecycler(address _recycler) public onlyOwner {... */\n      pop\n      jump\t// out\n        /* \"@openzeppelin/contracts/token/ERC20/ERC20.sol\":2933:3049  function balanceOf(address account) public view virtual returns (uint256) {... */\n    tag_50:\n        /* \"@openzeppelin/contracts/token/ERC20/ERC20.sol\":2998:3005  uint256 */\n      0x00\n        /* \"@openzeppelin/contracts/token/ERC20/ERC20.sol\":3024:3033  _balances */\n      dup1\n        /* \"@openzeppelin/contracts/token/ERC20/ERC20.sol\":3024:3042  _balances[account] */\n      0x00\n        /* \"@openzeppelin/contracts/token/ERC20/ERC20.sol\":3034:3041  account */\n      dup4\n        /* \"@openzeppelin/contracts/token/ERC20/ERC20.sol\":3024:3042  _balances[account] */\n      0xffffffffffffffffffffffffffffffffffffffff\n      and\n      0xffffffffffffffffffffffffffffffffffffffff\n      and\n      dup2\n      mstore\n      0x20\n      add\n      swap1\n      dup2\n      mstore\n      0x20\n      add\n      0x00\n      keccak256\n      sload\n        /* \"@openzeppelin/contracts/token/ERC20/ERC20.sol\":3017:3042  return _balances[account] */\n      swap1\n      pop\n        /* \"@openzeppelin/contracts/token/ERC20/ERC20.sol\":2933:3049  function balanceOf(address account) public view virtual returns (uint256) {... */\n      swap2\n      swap1\n      pop\n      jump\t// out\n        /* \"@openzeppelin/contracts/access/Ownable.sol\":2293:2394  function renounceOwnership() public virtual onlyOwner {... */\n    tag_53:\n        /* \"@openzeppelin/contracts/access/Ownable.sol\":1531:1544  _checkOwner() */\n      tag_106\n        /* \"@openzeppelin/contracts/access/Ownable.sol\":1531:1542  _checkOwner */\n      tag_102\n        /* \"@openzeppelin/contracts/access/Ownable.sol\":1531:1544  _checkOwner() */\n      jump\t// in\n    tag_106:\n        /* \"@openzeppelin/contracts/access/Ownable.sol\":2357:2387  _transferOwnership(address(0)) */\n      tag_108\n        /* \"@openzeppelin/contracts/access/Ownable.sol\":2384:2385  0 */\n      0x00\n        /* \"@openzeppelin/contracts/access/Ownable.sol\":2357:2375  _transferOwnership */\n      tag_109\n        /* \"@openzeppelin/contracts/access/Ownable.sol\":2357:2387  _transferOwnership(address(0)) */\n      jump\t// in\n    tag_108:\n        /* \"@openzeppelin/contracts/access/Ownable.sol\":2293:2394  function renounceOwnership() public virtual onlyOwner {... */\n      jump\t// out\n        /* \"contracts/EBRToken.sol\":292:333  mapping(address => bool) public recyclers */\n    tag_56:\n      mstore(0x20, 0x06)\n      dup1\n      0x00\n      mstore\n      keccak256(0x00, 0x40)\n      0x00\n      swap2\n      pop\n      sload\n      swap1\n      0x0100\n      exp\n      swap1\n      div\n      0xff\n      and\n      dup2\n      jump\t// out\n        /* \"@openzeppelin/contracts/access/Ownable.sol\":1638:1723  function owner() public view virtual returns (address) {... */\n    tag_59:\n        /* \"@openzeppelin/contracts/access/Ownable.sol\":1684:1691  address */\n      0x00\n        /* \"@openzeppelin/contracts/access/Ownable.sol\":1710:1716  _owner */\n      0x05\n      0x00\n      swap1\n      sload\n      swap1\n      0x0100\n      exp\n      swap1\n      div\n      0xffffffffffffffffffffffffffffffffffffffff\n      and\n        /* \"@openzeppelin/contracts/access/Ownable.sol\":1703:1716  return _owner */\n      swap1\n      pop\n        /* \"@openzeppelin/contracts/access/Ownable.sol\":1638:1723  function owner() public view virtual returns (address) {... */\n      swap1\n      jump\t// out\n        /* \"@openzeppelin/contracts/token/ERC20/ERC20.sol\":1962:2055  function symbol() public view virtual returns (string memory) {... */\n    tag_63:\n        /* \"@openzeppelin/contracts/token/ERC20/ERC20.sol\":2009:2022  string memory */\n      0x60\n        /* \"@openzeppelin/contracts/token/ERC20/ERC20.sol\":2041:2048  _symbol */\n      0x04\n        /* \"@openzeppelin/contracts/token/ERC20/ERC20.sol\":2034:2048  return _symbol */\n      dup1\n      sload\n      tag_112\n      swap1\n      tag_82\n      jump\t// in\n    tag_112:\n      dup1\n      0x1f\n      add\n      0x20\n      dup1\n      swap2\n      div\n      mul\n      0x20\n      add\n      mload(0x40)\n      swap1\n      dup2\n      add\n      0x40\n      mstore\n      dup1\n      swap3\n      swap2\n      swap1\n      dup2\n      dup2\n      mstore\n      0x20\n      add\n      dup3\n      dup1\n      sload\n      tag_113\n      swap1\n      tag_82\n      jump\t// in\n    tag_113:\n      dup1\n      iszero\n      tag_114\n      jumpi\n      dup1\n      0x1f\n      lt\n      tag_115\n      jumpi\n      0x0100\n      dup1\n      dup4\n      sload\n      div\n      mul\n      dup4\n      mstore\n      swap2\n      0x20\n      add\n      swap2\n      jump(tag_114)\n    tag_115:\n      dup3\n      add\n      swap2\n      swap1\n      0x00\n      mstore\n      keccak256(0x00, 0x20)\n      swap1\n    tag_116:\n      dup2\n      sload\n      dup2\n      mstore\n      swap1\n      0x01\n      add\n      swap1\n      0x20\n      add\n      dup1\n      dup4\n      gt\n      tag_116\n      jumpi\n      dup3\n      swap1\n      sub\n      0x1f\n      and\n      dup3\n      add\n      swap2\n    tag_114:\n      pop\n      pop\n      pop\n      pop\n      pop\n      swap1\n      pop\n        /* \"@openzeppelin/contracts/token/ERC20/ERC20.sol\":1962:2055  function symbol() public view virtual returns (string memory) {... */\n      swap1\n      jump\t// out\n        /* \"@openzeppelin/contracts/token/ERC20/ERC20.sol\":3244:3422  function transfer(address to, uint256 value) public virtual returns (bool) {... */\n    tag_67:\n        /* \"@openzeppelin/contracts/token/ERC20/ERC20.sol\":3313:3317  bool */\n      0x00\n        /* \"@openzeppelin/contracts/token/ERC20/ERC20.sol\":3329:3342  address owner */\n      dup1\n        /* \"@openzeppelin/contracts/token/ERC20/ERC20.sol\":3345:3357  _msgSender() */\n      tag_118\n        /* \"@openzeppelin/contracts/token/ERC20/ERC20.sol\":3345:3355  _msgSender */\n      tag_89\n        /* \"@openzeppelin/contracts/token/ERC20/ERC20.sol\":3345:3357  _msgSender() */\n      jump\t// in\n    tag_118:\n        /* \"@openzeppelin/contracts/token/ERC20/ERC20.sol\":3329:3357  address owner = _msgSender() */\n      swap1\n      pop\n        /* \"@openzeppelin/contracts/token/ERC20/ERC20.sol\":3367:3394  _transfer(owner, to, value) */\n      tag_119\n        /* \"@openzeppelin/contracts/token/ERC20/ERC20.sol\":3377:3382  owner */\n      dup2\n        /* \"@openzeppelin/contracts/token/ERC20/ERC20.sol\":3384:3386  to */\n      dup6\n        /* \"@openzeppelin/contracts/token/ERC20/ERC20.sol\":3388:3393  value */\n      dup6\n        /* \"@openzeppelin/contracts/token/ERC20/ERC20.sol\":3367:3376  _transfer */\n      tag_98\n        /* \"@openzeppelin/contracts/token/ERC20/ERC20.sol\":3367:3394  _transfer(owner, to, value) */\n      jump\t// in\n    tag_119:\n        /* \"@openzeppelin/contracts/token/ERC20/ERC20.sol\":3411:3415  true */\n      0x01\n        /* \"@openzeppelin/contracts/token/ERC20/ERC20.sol\":3404:3415  return true */\n      swap2\n      pop\n      pop\n        /* \"@openzeppelin/contracts/token/ERC20/ERC20.sol\":3244:3422  function transfer(address to, uint256 value) public virtual returns (bool) {... */\n      swap3\n      swap2\n      pop\n      pop\n      jump\t// out\n        /* \"contracts/EBRToken.sol\":966:1205  function issueReward(address user, uint256 weight) public onlyRecycler {... */\n    tag_71:\n        /* \"contracts/EBRToken.sol\":813:822  recyclers */\n      0x06\n        /* \"contracts/EBRToken.sol\":813:834  recyclers[msg.sender] */\n      0x00\n        /* \"contracts/EBRToken.sol\":823:833  msg.sender */\n      caller\n        /* \"contracts/EBRToken.sol\":813:834  recyclers[msg.sender] */\n      0xffffffffffffffffffffffffffffffffffffffff\n      and\n      0xffffffffffffffffffffffffffffffffffffffff\n      and\n      dup2\n      mstore\n      0x20\n      add\n      swap1\n      dup2\n      mstore\n      0x20\n      add\n      0x00\n      keccak256\n      0x00\n      swap1\n      sload\n      swap1\n      0x0100\n      exp\n      swap1\n      div\n      0xff\n      and\n        /* \"contracts/EBRToken.sol\":813:859  recyclers[msg.sender] || msg.sender == owner() */\n      dup1\n      tag_121\n      jumpi\n      pop\n        /* \"contracts/EBRToken.sol\":852:859  owner() */\n      tag_122\n        /* \"contracts/EBRToken.sol\":852:857  owner */\n      tag_59\n        /* \"contracts/EBRToken.sol\":852:859  owner() */\n      jump\t// in\n    tag_122:\n        /* \"contracts/EBRToken.sol\":838:859  msg.sender == owner() */\n      0xffffffffffffffffffffffffffffffffffffffff\n      and\n        /* \"contracts/EBRToken.sol\":838:848  msg.sender */\n      caller\n        /* \"contracts/EBRToken.sol\":838:859  msg.sender == owner() */\n      0xffffffffffffffffffffffffffffffffffffffff\n      and\n      eq\n        /* \"contracts/EBRToken.sol\":813:859  recyclers[msg.sender] || msg.sender == owner() */\n    tag_121:\n        /* \"contracts/EBRToken.sol\":805:887  require(recyclers[msg.sender] || msg.sender == owner(), \"Not authorized recycler\") */\n      tag_123\n      jumpi\n      mload(0x40)\n      0x08c379a000000000000000000000000000000000000000000000000000000000\n      dup2\n      mstore\n      0x04\n      add\n      tag_124\n      swap1\n      tag_125\n      jump\t// in\n    tag_124:\n      mload(0x40)\n      dup1\n      swap2\n      sub\n      swap1\n      revert\n    tag_123:\n        /* \"contracts/EBRToken.sol\":1095:1115  uint256 rewardAmount */\n      0x00\n        /* \"contracts/EBRToken.sol\":1138:1148  decimals() */\n      tag_127\n        /* \"contracts/EBRToken.sol\":1138:1146  decimals */\n      tag_41\n        /* \"contracts/EBRToken.sol\":1138:1148  decimals() */\n      jump\t// in\n    tag_127:\n        /* \"contracts/EBRToken.sol\":1132:1134  10 */\n      0x0a\n        /* \"contracts/EBRToken.sol\":1132:1148  10 ** decimals() */\n      tag_128\n      swap2\n      swap1\n      tag_129\n      jump\t// in\n    tag_128:\n        /* \"contracts/EBRToken.sol\":1127:1129  50 */\n      0x32\n        /* \"contracts/EBRToken.sol\":1118:1124  weight */\n      dup4\n        /* \"contracts/EBRToken.sol\":1118:1129  weight * 50 */\n      tag_130\n      swap2\n      swap1\n      tag_131\n      jump\t// in\n    tag_130:\n        /* \"contracts/EBRToken.sol\":1118:1148  weight * 50 * 10 ** decimals() */\n      tag_132\n      swap2\n      swap1\n      tag_131\n      jump\t// in\n    tag_132:\n        /* \"contracts/EBRToken.sol\":1095:1148  uint256 rewardAmount = weight * 50 * 10 ** decimals() */\n      swap1\n      pop\n        /* \"contracts/EBRToken.sol\":1159:1197  _transfer(owner(), user, rewardAmount) */\n      tag_133\n        /* \"contracts/EBRToken.sol\":1169:1176  owner() */\n      tag_134\n        /* \"contracts/EBRToken.sol\":1169:1174  owner */\n      tag_59\n        /* \"contracts/EBRToken.sol\":1169:1176  owner() */\n      jump\t// in\n    tag_134:\n        /* \"contracts/EBRToken.sol\":1178:1182  user */\n      dup5\n        /* \"contracts/EBRToken.sol\":1184:1196  rewardAmount */\n      dup4\n        /* \"contracts/EBRToken.sol\":1159:1168  _transfer */\n      tag_98\n        /* \"contracts/EBRToken.sol\":1159:1197  _transfer(owner(), user, rewardAmount) */\n      jump\t// in\n    tag_133:\n        /* \"contracts/EBRToken.sol\":1037:1205  {... */\n      pop\n        /* \"contracts/EBRToken.sol\":966:1205  function issueReward(address user, uint256 weight) public onlyRecycler {... */\n      pop\n      pop\n      jump\t// out\n        /* \"@openzeppelin/contracts/token/ERC20/ERC20.sol\":3455:3595  function allowance(address owner, address spender) public view virtual returns (uint256) {... */\n    tag_75:\n        /* \"@openzeppelin/contracts/token/ERC20/ERC20.sol\":3535:3542  uint256 */\n      0x00\n        /* \"@openzeppelin/contracts/token/ERC20/ERC20.sol\":3561:3572  _allowances */\n      0x01\n        /* \"@openzeppelin/contracts/token/ERC20/ERC20.sol\":3561:3579  _allowances[owner] */\n      0x00\n        /* \"@openzeppelin/contracts/token/ERC20/ERC20.sol\":3573:3578  owner */\n      dup5\n        /* \"@openzeppelin/contracts/token/ERC20/ERC20.sol\":3561:3579  _allowances[owner] */\n      0xffffffffffffffffffffffffffffffffffffffff\n      and\n      0xffffffffffffffffffffffffffffffffffffffff\n      and\n      dup2\n      mstore\n      0x20\n      add\n      swap1\n      dup2\n      mstore\n      0x20\n      add\n      0x00\n      keccak256\n        /* \"@openzeppelin/contracts/token/ERC20/ERC20.sol\":3561:3588  _allowances[owner][spender] */\n      0x00\n        /* \"@openzeppelin/contracts/token/ERC20/ERC20.sol\":3580:3587  spender */\n      dup4\n        /* \"@openzeppelin/contracts/token/ERC20/ERC20.sol\":3561:3588  _allowances[owner][spender] */\n      0xffffffffffffffffffffffffffffffffffffffff\n      and\n      0xffffffffffffffffffffffffffffffffffffffff\n      and\n      dup2\n      mstore\n      0x20\n      add\n      swap1\n      dup2\n      mstore\n      0x20\n      add\n      0x00\n      keccak256\n      sload\n        /* \"@openzeppelin/contracts/token/ERC20/ERC20.sol\":3554:3588  return _allowances[owner][spender] */\n      swap1\n      pop\n        /* \"@openzeppelin/contracts/token/ERC20/ERC20.sol\":3455:3595  function allowance(address owner, address spender) public view virtual returns (uint256) {... */\n      swap3\n      swap2\n      pop\n      pop\n      jump\t// out\n        /* \"@openzeppelin/contracts/access/Ownable.sol\":2543:2758  function transferOwnership(address newOwner) public virtual onlyOwner {... */\n    tag_79:\n        /* \"@openzeppelin/contracts/access/Ownable.sol\":1531:1544  _checkOwner() */\n      tag_137\n        /* \"@openzeppelin/contracts/access/Ownable.sol\":1531:1542  _checkOwner */\n      tag_102\n        /* \"@openzeppelin/contracts/access/Ownable.sol\":1531:1544  _checkOwner() */\n      jump\t// in\n    tag_137:\n        /* \"@openzeppelin/contracts/access/Ownable.sol\":2647:2648  0 */\n      0x00\n        /* \"@openzeppelin/contracts/access/Ownable.sol\":2627:2649  newOwner == address(0) */\n      0xffffffffffffffffffffffffffffffffffffffff\n      and\n        /* \"@openzeppelin/contracts/access/Ownable.sol\":2627:2635  newOwner */\n      dup2\n        /* \"@openzeppelin/contracts/access/Ownable.sol\":2627:2649  newOwner == address(0) */\n      0xffffffffffffffffffffffffffffffffffffffff\n      and\n      sub\n        /* \"@openzeppelin/contracts/access/Ownable.sol\":2623:2714  if (newOwner == address(0)) {... */\n      tag_139\n      jumpi\n        /* \"@openzeppelin/contracts/access/Ownable.sol\":2700:2701  0 */\n      0x00\n        /* \"@openzeppelin/contracts/access/Ownable.sol\":2672:2703  OwnableInvalidOwner(address(0)) */\n      mload(0x40)\n      0x1e4fbdf700000000000000000000000000000000000000000000000000000000\n      dup2\n      mstore\n      0x04\n      add\n      tag_140\n      swap2\n      swap1\n      tag_61\n      jump\t// in\n    tag_140:\n      mload(0x40)\n      dup1\n      swap2\n      sub\n      swap1\n      revert\n        /* \"@openzeppelin/contracts/access/Ownable.sol\":2623:2714  if (newOwner == address(0)) {... */\n    tag_139:\n        /* \"@openzeppelin/contracts/access/Ownable.sol\":2723:2751  _transferOwnership(newOwner) */\n      tag_141\n        /* \"@openzeppelin/contracts/access/Ownable.sol\":2742:2750  newOwner */\n      dup2\n        /* \"@openzeppelin/contracts/access/Ownable.sol\":2723:2741  _transferOwnership */\n      tag_109\n        /* \"@openzeppelin/contracts/access/Ownable.sol\":2723:2751  _transferOwnership(newOwner) */\n      jump\t// in\n    tag_141:\n        /* \"@openzeppelin/contracts/access/Ownable.sol\":2543:2758  function transferOwnership(address newOwner) public virtual onlyOwner {... */\n      pop\n      jump\t// out\n        /* \"@openzeppelin/contracts/utils/Context.sol\":656:752  function _msgSender() internal view virtual returns (address) {... */\n    tag_89:\n        /* \"@openzeppelin/contracts/utils/Context.sol\":709:716  address */\n      0x00\n        /* \"@openzeppelin/contracts/utils/Context.sol\":735:745  msg.sender */\n      caller\n        /* \"@openzeppelin/contracts/utils/Context.sol\":728:745  return msg.sender */\n      swap1\n      pop\n        /* \"@openzeppelin/contracts/utils/Context.sol\":656:752  function _msgSender() internal view virtual returns (address) {... */\n      swap1\n      jump\t// out\n        /* \"@openzeppelin/contracts/token/ERC20/ERC20.sol\":8630:8758  function _approve(address owner, address spender, uint256 value) internal {... */\n    tag_91:\n        /* \"@openzeppelin/contracts/token/ERC20/ERC20.sol\":8714:8751  _approve(owner, spender, value, true) */\n      tag_144\n        /* \"@openzeppelin/contracts/token/ERC20/ERC20.sol\":8723:8728  owner */\n      dup4\n        /* \"@openzeppelin/contracts/token/ERC20/ERC20.sol\":8730:8737  spender */\n      dup4\n        /* \"@openzeppelin/contracts/token/ERC20/ERC20.sol\":8739:8744  value */\n      dup4\n        /* \"@openzeppelin/contracts/token/ERC20/ERC20.sol\":8746:8750  true */\n      0x01\n        /* \"@openzeppelin/contracts/token/ERC20/ERC20.sol\":8714:8722  _approve */\n      tag_145\n        /* \"@openzeppelin/contracts/token/ERC20/ERC20.sol\":8714:8751  _approve(owner, spender, value, true) */\n      jump\t// in\n    tag_144:\n        /* \"@openzeppelin/contracts/token/ERC20/ERC20.sol\":8630:8758  function _approve(address owner, address spender, uint256 value) internal {... */\n      pop\n      pop\n      pop\n      jump\t// out\n        /* \"@openzeppelin/contracts/token/ERC20/ERC20.sol\":10319:10795  function _spendAllowance(address owner, address spender, uint256 value) internal virtual {... */\n    tag_96:\n        /* \"@openzeppelin/contracts/token/ERC20/ERC20.sol\":10418:10442  uint256 currentAllowance */\n      0x00\n        /* \"@openzeppelin/contracts/token/ERC20/ERC20.sol\":10445:10470  allowance(owner, spender) */\n      tag_147\n        /* \"@openzeppelin/contracts/token/ERC20/ERC20.sol\":10455:10460  owner */\n      dup5\n        /* \"@openzeppelin/contracts/token/ERC20/ERC20.sol\":10462:10469  spender */\n      dup5\n        /* \"@openzeppelin/contracts/token/ERC20/ERC20.sol\":10445:10454  allowance */\n      tag_75\n        /* \"@openzeppelin/contracts/token/ERC20/ERC20.sol\":10445:10470  allowance(owner, spender) */\n      jump\t// in\n    tag_147:\n        /* \"@openzeppelin/contracts/token/ERC20/ERC20.sol\":10418:10470  uint256 currentAllowance = allowance(owner, spender) */\n      swap1\n      pop\n        /* \"@openzeppelin/contracts/token/ERC20/ERC20.sol\":10503:10520  type(uint256).max */\n      0xffffffffffffffffffffffffffffffffffffffffffffffffffffffffffffffff\n        /* \"@openzeppelin/contracts/token/ERC20/ERC20.sol\":10484:10500  currentAllowance */\n      dup2\n        /* \"@openzeppelin/contracts/token/ERC20/ERC20.sol\":10484:10520  currentAllowance < type(uint256).max */\n      lt\n        /* \"@openzeppelin/contracts/token/ERC20/ERC20.sol\":10480:10789  if (currentAllowance < type(uint256).max) {... */\n      iszero\n      tag_148\n      jumpi\n        /* \"@openzeppelin/contracts/token/ERC20/ERC20.sol\":10559:10564  value */\n      dup2\n        /* \"@openzeppelin/contracts/token/ERC20/ERC20.sol\":10540:10556  currentAllowance */\n      dup2\n        /* \"@openzeppelin/contracts/token/ERC20/ERC20.sol\":10540:10564  currentAllowance < value */\n      lt\n        /* \"@openzeppelin/contracts/token/ERC20/ERC20.sol\":10536:10666  if (currentAllowance < value) {... */\n      iszero\n      tag_149\n      jumpi\n        /* \"@openzeppelin/contracts/token/ERC20/ERC20.sol\":10618:10625  spender */\n      dup3\n        /* \"@openzeppelin/contracts/token/ERC20/ERC20.sol\":10627:10643  currentAllowance */\n      dup2\n        /* \"@openzeppelin/contracts/token/ERC20/ERC20.sol\":10645:10650  value */\n      dup4\n        /* \"@openzeppelin/contracts/token/ERC20/ERC20.sol\":10591:10651  ERC20InsufficientAllowance(spender, currentAllowance, value) */\n      mload(0x40)\n      0xfb8f41b200000000000000000000000000000000000000000000000000000000\n      dup2\n      mstore\n      0x04\n      add\n      tag_150\n      swap4\n      swap3\n      swap2\n      swap1\n      tag_151\n      jump\t// in\n    tag_150:\n      mload(0x40)\n      dup1\n      swap2\n      sub\n      swap1\n      revert\n        /* \"@openzeppelin/contracts/token/ERC20/ERC20.sol\":10536:10666  if (currentAllowance < value) {... */\n    tag_149:\n        /* \"@openzeppelin/contracts/token/ERC20/ERC20.sol\":10707:10764  _approve(owner, spender, currentAllowance - value, false) */\n      tag_152\n        /* \"@openzeppelin/contracts/token/ERC20/ERC20.sol\":10716:10721  owner */\n      dup5\n        /* \"@openzeppelin/contracts/token/ERC20/ERC20.sol\":10723:10730  spender */\n      dup5\n        /* \"@openzeppelin/contracts/token/ERC20/ERC20.sol\":10751:10756  value */\n      dup5\n        /* \"@openzeppelin/contracts/token/ERC20/ERC20.sol\":10732:10748  currentAllowance */\n      dup5\n        /* \"@openzeppelin/contracts/token/ERC20/ERC20.sol\":10732:10756  currentAllowance - value */\n      sub\n        /* \"@openzeppelin/contracts/token/ERC20/ERC20.sol\":10758:10763  false */\n      0x00\n        /* \"@openzeppelin/contracts/token/ERC20/ERC20.sol\":10707:10715  _approve */\n      tag_145\n        /* \"@openzeppelin/contracts/token/ERC20/ERC20.sol\":10707:10764  _approve(owner, spender, currentAllowance - value, false) */\n      jump\t// in\n    tag_152:\n        /* \"@openzeppelin/contracts/token/ERC20/ERC20.sol\":10480:10789  if (currentAllowance < type(uint256).max) {... */\n    tag_148:\n        /* \"@openzeppelin/contracts/token/ERC20/ERC20.sol\":10408:10795  {... */\n      pop\n        /* \"@openzeppelin/contracts/token/ERC20/ERC20.sol\":10319:10795  function _spendAllowance(address owner, address spender, uint256 value) internal virtual {... */\n      pop\n      pop\n      pop\n      jump\t// out\n        /* \"@openzeppelin/contracts/token/ERC20/ERC20.sol\":5297:5597  function _transfer(address from, address to, uint256 value) internal {... */\n    tag_98:\n        /* \"@openzeppelin/contracts/token/ERC20/ERC20.sol\":5396:5397  0 */\n      0x00\n        /* \"@openzeppelin/contracts/token/ERC20/ERC20.sol\":5380:5398  from == address(0) */\n      0xffffffffffffffffffffffffffffffffffffffff\n      and\n        /* \"@openzeppelin/contracts/token/ERC20/ERC20.sol\":5380:5384  from */\n      dup4\n        /* \"@openzeppelin/contracts/token/ERC20/ERC20.sol\":5380:5398  from == address(0) */\n      0xffffffffffffffffffffffffffffffffffffffff\n      and\n      sub\n        /* \"@openzeppelin/contracts/token/ERC20/ERC20.sol\":5376:5462  if (from == address(0)) {... */\n      tag_154\n      jumpi\n        /* \"@openzeppelin/contracts/token/ERC20/ERC20.sol\":5448:5449  0 */\n      0x00\n        /* \"@openzeppelin/contracts/token/ERC20/ERC20.sol\":5421:5451  ERC20InvalidSender(address(0)) */\n      mload(0x40)\n      0x96c6fd1e00000000000000000000000000000000000000000000000000000000\n      dup2\n      mstore\n      0x04\n      add\n      tag_155\n      swap2\n      swap1\n      tag_61\n      jump\t// in\n    tag_155:\n      mload(0x40)\n      dup1\n      swap2\n      sub\n      swap1\n      revert\n        /* \"@openzeppelin/contracts/token/ERC20/ERC20.sol\":5376:5462  if (from == address(0)) {... */\n    tag_154:\n        /* \"@openzeppelin/contracts/token/ERC20/ERC20.sol\":5489:5490  0 */\n      0x00\n        /* \"@openzeppelin/contracts/token/ERC20/ERC20.sol\":5475:5491  to == address(0) */\n      0xffffffffffffffffffffffffffffffffffffffff\n      and\n        /* \"@openzeppelin/contracts/token/ERC20/ERC20.sol\":5475:5477  to */\n      dup3\n        /* \"@openzeppelin/contracts/token/ERC20/ERC20.sol\":5475:5491  to == address(0) */\n      0xffffffffffffffffffffffffffffffffffffffff\n      and\n      sub\n        /* \"@openzeppelin/contracts/token/ERC20/ERC20.sol\":5471:5557  if (to == address(0)) {... */\n      tag_156\n      jumpi\n        /* \"@openzeppelin/contracts/token/ERC20/ERC20.sol\":5543:5544  0 */\n      0x00\n        /* \"@openzeppelin/contracts/token/ERC20/ERC20.sol\":5514:5546  ERC20InvalidReceiver(address(0)) */\n      mload(0x40)\n      0xec442f0500000000000000000000000000000000000000000000000000000000\n      dup2\n      mstore\n      0x04\n      add\n      tag_157\n      swap2\n      swap1\n      tag_61\n      jump\t// in\n    tag_157:\n      mload(0x40)\n      dup1\n      swap2\n      sub\n      swap1\n      revert\n        /* \"@openzeppelin/contracts/token/ERC20/ERC20.sol\":5471:5557  if (to == address(0)) {... */\n    tag_156:\n        /* \"@openzeppelin/contracts/token/ERC20/ERC20.sol\":5566:5590  _update(from, to, value) */\n      tag_158\n        /* \"@openzeppelin/contracts/token/ERC20/ERC20.sol\":5574:5578  from */\n      dup4\n        /* \"@openzeppelin/contracts/token/ERC20/ERC20.sol\":5580:5582  to */\n      dup4\n        /* \"@openzeppelin/contracts/token/ERC20/ERC20.sol\":5584:5589  value */\n      dup4\n        /* \"@openzeppelin/contracts/token/ERC20/ERC20.sol\":5566:5573  _update */\n      tag_159\n        /* \"@openzeppelin/contracts/token/ERC20/ERC20.sol\":5566:5590  _update(from, to, value) */\n      jump\t// in\n    tag_158:\n        /* \"@openzeppelin/contracts/token/ERC20/ERC20.sol\":5297:5597  function _transfer(address from, address to, uint256 value) internal {... */\n      pop\n      pop\n      pop\n      jump\t// out\n        /* \"@openzeppelin/contracts/access/Ownable.sol\":1796:1958  function _checkOwner() internal view virtual {... */\n    tag_102:\n        /* \"@openzeppelin/contracts/access/Ownable.sol\":1866:1878  _msgSender() */\n      tag_161\n        /* \"@openzeppelin/contracts/access/Ownable.sol\":1866:1876  _msgSender */\n      tag_89\n        /* \"@openzeppelin/contracts/access/Ownable.sol\":1866:1878  _msgSender() */\n      jump\t// in\n    tag_161:\n        /* \"@openzeppelin/contracts/access/Ownable.sol\":1855:1878  owner() != _msgSender() */\n      0xffffffffffffffffffffffffffffffffffffffff\n      and\n        /* \"@openzeppelin/contracts/access/Ownable.sol\":1855:1862  owner() */\n      tag_162\n        /* \"@openzeppelin/contracts/access/Ownable.sol\":1855:1860  owner */\n      tag_59\n        /* \"@openzeppelin/contracts/access/Ownable.sol\":1855:1862  owner() */\n      jump\t// in\n    tag_162:\n        /* \"@openzeppelin/contracts/access/Ownable.sol\":1855:1878  owner() != _msgSender() */\n      0xffffffffffffffffffffffffffffffffffffffff\n      and\n      eq\n        /* \"@openzeppelin/contracts/access/Ownable.sol\":1851:1952  if (owner() != _msgSender()) {... */\n      tag_163\n      jumpi\n        /* \"@openzeppelin/contracts/access/Ownable.sol\":1928:1940  _msgSender() */\n      tag_164\n        /* \"@openzeppelin/contracts/access/Ownable.sol\":1928:1938  _msgSender */\n      tag_89\n        /* \"@openzeppelin/contracts/access/Ownable.sol\":1928:1940  _msgSender() */\n      jump\t// in\n    tag_164:\n        /* \"@openzeppelin/contracts/access/Ownable.sol\":1901:1941  OwnableUnauthorizedAccount(_msgSender()) */\n      mload(0x40)\n      0x118cdaa700000000000000000000000000000000000000000000000000000000\n      dup2\n      mstore\n      0x04\n      add\n      tag_165\n      swap2\n      swap1\n      tag_61\n      jump\t// in\n    tag_165:\n      mload(0x40)\n      dup1\n      swap2\n      sub\n      swap1\n      revert\n        /* \"@openzeppelin/contracts/access/Ownable.sol\":1851:1952  if (owner() != _msgSender()) {... */\n    tag_163:\n        /* \"@openzeppelin/contracts/access/Ownable.sol\":1796:1958  function _checkOwner() internal view virtual {... */\n      jump\t// out\n        /* \"@openzeppelin/contracts/access/Ownable.sol\":2912:3099  function _transferOwnership(address newOwner) internal virtual {... */\n    tag_109:\n        /* \"@openzeppelin/contracts/access/Ownable.sol\":2985:3001  address oldOwner */\n      0x00\n        /* \"@openzeppelin/contracts/access/Ownable.sol\":3004:3010  _owner */\n      0x05\n      0x00\n      swap1\n      sload\n      swap1\n      0x0100\n      exp\n      swap1\n      div\n      0xffffffffffffffffffffffffffffffffffffffff\n      and\n        /* \"@openzeppelin/contracts/access/Ownable.sol\":2985:3010  address oldOwner = _owner */\n      swap1\n      pop\n        /* \"@openzeppelin/contracts/access/Ownable.sol\":3029:3037  newOwner */\n      dup2\n        /* \"@openzeppelin/contracts/access/Ownable.sol\":3020:3026  _owner */\n      0x05\n      0x00\n        /* \"@openzeppelin/contracts/access/Ownable.sol\":3020:3037  _owner = newOwner */\n      0x0100\n      exp\n      dup2\n      sload\n      dup2\n      0xffffffffffffffffffffffffffffffffffffffff\n      mul\n      not\n      and\n      swap1\n      dup4\n      0xffffffffffffffffffffffffffffffffffffffff\n      and\n      mul\n      or\n      swap1\n      sstore\n      pop\n        /* \"@openzeppelin/contracts/access/Ownable.sol\":3083:3091  newOwner */\n      dup2\n        /* \"@openzeppelin/contracts/access/Ownable.sol\":3052:3092  OwnershipTransferred(oldOwner, newOwner) */\n      0xffffffffffffffffffffffffffffffffffffffff\n      and\n        /* \"@openzeppelin/contracts/access/Ownable.sol\":3073:3081  oldOwner */\n      dup2\n        /* \"@openzeppelin/contracts/access/Ownable.sol\":3052:3092  OwnershipTransferred(oldOwner, newOwner) */\n      0xffffffffffffffffffffffffffffffffffffffff\n      and\n      0x8be0079c531659141344cd1fd0a4f28419497f9722a3daafe3b4186f6b6457e0\n      mload(0x40)\n      mload(0x40)\n      dup1\n      swap2\n      sub\n      swap1\n      log3\n        /* \"@openzeppelin/contracts/access/Ownable.sol\":2975:3099  {... */\n      pop\n        /* \"@openzeppelin/contracts/access/Ownable.sol\":2912:3099  function _transferOwnership(address newOwner) internal virtual {... */\n      pop\n      jump\t// out\n        /* \"@openzeppelin/contracts/token/ERC20/ERC20.sol\":9605:10037  function _approve(address owner, address spender, uint256 value, bool emitEvent) internal virtual {... */\n    tag_145:\n        /* \"@openzeppelin/contracts/token/ERC20/ERC20.sol\":9734:9735  0 */\n      0x00\n        /* \"@openzeppelin/contracts/token/ERC20/ERC20.sol\":9717:9736  owner == address(0) */\n      0xffffffffffffffffffffffffffffffffffffffff\n      and\n        /* \"@openzeppelin/contracts/token/ERC20/ERC20.sol\":9717:9722  owner */\n      dup5\n        /* \"@openzeppelin/contracts/token/ERC20/ERC20.sol\":9717:9736  owner == address(0) */\n      0xffffffffffffffffffffffffffffffffffffffff\n      and\n      sub\n        /* \"@openzeppelin/contracts/token/ERC20/ERC20.sol\":9713:9802  if (owner == address(0)) {... */\n      tag_168\n      jumpi\n        /* \"@openzeppelin/contracts/token/ERC20/ERC20.sol\":9788:9789  0 */\n      0x00\n        /* \"@openzeppelin/contracts/token/ERC20/ERC20.sol\":9759:9791  ERC20InvalidApprover(address(0)) */\n      mload(0x40)\n      0xe602df0500000000000000000000000000000000000000000000000000000000\n      dup2\n      mstore\n      0x04\n      add\n      tag_169\n      swap2\n      swap1\n      tag_61\n      jump\t// in\n    tag_169:\n      mload(0x40)\n      dup1\n      swap2\n      sub\n      swap1\n      revert\n        /* \"@openzeppelin/contracts/token/ERC20/ERC20.sol\":9713:9802  if (owner == address(0)) {... */\n    tag_168:\n        /* \"@openzeppelin/contracts/token/ERC20/ERC20.sol\":9834:9835  0 */\n      0x00\n        /* \"@openzeppelin/contracts/token/ERC20/ERC20.sol\":9815:9836  spender == address(0) */\n      0xffffffffffffffffffffffffffffffffffffffff\n      and\n        /* \"@openzeppelin/contracts/token/ERC20/ERC20.sol\":9815:9822  spender */\n      dup4\n        /* \"@openzeppelin/contracts/token/ERC20/ERC20.sol\":9815:9836  spender == address(0) */\n      0xffffffffffffffffffffffffffffffffffffffff\n      and\n      sub\n        /* \"@openzeppelin/contracts/token/ERC20/ERC20.sol\":9811:9901  if (spender == address(0)) {... */\n      tag_170\n      jumpi\n        /* \"@openzeppelin/contracts/token/ERC20/ERC20.sol\":9887:9888  0 */\n      0x00\n        /* \"@openzeppelin/contracts/token/ERC20/ERC20.sol\":9859:9890  ERC20InvalidSpender(address(0)) */\n      mload(0x40)\n      0x94280d6200000000000000000000000000000000000000000000000000000000\n      dup2\n      mstore\n      0x04\n      add\n      tag_171\n      swap2\n      swap1\n      tag_61\n      jump\t// in\n    tag_171:\n      mload(0x40)\n      dup1\n      swap2\n      sub\n      swap1\n      revert\n        /* \"@openzeppelin/contracts/token/ERC20/ERC20.sol\":9811:9901  if (spender == address(0)) {... */\n    tag_170:\n        /* \"@openzeppelin/contracts/token/ERC20/ERC20.sol\":9940:9945  value */\n      dup2\n        /* \"@openzeppelin/contracts/token/ERC20/ERC20.sol\":9910:9921  _allowances */\n      0x01\n        /* \"@openzeppelin/contracts/token/ERC20/ERC20.sol\":9910:9928  _allowances[owner] */\n      0x00\n        /* \"@openzeppelin/contracts/token/ERC20/ERC20.sol\":9922:9927  owner */\n      dup7\n        /* \"@openzeppelin/contracts/token/ERC20/ERC20.sol\":9910:9928  _allowances[owner] */\n      0xffffffffffffffffffffffffffffffffffffffff\n      and\n      0xffffffffffffffffffffffffffffffffffffffff\n      and\n      dup2\n      mstore\n      0x20\n      add\n      swap1\n      dup2\n      mstore\n      0x20\n      add\n      0x00\n      keccak256\n        /* \"@openzeppelin/contracts/token/ERC20/ERC20.sol\":9910:9937  _allowances[owner][spender] */\n      0x00\n        /* \"@openzeppelin/contracts/token/ERC20/ERC20.sol\":9929:9936  spender */\n      dup6\n        /* \"@openzeppelin/contracts/token/ERC20/ERC20.sol\":9910:9937  _allowances[owner][spender] */\n      0xffffffffffffffffffffffffffffffffffffffff\n      and\n      0xffffffffffffffffffffffffffffffffffffffff\n      and\n      dup2\n      mstore\n      0x20\n      add\n      swap1\n      dup2\n      mstore\n      0x20\n      add\n      0x00\n      keccak256\n        /* \"@openzeppelin/contracts/token/ERC20/ERC20.sol\":9910:9945  _allowances[owner][spender] = value */\n      dup2\n      swap1\n      sstore\n      pop\n        /* \"@openzeppelin/contracts/token/ERC20/ERC20.sol\":9959:9968  emitEvent */\n      dup1\n        /* \"@openzeppelin/contracts/token/ERC20/ERC20.sol\":9955:10031  if (emitEvent) {... */\n      iszero\n      tag_172\n      jumpi\n        /* \"@openzeppelin/contracts/token/ERC20/ERC20.sol\":10005:10012  spender */\n      dup3\n        /* \"@openzeppelin/contracts/token/ERC20/ERC20.sol\":9989:10020  Approval(owner, spender, value) */\n      0xffffffffffffffffffffffffffffffffffffffff\n      and\n        /* \"@openzeppelin/contracts/token/ERC20/ERC20.sol\":9998:10003  owner */\n      dup5\n        /* \"@openzeppelin/contracts/token/ERC20/ERC20.sol\":9989:10020  Approval(owner, spender, value) */\n      0xffffffffffffffffffffffffffffffffffffffff\n      and\n      0x8c5be1e5ebec7d5bd14f71427d1e84f3dd0314c0f7b2291e5b200ac8c7c3b925\n        /* \"@openzeppelin/contracts/token/ERC20/ERC20.sol\":10014:10019  value */\n      dup5\n        /* \"@openzeppelin/contracts/token/ERC20/ERC20.sol\":9989:10020  Approval(owner, spender, value) */\n      mload(0x40)\n      tag_173\n      swap2\n      swap1\n      tag_34\n      jump\t// in\n    tag_173:\n      mload(0x40)\n      dup1\n      swap2\n      sub\n      swap1\n      log3\n        /* \"@openzeppelin/contracts/token/ERC20/ERC20.sol\":9955:10031  if (emitEvent) {... */\n    tag_172:\n        /* \"@openzeppelin/contracts/token/ERC20/ERC20.sol\":9605:10037  function _approve(address owner, address spender, uint256 value, bool emitEvent) internal virtual {... */\n      pop\n      pop\n      pop\n      pop\n      jump\t// out\n        /* \"@openzeppelin/contracts/token/ERC20/ERC20.sol\":5912:7019  function _update(address from, address to, uint256 value) internal virtual {... */\n    tag_159:\n        /* \"@openzeppelin/contracts/token/ERC20/ERC20.sol\":6017:6018  0 */\n      0x00\n        /* \"@openzeppelin/contracts/token/ERC20/ERC20.sol\":6001:6019  from == address(0) */\n      0xffffffffffffffffffffffffffffffffffffffff\n      and\n        /* \"@openzeppelin/contracts/token/ERC20/ERC20.sol\":6001:6005  from */\n      dup4\n        /* \"@openzeppelin/contracts/token/ERC20/ERC20.sol\":6001:6019  from == address(0) */\n      0xffffffffffffffffffffffffffffffffffffffff\n      and\n      sub\n        /* \"@openzeppelin/contracts/token/ERC20/ERC20.sol\":5997:6537  if (from == address(0)) {... */\n      tag_175\n      jumpi\n        /* \"@openzeppelin/contracts/token/ERC20/ERC20.sol\":6153:6158  value */\n      dup1\n        /* \"@openzeppelin/contracts/token/ERC20/ERC20.sol\":6137:6149  _totalSupply */\n      0x02\n      0x00\n        /* \"@openzeppelin/contracts/token/ERC20/ERC20.sol\":6137:6158  _totalSupply += value */\n      dup3\n      dup3\n      sload\n      tag_176\n      swap2\n      swap1\n      tag_177\n      jump\t// in\n    tag_176:\n      swap3\n      pop\n      pop\n      dup2\n      swap1\n      sstore\n      pop\n        /* \"@openzeppelin/contracts/token/ERC20/ERC20.sol\":5997:6537  if (from == address(0)) {... */\n      jump(tag_178)\n    tag_175:\n        /* \"@openzeppelin/contracts/token/ERC20/ERC20.sol\":6189:6208  uint256 fromBalance */\n      0x00\n        /* \"@openzeppelin/contracts/token/ERC20/ERC20.sol\":6211:6220  _balances */\n      dup1\n        /* \"@openzeppelin/contracts/token/ERC20/ERC20.sol\":6211:6226  _balances[from] */\n      0x00\n        /* \"@openzeppelin/contracts/token/ERC20/ERC20.sol\":6221:6225  from */\n      dup6\n        /* \"@openzeppelin/contracts/token/ERC20/ERC20.sol\":6211:6226  _balances[from] */\n      0xffffffffffffffffffffffffffffffffffffffff\n      and\n      0xffffffffffffffffffffffffffffffffffffffff\n      and\n      dup2\n      mstore\n      0x20\n      add\n      swap1\n      dup2\n      mstore\n      0x20\n      add\n      0x00\n      keccak256\n      sload\n        /* \"@openzeppelin/contracts/token/ERC20/ERC20.sol\":6189:6226  uint256 fromBalance = _balances[from] */\n      swap1\n      pop\n        /* \"@openzeppelin/contracts/token/ERC20/ERC20.sol\":6258:6263  value */\n      dup2\n        /* \"@openzeppelin/contracts/token/ERC20/ERC20.sol\":6244:6255  fromBalance */\n      dup2\n        /* \"@openzeppelin/contracts/token/ERC20/ERC20.sol\":6244:6263  fromBalance < value */\n      lt\n        /* \"@openzeppelin/contracts/token/ERC20/ERC20.sol\":6240:6355  if (fromBalance < value) {... */\n      iszero\n      tag_179\n      jumpi\n        /* \"@openzeppelin/contracts/token/ERC20/ERC20.sol\":6315:6319  from */\n      dup4\n        /* \"@openzeppelin/contracts/token/ERC20/ERC20.sol\":6321:6332  fromBalance */\n      dup2\n        /* \"@openzeppelin/contracts/token/ERC20/ERC20.sol\":6334:6339  value */\n      dup4\n        /* \"@openzeppelin/contracts/token/ERC20/ERC20.sol\":6290:6340  ERC20InsufficientBalance(from, fromBalance, value) */\n      mload(0x40)\n      0xe450d38c00000000000000000000000000000000000000000000000000000000\n      dup2\n      mstore\n      0x04\n      add\n      tag_180\n      swap4\n      swap3\n      swap2\n      swap1\n      tag_151\n      jump\t// in\n    tag_180:\n      mload(0x40)\n      dup1\n      swap2\n      sub\n      swap1\n      revert\n        /* \"@openzeppelin/contracts/token/ERC20/ERC20.sol\":6240:6355  if (fromBalance < value) {... */\n    tag_179:\n        /* \"@openzeppelin/contracts/token/ERC20/ERC20.sol\":6507:6512  value */\n      dup2\n        /* \"@openzeppelin/contracts/token/ERC20/ERC20.sol\":6493:6504  fromBalance */\n      dup2\n        /* \"@openzeppelin/contracts/token/ERC20/ERC20.sol\":6493:6512  fromBalance - value */\n      sub\n        /* \"@openzeppelin/contracts/token/ERC20/ERC20.sol\":6475:6484  _balances */\n      0x00\n        /* \"@openzeppelin/contracts/token/ERC20/ERC20.sol\":6475:6490  _balances[from] */\n      dup1\n        /* \"@openzeppelin/contracts/token/ERC20/ERC20.sol\":6485:6489  from */\n      dup7\n        /* \"@openzeppelin/contracts/token/ERC20/ERC20.sol\":6475:6490  _balances[from] */\n      0xffffffffffffffffffffffffffffffffffffffff\n      and\n      0xffffffffffffffffffffffffffffffffffffffff\n      and\n      dup2\n      mstore\n      0x20\n      add\n      swap1\n      dup2\n      mstore\n      0x20\n      add\n      0x00\n      keccak256\n        /* \"@openzeppelin/contracts/token/ERC20/ERC20.sol\":6475:6512  _balances[from] = fromBalance - value */\n      dup2\n      swap1\n      sstore\n      pop\n        /* \"@openzeppelin/contracts/token/ERC20/ERC20.sol\":6175:6537  {... */\n      pop\n        /* \"@openzeppelin/contracts/token/ERC20/ERC20.sol\":5997:6537  if (from == address(0)) {... */\n    tag_178:\n        /* \"@openzeppelin/contracts/token/ERC20/ERC20.sol\":6565:6566  0 */\n      0x00\n        /* \"@openzeppelin/contracts/token/ERC20/ERC20.sol\":6551:6567  to == address(0) */\n      0xffffffffffffffffffffffffffffffffffffffff\n      and\n        /* \"@openzeppelin/contracts/token/ERC20/ERC20.sol\":6551:6553  to */\n      dup3\n        /* \"@openzeppelin/contracts/token/ERC20/ERC20.sol\":6551:6567  to == address(0) */\n      0xffffffffffffffffffffffffffffffffffffffff\n      and\n      sub\n        /* \"@openzeppelin/contracts/token/ERC20/ERC20.sol\":6547:6972  if (to == address(0)) {... */\n      tag_181\n      jumpi\n        /* \"@openzeppelin/contracts/token/ERC20/ERC20.sol\":6730:6735  value */\n      dup1\n        /* \"@openzeppelin/contracts/token/ERC20/ERC20.sol\":6714:6726  _totalSupply */\n      0x02\n      0x00\n        /* \"@openzeppelin/contracts/token/ERC20/ERC20.sol\":6714:6735  _totalSupply -= value */\n      dup3\n      dup3\n      sload\n      sub\n      swap3\n      pop\n      pop\n      dup2\n      swap1\n      sstore\n      pop\n        /* \"@openzeppelin/contracts/token/ERC20/ERC20.sol\":6547:6972  if (to == address(0)) {... */\n      jump(tag_182)\n    tag_181:\n        /* \"@openzeppelin/contracts/token/ERC20/ERC20.sol\":6942:6947  value */\n      dup1\n        /* \"@openzeppelin/contracts/token/ERC20/ERC20.sol\":6925:6934  _balances */\n      0x00\n        /* \"@openzeppelin/contracts/token/ERC20/ERC20.sol\":6925:6938  _balances[to] */\n      dup1\n        /* \"@openzeppelin/contracts/token/ERC20/ERC20.sol\":6935:6937  to */\n      dup5\n        /* \"@openzeppelin/contracts/token/ERC20/ERC20.sol\":6925:6938  _balances[to] */\n      0xffffffffffffffffffffffffffffffffffffffff\n      and\n      0xffffffffffffffffffffffffffffffffffffffff\n      and\n      dup2\n      mstore\n      0x20\n      add\n      swap1\n      dup2\n      mstore\n      0x20\n      add\n      0x00\n      keccak256\n      0x00\n        /* \"@openzeppelin/contracts/token/ERC20/ERC20.sol\":6925:6947  _balances[to] += value */\n      dup3\n      dup3\n      sload\n      add\n      swap3\n      pop\n      pop\n      dup2\n      swap1\n      sstore\n      pop\n        /* \"@openzeppelin/contracts/token/ERC20/ERC20.sol\":6547:6972  if (to == address(0)) {... */\n    tag_182:\n        /* \"@openzeppelin/contracts/token/ERC20/ERC20.sol\":7002:7004  to */\n      dup2\n        /* \"@openzeppelin/contracts/token/ERC20/ERC20.sol\":6987:7012  Transfer(from, to, value) */\n      0xffffffffffffffffffffffffffffffffffffffff\n      and\n        /* \"@openzeppelin/contracts/token/ERC20/ERC20.sol\":6996:7000  from */\n      dup4\n        /* \"@openzeppelin/contracts/token/ERC20/ERC20.sol\":6987:7012  Transfer(from, to, value) */\n      0xffffffffffffffffffffffffffffffffffffffff\n      and\n      0xddf252ad1be2c89b69c2b068fc378daa952ba7f163c4a11628f55a4df523b3ef\n        /* \"@openzeppelin/contracts/token/ERC20/ERC20.sol\":7006:7011  value */\n      dup4\n        /* \"@openzeppelin/contracts/token/ERC20/ERC20.sol\":6987:7012  Transfer(from, to, value) */\n      mload(0x40)\n      tag_183\n      swap2\n      swap1\n      tag_34\n      jump\t// in\n    tag_183:\n      mload(0x40)\n      dup1\n      swap2\n      sub\n      swap1\n      log3\n        /* \"@openzeppelin/contracts/token/ERC20/ERC20.sol\":5912:7019  function _update(address from, address to, uint256 value) internal virtual {... */\n      pop\n      pop\n      pop\n      jump\t// out\n        /* \"#utility.yul\":7:106   */\n    tag_184:\n        /* \"#utility.yul\":59:65   */\n      0x00\n        /* \"#utility.yul\":93:98   */\n      dup2\n        /* \"#utility.yul\":87:99   */\n      mload\n        /* \"#utility.yul\":77:99   */\n      swap1\n      pop\n        /* \"#utility.yul\":7:106   */\n      swap2\n      swap1\n      pop\n      jump\t// out\n        /* \"#utility.yul\":112:281   */\n    tag_185:\n        /* \"#utility.yul\":196:207   */\n      0x00\n        /* \"#utility.yul\":230:236   */\n      dup3\n        /* \"#utility.yul\":225:228   */\n      dup3\n        /* \"#utility.yul\":218:237   */\n      mstore\n        /* \"#utility.yul\":270:274   */\n      0x20\n        /* \"#utility.yul\":265:268   */\n      dup3\n        /* \"#utility.yul\":261:275   */\n      add\n        /* \"#utility.yul\":246:275   */\n      swap1\n      pop\n        /* \"#utility.yul\":112:281   */\n      swap3\n      swap2\n      pop\n      pop\n      jump\t// out\n        /* \"#utility.yul\":287:535   */\n    tag_186:\n        /* \"#utility.yul\":369:370   */\n      0x00\n        /* \"#utility.yul\":379:492   */\n    tag_216:\n        /* \"#utility.yul\":393:399   */\n      dup4\n        /* \"#utility.yul\":390:391   */\n      dup2\n        /* \"#utility.yul\":387:400   */\n      lt\n        /* \"#utility.yul\":379:492   */\n      iszero\n      tag_218\n      jumpi\n        /* \"#utility.yul\":478:479   */\n      dup1\n        /* \"#utility.yul\":473:476   */\n      dup3\n        /* \"#utility.yul\":469:480   */\n      add\n        /* \"#utility.yul\":463:481   */\n      mload\n        /* \"#utility.yul\":459:460   */\n      dup2\n        /* \"#utility.yul\":454:457   */\n      dup5\n        /* \"#utility.yul\":450:461   */\n      add\n        /* \"#utility.yul\":443:482   */\n      mstore\n        /* \"#utility.yul\":415:417   */\n      0x20\n        /* \"#utility.yul\":412:413   */\n      dup2\n        /* \"#utility.yul\":408:418   */\n      add\n        /* \"#utility.yul\":403:418   */\n      swap1\n      pop\n        /* \"#utility.yul\":379:492   */\n      jump(tag_216)\n    tag_218:\n        /* \"#utility.yul\":526:527   */\n      0x00\n        /* \"#utility.yul\":517:523   */\n      dup5\n        /* \"#utility.yul\":512:515   */\n      dup5\n        /* \"#utility.yul\":508:524   */\n      add\n        /* \"#utility.yul\":501:528   */\n      mstore\n        /* \"#utility.yul\":349:535   */\n      pop\n        /* \"#utility.yul\":287:535   */\n      pop\n      pop\n      pop\n      jump\t// out\n        /* \"#utility.yul\":541:643   */\n    tag_187:\n        /* \"#utility.yul\":582:588   */\n      0x00\n        /* \"#utility.yul\":633:635   */\n      0x1f\n        /* \"#utility.yul\":629:636   */\n      not\n        /* \"#utility.yul\":624:626   */\n      0x1f\n        /* \"#utility.yul\":617:622   */\n      dup4\n        /* \"#utility.yul\":613:627   */\n      add\n        /* \"#utility.yul\":609:637   */\n      and\n        /* \"#utility.yul\":599:637   */\n      swap1\n      pop\n        /* \"#utility.yul\":541:643   */\n      swap2\n      swap1\n      pop\n      jump\t// out\n        /* \"#utility.yul\":649:1026   */\n    tag_188:\n        /* \"#utility.yul\":737:740   */\n      0x00\n        /* \"#utility.yul\":765:804   */\n      tag_221\n        /* \"#utility.yul\":798:803   */\n      dup3\n        /* \"#utility.yul\":765:804   */\n      tag_184\n      jump\t// in\n    tag_221:\n        /* \"#utility.yul\":820:891   */\n      tag_222\n        /* \"#utility.yul\":884:890   */\n      dup2\n        /* \"#utility.yul\":879:882   */\n      dup6\n        /* \"#utility.yul\":820:891   */\n      tag_185\n      jump\t// in\n    tag_222:\n        /* \"#utility.yul\":813:891   */\n      swap4\n      pop\n        /* \"#utility.yul\":900:965   */\n      tag_223\n        /* \"#utility.yul\":958:964   */\n      dup2\n        /* \"#utility.yul\":953:956   */\n      dup6\n        /* \"#utility.yul\":946:950   */\n      0x20\n        /* \"#utility.yul\":939:944   */\n      dup7\n        /* \"#utility.yul\":935:951   */\n      add\n        /* \"#utility.yul\":900:965   */\n      tag_186\n      jump\t// in\n    tag_223:\n        /* \"#utility.yul\":990:1019   */\n      tag_224\n        /* \"#utility.yul\":1012:1018   */\n      dup2\n        /* \"#utility.yul\":990:1019   */\n      tag_187\n      jump\t// in\n    tag_224:\n        /* \"#utility.yul\":985:988   */\n      dup5\n        /* \"#utility.yul\":981:1020   */\n      add\n        /* \"#utility.yul\":974:1020   */\n      swap2\n      pop\n        /* \"#utility.yul\":741:1026   */\n      pop\n        /* \"#utility.yul\":649:1026   */\n      swap3\n      swap2\n      pop\n      pop\n      jump\t// out\n        /* \"#utility.yul\":1032:1345   */\n    tag_24:\n        /* \"#utility.yul\":1145:1149   */\n      0x00\n        /* \"#utility.yul\":1183:1185   */\n      0x20\n        /* \"#utility.yul\":1172:1181   */\n      dup3\n        /* \"#utility.yul\":1168:1186   */\n      add\n        /* \"#utility.yul\":1160:1186   */\n      swap1\n      pop\n        /* \"#utility.yul\":1232:1241   */\n      dup2\n        /* \"#utility.yul\":1226:1230   */\n      dup2\n        /* \"#utility.yul\":1222:1242   */\n      sub\n        /* \"#utility.yul\":1218:1219   */\n      0x00\n        /* \"#utility.yul\":1207:1216   */\n      dup4\n        /* \"#utility.yul\":1203:1220   */\n      add\n        /* \"#utility.yul\":1196:1243   */\n      mstore\n        /* \"#utility.yul\":1260:1338   */\n      tag_226\n        /* \"#utility.yul\":1333:1337   */\n      dup2\n        /* \"#utility.yul\":1324:1330   */\n      dup5\n        /* \"#utility.yul\":1260:1338   */\n      tag_188\n      jump\t// in\n    tag_226:\n        /* \"#utility.yul\":1252:1338   */\n      swap1\n      pop\n        /* \"#utility.yul\":1032:1345   */\n      swap3\n      swap2\n      pop\n      pop\n      jump\t// out\n        /* \"#utility.yul\":1432:1549   */\n    tag_190:\n        /* \"#utility.yul\":1541:1542   */\n      0x00\n        /* \"#utility.yul\":1538:1539   */\n      dup1\n        /* \"#utility.yul\":1531:1543   */\n      revert\n        /* \"#utility.yul\":1678:1804   */\n    tag_192:\n        /* \"#utility.yul\":1715:1722   */\n      0x00\n        /* \"#utility.yul\":1755:1797   */\n      0xffffffffffffffffffffffffffffffffffffffff\n        /* \"#utility.yul\":1748:1753   */\n      dup3\n        /* \"#utility.yul\":1744:1798   */\n      and\n        /* \"#utility.yul\":1733:1798   */\n      swap1\n      pop\n        /* \"#utility.yul\":1678:1804   */\n      swap2\n      swap1\n      pop\n      jump\t// out\n        /* \"#utility.yul\":1810:1906   */\n    tag_193:\n        /* \"#utility.yul\":1847:1854   */\n      0x00\n        /* \"#utility.yul\":1876:1900   */\n      tag_232\n        /* \"#utility.yul\":1894:1899   */\n      dup3\n        /* \"#utility.yul\":1876:1900   */\n      tag_192\n      jump\t// in\n    tag_232:\n        /* \"#utility.yul\":1865:1900   */\n      swap1\n      pop\n        /* \"#utility.yul\":1810:1906   */\n      swap2\n      swap1\n      pop\n      jump\t// out\n        /* \"#utility.yul\":1912:2034   */\n    tag_194:\n        /* \"#utility.yul\":1985:2009   */\n      tag_234\n        /* \"#utility.yul\":2003:2008   */\n      dup2\n        /* \"#utility.yul\":1985:2009   */\n      tag_193\n      jump\t// in\n    tag_234:\n        /* \"#utility.yul\":1978:1983   */\n      dup2\n        /* \"#utility.yul\":1975:2010   */\n      eq\n        /* \"#utility.yul\":1965:2028   */\n      tag_235\n      jumpi\n        /* \"#utility.yul\":2024:2025   */\n      0x00\n        /* \"#utility.yul\":2021:2022   */\n      dup1\n        /* \"#utility.yul\":2014:2026   */\n      revert\n        /* \"#utility.yul\":1965:2028   */\n    tag_235:\n        /* \"#utility.yul\":1912:2034   */\n      pop\n      jump\t// out\n        /* \"#utility.yul\":2040:2179   */\n    tag_195:\n        /* \"#utility.yul\":2086:2091   */\n      0x00\n        /* \"#utility.yul\":2124:2130   */\n      dup2\n        /* \"#utility.yul\":2111:2131   */\n      calldataload\n        /* \"#utility.yul\":2102:2131   */\n      swap1\n      pop\n        /* \"#utility.yul\":2140:2173   */\n      tag_237\n        /* \"#utility.yul\":2167:2172   */\n      dup2\n        /* \"#utility.yul\":2140:2173   */\n      tag_194\n      jump\t// in\n    tag_237:\n        /* \"#utility.yul\":2040:2179   */\n      swap3\n      swap2\n      pop\n      pop\n      jump\t// out\n        /* \"#utility.yul\":2185:2262   */\n    tag_196:\n        /* \"#utility.yul\":2222:2229   */\n      0x00\n        /* \"#utility.yul\":2251:2256   */\n      dup2\n        /* \"#utility.yul\":2240:2256   */\n      swap1\n      pop\n        /* \"#utility.yul\":2185:2262   */\n      swap2\n      swap1\n      pop\n      jump\t// out\n        /* \"#utility.yul\":2268:2390   */\n    tag_197:\n        /* \"#utility.yul\":2341:2365   */\n      tag_240\n        /* \"#utility.yul\":2359:2364   */\n      dup2\n        /* \"#utility.yul\":2341:2365   */\n      tag_196\n      jump\t// in\n    tag_240:\n        /* \"#utility.yul\":2334:2339   */\n      dup2\n        /* \"#utility.yul\":2331:2366   */\n      eq\n        /* \"#utility.yul\":2321:2384   */\n      tag_241\n      jumpi\n        /* \"#utility.yul\":2380:2381   */\n      0x00\n        /* \"#utility.yul\":2377:2378   */\n      dup1\n        /* \"#utility.yul\":2370:2382   */\n      revert\n        /* \"#utility.yul\":2321:2384   */\n    tag_241:\n        /* \"#utility.yul\":2268:2390   */\n      pop\n      jump\t// out\n        /* \"#utility.yul\":2396:2535   */\n    tag_198:\n        /* \"#utility.yul\":2442:2447   */\n      0x00\n        /* \"#utility.yul\":2480:2486   */\n      dup2\n        /* \"#utility.yul\":2467:2487   */\n      calldataload\n        /* \"#utility.yul\":2458:2487   */\n      swap1\n      pop\n        /* \"#utility.yul\":2496:2529   */\n      tag_243\n        /* \"#utility.yul\":2523:2528   */\n      dup2\n        /* \"#utility.yul\":2496:2529   */\n      tag_197\n      jump\t// in\n    tag_243:\n        /* \"#utility.yul\":2396:2535   */\n      swap3\n      swap2\n      pop\n      pop\n      jump\t// out\n        /* \"#utility.yul\":2541:3015   */\n    tag_27:\n        /* \"#utility.yul\":2609:2615   */\n      0x00\n        /* \"#utility.yul\":2617:2623   */\n      dup1\n        /* \"#utility.yul\":2666:2668   */\n      0x40\n        /* \"#utility.yul\":2654:2663   */\n      dup4\n        /* \"#utility.yul\":2645:2652   */\n      dup6\n        /* \"#utility.yul\":2641:2664   */\n      sub\n        /* \"#utility.yul\":2637:2669   */\n      slt\n        /* \"#utility.yul\":2634:2753   */\n      iszero\n      tag_245\n      jumpi\n        /* \"#utility.yul\":2672:2751   */\n      tag_246\n      tag_190\n      jump\t// in\n    tag_246:\n        /* \"#utility.yul\":2634:2753   */\n    tag_245:\n        /* \"#utility.yul\":2792:2793   */\n      0x00\n        /* \"#utility.yul\":2817:2870   */\n      tag_247\n        /* \"#utility.yul\":2862:2869   */\n      dup6\n        /* \"#utility.yul\":2853:2859   */\n      dup3\n        /* \"#utility.yul\":2842:2851   */\n      dup7\n        /* \"#utility.yul\":2838:2860   */\n      add\n        /* \"#utility.yul\":2817:2870   */\n      tag_195\n      jump\t// in\n    tag_247:\n        /* \"#utility.yul\":2807:2870   */\n      swap3\n      pop\n        /* \"#utility.yul\":2763:2880   */\n      pop\n        /* \"#utility.yul\":2919:2921   */\n      0x20\n        /* \"#utility.yul\":2945:2998   */\n      tag_248\n        /* \"#utility.yul\":2990:2997   */\n      dup6\n        /* \"#utility.yul\":2981:2987   */\n      dup3\n        /* \"#utility.yul\":2970:2979   */\n      dup7\n        /* \"#utility.yul\":2966:2988   */\n      add\n        /* \"#utility.yul\":2945:2998   */\n      tag_198\n      jump\t// in\n    tag_248:\n        /* \"#utility.yul\":2935:2998   */\n      swap2\n      pop\n        /* \"#utility.yul\":2890:3008   */\n      pop\n        /* \"#utility.yul\":2541:3015   */\n      swap3\n      pop\n      swap3\n      swap1\n      pop\n      jump\t// out\n        /* \"#utility.yul\":3021:3111   */\n    tag_199:\n        /* \"#utility.yul\":3055:3062   */\n      0x00\n        /* \"#utility.yul\":3098:3103   */\n      dup2\n        /* \"#utility.yul\":3091:3104   */\n      iszero\n        /* \"#utility.yul\":3084:3105   */\n      iszero\n        /* \"#utility.yul\":3073:3105   */\n      swap1\n      pop\n        /* \"#utility.yul\":3021:3111   */\n      swap2\n      swap1\n      pop\n      jump\t// out\n        /* \"#utility.yul\":3117:3226   */\n    tag_200:\n        /* \"#utility.yul\":3198:3219   */\n      tag_251\n        /* \"#utility.yul\":3213:3218   */\n      dup2\n        /* \"#utility.yul\":3198:3219   */\n      tag_199\n      jump\t// in\n    tag_251:\n        /* \"#utility.yul\":3193:3196   */\n      dup3\n        /* \"#utility.yul\":3186:3220   */\n      mstore\n        /* \"#utility.yul\":3117:3226   */\n      pop\n      pop\n      jump\t// out\n        /* \"#utility.yul\":3232:3442   */\n    tag_30:\n        /* \"#utility.yul\":3319:3323   */\n      0x00\n        /* \"#utility.yul\":3357:3359   */\n      0x20\n        /* \"#utility.yul\":3346:3355   */\n      dup3\n        /* \"#utility.yul\":3342:3360   */\n      add\n        /* \"#utility.yul\":3334:3360   */\n      swap1\n      pop\n        /* \"#utility.yul\":3370:3435   */\n      tag_253\n        /* \"#utility.yul\":3432:3433   */\n      0x00\n        /* \"#utility.yul\":3421:3430   */\n      dup4\n        /* \"#utility.yul\":3417:3434   */\n      add\n        /* \"#utility.yul\":3408:3414   */\n      dup5\n        /* \"#utility.yul\":3370:3435   */\n      tag_200\n      jump\t// in\n    tag_253:\n        /* \"#utility.yul\":3232:3442   */\n      swap3\n      swap2\n      pop\n      pop\n      jump\t// out\n        /* \"#utility.yul\":3448:3566   */\n    tag_201:\n        /* \"#utility.yul\":3535:3559   */\n      tag_255\n        /* \"#utility.yul\":3553:3558   */\n      dup2\n        /* \"#utility.yul\":3535:3559   */\n      tag_196\n      jump\t// in\n    tag_255:\n        /* \"#utility.yul\":3530:3533   */\n      dup3\n        /* \"#utility.yul\":3523:3560   */\n      mstore\n        /* \"#utility.yul\":3448:3566   */\n      pop\n      pop\n      jump\t// out\n        /* \"#utility.yul\":3572:3794   */\n    tag_34:\n        /* \"#utility.yul\":3665:3669   */\n      0x00\n        /* \"#utility.yul\":3703:3705   */\n      0x20\n        /* \"#utility.yul\":3692:3701   */\n      dup3\n        /* \"#utility.yul\":3688:3706   */\n      add\n        /* \"#utility.yul\":3680:3706   */\n      swap1\n      pop\n        /* \"#utility.yul\":3716:3787   */\n      tag_257\n        /* \"#utility.yul\":3784:3785   */\n      0x00\n        /* \"#utility.yul\":3773:3782   */\n      dup4\n        /* \"#utility.yul\":3769:3786   */\n      add\n        /* \"#utility.yul\":3760:3766   */\n      dup5\n        /* \"#utility.yul\":3716:3787   */\n      tag_201\n      jump\t// in\n    tag_257:\n        /* \"#utility.yul\":3572:3794   */\n      swap3\n      swap2\n      pop\n      pop\n      jump\t// out\n        /* \"#utility.yul\":3800:4419   */\n    tag_37:\n        /* \"#utility.yul\":3877:3883   */\n      0x00\n        /* \"#utility.yul\":3885:3891   */\n      dup1\n        /* \"#utility.yul\":3893:3899   */\n      0x00\n        /* \"#utility.yul\":3942:3944   */\n      0x60\n        /* \"#utility.yul\":3930:3939   */\n      dup5\n        /* \"#utility.yul\":3921:3928   */\n      dup7\n        /* \"#utility.yul\":3917:3940   */\n      sub\n        /* \"#utility.yul\":3913:3945   */\n      slt\n        /* \"#utility.yul\":3910:4029   */\n      iszero\n      tag_259\n      jumpi\n        /* \"#utility.yul\":3948:4027   */\n      tag_260\n      tag_190\n      jump\t// in\n    tag_260:\n        /* \"#utility.yul\":3910:4029   */\n    tag_259:\n        /* \"#utility.yul\":4068:4069   */\n      0x00\n        /* \"#utility.yul\":4093:4146   */\n      tag_261\n        /* \"#utility.yul\":4138:4145   */\n      dup7\n        /* \"#utility.yul\":4129:4135   */\n      dup3\n        /* \"#utility.yul\":4118:4127   */\n      dup8\n        /* \"#utility.yul\":4114:4136   */\n      add\n        /* \"#utility.yul\":4093:4146   */\n      tag_195\n      jump\t// in\n    tag_261:\n        /* \"#utility.yul\":4083:4146   */\n      swap4\n      pop\n        /* \"#utility.yul\":4039:4156   */\n      pop\n        /* \"#utility.yul\":4195:4197   */\n      0x20\n        /* \"#utility.yul\":4221:4274   */\n      tag_262\n        /* \"#utility.yul\":4266:4273   */\n      dup7\n        /* \"#utility.yul\":4257:4263   */\n      dup3\n        /* \"#utility.yul\":4246:4255   */\n      dup8\n        /* \"#utility.yul\":4242:4264   */\n      add\n        /* \"#utility.yul\":4221:4274   */\n      tag_195\n      jump\t// in\n    tag_262:\n        /* \"#utility.yul\":4211:4274   */\n      swap3\n      pop\n        /* \"#utility.yul\":4166:4284   */\n      pop\n        /* \"#utility.yul\":4323:4325   */\n      0x40\n        /* \"#utility.yul\":4349:4402   */\n      tag_263\n        /* \"#utility.yul\":4394:4401   */\n      dup7\n        /* \"#utility.yul\":4385:4391   */\n      dup3\n        /* \"#utility.yul\":4374:4383   */\n      dup8\n        /* \"#utility.yul\":4370:4392   */\n      add\n        /* \"#utility.yul\":4349:4402   */\n      tag_198\n      jump\t// in\n    tag_263:\n        /* \"#utility.yul\":4339:4402   */\n      swap2\n      pop\n        /* \"#utility.yul\":4294:4412   */\n      pop\n        /* \"#utility.yul\":3800:4419   */\n      swap3\n      pop\n      swap3\n      pop\n      swap3\n      jump\t// out\n        /* \"#utility.yul\":4425:4511   */\n    tag_202:\n        /* \"#utility.yul\":4460:4467   */\n      0x00\n        /* \"#utility.yul\":4500:4504   */\n      0xff\n        /* \"#utility.yul\":4493:4498   */\n      dup3\n        /* \"#utility.yul\":4489:4505   */\n      and\n        /* \"#utility.yul\":4478:4505   */\n      swap1\n      pop\n        /* \"#utility.yul\":4425:4511   */\n      swap2\n      swap1\n      pop\n      jump\t// out\n        /* \"#utility.yul\":4517:4629   */\n    tag_203:\n        /* \"#utility.yul\":4600:4622   */\n      tag_266\n        /* \"#utility.yul\":4616:4621   */\n      dup2\n        /* \"#utility.yul\":4600:4622   */\n      tag_202\n      jump\t// in\n    tag_266:\n        /* \"#utility.yul\":4595:4598   */\n      dup3\n        /* \"#utility.yul\":4588:4623   */\n      mstore\n        /* \"#utility.yul\":4517:4629   */\n      pop\n      pop\n      jump\t// out\n        /* \"#utility.yul\":4635:4849   */\n    tag_43:\n        /* \"#utility.yul\":4724:4728   */\n      0x00\n        /* \"#utility.yul\":4762:4764   */\n      0x20\n        /* \"#utility.yul\":4751:4760   */\n      dup3\n        /* \"#utility.yul\":4747:4765   */\n      add\n        /* \"#utility.yul\":4739:4765   */\n      swap1\n      pop\n        /* \"#utility.yul\":4775:4842   */\n      tag_268\n        /* \"#utility.yul\":4839:4840   */\n      0x00\n        /* \"#utility.yul\":4828:4837   */\n      dup4\n        /* \"#utility.yul\":4824:4841   */\n      add\n        /* \"#utility.yul\":4815:4821   */\n      dup5\n        /* \"#utility.yul\":4775:4842   */\n      tag_203\n      jump\t// in\n    tag_268:\n        /* \"#utility.yul\":4635:4849   */\n      swap3\n      swap2\n      pop\n      pop\n      jump\t// out\n        /* \"#utility.yul\":4855:5184   */\n    tag_46:\n        /* \"#utility.yul\":4914:4920   */\n      0x00\n        /* \"#utility.yul\":4963:4965   */\n      0x20\n        /* \"#utility.yul\":4951:4960   */\n      dup3\n        /* \"#utility.yul\":4942:4949   */\n      dup5\n        /* \"#utility.yul\":4938:4961   */\n      sub\n        /* \"#utility.yul\":4934:4966   */\n      slt\n        /* \"#utility.yul\":4931:5050   */\n      iszero\n      tag_270\n      jumpi\n        /* \"#utility.yul\":4969:5048   */\n      tag_271\n      tag_190\n      jump\t// in\n    tag_271:\n        /* \"#utility.yul\":4931:5050   */\n    tag_270:\n        /* \"#utility.yul\":5089:5090   */\n      0x00\n        /* \"#utility.yul\":5114:5167   */\n      tag_272\n        /* \"#utility.yul\":5159:5166   */\n      dup5\n        /* \"#utility.yul\":5150:5156   */\n      dup3\n        /* \"#utility.yul\":5139:5148   */\n      dup6\n        /* \"#utility.yul\":5135:5157   */\n      add\n        /* \"#utility.yul\":5114:5167   */\n      tag_195\n      jump\t// in\n    tag_272:\n        /* \"#utility.yul\":5104:5167   */\n      swap2\n      pop\n        /* \"#utility.yul\":5060:5177   */\n      pop\n        /* \"#utility.yul\":4855:5184   */\n      swap3\n      swap2\n      pop\n      pop\n      jump\t// out\n        /* \"#utility.yul\":5190:5308   */\n    tag_204:\n        /* \"#utility.yul\":5277:5301   */\n      tag_274\n        /* \"#utility.yul\":5295:5300   */\n      dup2\n        /* \"#utility.yul\":5277:5301   */\n      tag_193\n      jump\t// in\n    tag_274:\n        /* \"#utility.yul\":5272:5275   */\n      dup3\n        /* \"#utility.yul\":5265:5302   */\n      mstore\n        /* \"#utility.yul\":5190:5308   */\n      pop\n      pop\n      jump\t// out\n        /* \"#utility.yul\":5314:5536   */\n    tag_61:\n        /* \"#utility.yul\":5407:5411   */\n      0x00\n        /* \"#utility.yul\":5445:5447   */\n      0x20\n        /* \"#utility.yul\":5434:5443   */\n      dup3\n        /* \"#utility.yul\":5430:5448   */\n      add\n        /* \"#utility.yul\":5422:5448   */\n      swap1\n      pop\n        /* \"#utility.yul\":5458:5529   */\n      tag_276\n        /* \"#utility.yul\":5526:5527   */\n      0x00\n        /* \"#utility.yul\":5515:5524   */\n      dup4\n        /* \"#utility.yul\":5511:5528   */\n      add\n        /* \"#utility.yul\":5502:5508   */\n      dup5\n        /* \"#utility.yul\":5458:5529   */\n      tag_204\n      jump\t// in\n    tag_276:\n        /* \"#utility.yul\":5314:5536   */\n      swap3\n      swap2\n      pop\n      pop\n      jump\t// out\n        /* \"#utility.yul\":5542:6016   */\n    tag_74:\n        /* \"#utility.yul\":5610:5616   */\n      0x00\n        /* \"#utility.yul\":5618:5624   */\n      dup1\n        /* \"#utility.yul\":5667:5669   */\n      0x40\n        /* \"#utility.yul\":5655:5664   */\n      dup4\n        /* \"#utility.yul\":5646:5653   */\n      dup6\n        /* \"#utility.yul\":5642:5665   */\n      sub\n        /* \"#utility.yul\":5638:5670   */\n      slt\n        /* \"#utility.yul\":5635:5754   */\n      iszero\n      tag_278\n      jumpi\n        /* \"#utility.yul\":5673:5752   */\n      tag_279\n      tag_190\n      jump\t// in\n    tag_279:\n        /* \"#utility.yul\":5635:5754   */\n    tag_278:\n        /* \"#utility.yul\":5793:5794   */\n      0x00\n        /* \"#utility.yul\":5818:5871   */\n      tag_280\n        /* \"#utility.yul\":5863:5870   */\n      dup6\n        /* \"#utility.yul\":5854:5860   */\n      dup3\n        /* \"#utility.yul\":5843:5852   */\n      dup7\n        /* \"#utility.yul\":5839:5861   */\n      add\n        /* \"#utility.yul\":5818:5871   */\n      tag_195\n      jump\t// in\n    tag_280:\n        /* \"#utility.yul\":5808:5871   */\n      swap3\n      pop\n        /* \"#utility.yul\":5764:5881   */\n      pop\n        /* \"#utility.yul\":5920:5922   */\n      0x20\n        /* \"#utility.yul\":5946:5999   */\n      tag_281\n        /* \"#utility.yul\":5991:5998   */\n      dup6\n        /* \"#utility.yul\":5982:5988   */\n      dup3\n        /* \"#utility.yul\":5971:5980   */\n      dup7\n        /* \"#utility.yul\":5967:5989   */\n      add\n        /* \"#utility.yul\":5946:5999   */\n      tag_195\n      jump\t// in\n    tag_281:\n        /* \"#utility.yul\":5936:5999   */\n      swap2\n      pop\n        /* \"#utility.yul\":5891:6009   */\n      pop\n        /* \"#utility.yul\":5542:6016   */\n      swap3\n      pop\n      swap3\n      swap1\n      pop\n      jump\t// out\n        /* \"#utility.yul\":6022:6202   */\n    tag_205:\n        /* \"#utility.yul\":6070:6147   */\n      0x4e487b7100000000000000000000000000000000000000000000000000000000\n        /* \"#utility.yul\":6067:6068   */\n      0x00\n        /* \"#utility.yul\":6060:6148   */\n      mstore\n        /* \"#utility.yul\":6167:6171   */\n      0x22\n        /* \"#utility.yul\":6164:6165   */\n      0x04\n        /* \"#utility.yul\":6157:6172   */\n      mstore\n        /* \"#utility.yul\":6191:6195   */\n      0x24\n        /* \"#utility.yul\":6188:6189   */\n      0x00\n        /* \"#utility.yul\":6181:6196   */\n      revert\n        /* \"#utility.yul\":6208:6528   */\n    tag_82:\n        /* \"#utility.yul\":6252:6258   */\n      0x00\n        /* \"#utility.yul\":6289:6290   */\n      0x02\n        /* \"#utility.yul\":6283:6287   */\n      dup3\n        /* \"#utility.yul\":6279:6291   */\n      div\n        /* \"#utility.yul\":6269:6291   */\n      swap1\n      pop\n        /* \"#utility.yul\":6336:6337   */\n      0x01\n        /* \"#utility.yul\":6330:6334   */\n      dup3\n        /* \"#utility.yul\":6326:6338   */\n      and\n        /* \"#utility.yul\":6357:6375   */\n      dup1\n        /* \"#utility.yul\":6347:6428   */\n      tag_284\n      jumpi\n        /* \"#utility.yul\":6413:6417   */\n      0x7f\n        /* \"#utility.yul\":6405:6411   */\n      dup3\n        /* \"#utility.yul\":6401:6418   */\n      and\n        /* \"#utility.yul\":6391:6418   */\n      swap2\n      pop\n        /* \"#utility.yul\":6347:6428   */\n    tag_284:\n        /* \"#utility.yul\":6475:6477   */\n      0x20\n        /* \"#utility.yul\":6467:6473   */\n      dup3\n        /* \"#utility.yul\":6464:6478   */\n      lt\n        /* \"#utility.yul\":6444:6462   */\n      dup2\n        /* \"#utility.yul\":6441:6479   */\n      sub\n        /* \"#utility.yul\":6438:6522   */\n      tag_285\n      jumpi\n        /* \"#utility.yul\":6494:6512   */\n      tag_286\n      tag_205\n      jump\t// in\n    tag_286:\n        /* \"#utility.yul\":6438:6522   */\n    tag_285:\n        /* \"#utility.yul\":6259:6528   */\n      pop\n        /* \"#utility.yul\":6208:6528   */\n      swap2\n      swap1\n      pop\n      jump\t// out\n        /* \"#utility.yul\":6534:6707   */\n    tag_206:\n        /* \"#utility.yul\":6674:6699   */\n      0x4e6f7420617574686f72697a65642072656379636c6572000000000000000000\n        /* \"#utility.yul\":6670:6671   */\n      0x00\n        /* \"#utility.yul\":6662:6668   */\n      dup3\n        /* \"#utility.yul\":6658:6672   */\n      add\n        /* \"#utility.yul\":6651:6700   */\n      mstore\n        /* \"#utility.yul\":6534:6707   */\n      pop\n      jump\t// out\n        /* \"#utility.yul\":6713:7079   */\n    tag_207:\n        /* \"#utility.yul\":6855:6858   */\n      0x00\n        /* \"#utility.yul\":6876:6943   */\n      tag_289\n        /* \"#utility.yul\":6940:6942   */\n      0x17\n        /* \"#utility.yul\":6935:6938   */\n      dup4\n        /* \"#utility.yul\":6876:6943   */\n      tag_185\n      jump\t// in\n    tag_289:\n        /* \"#utility.yul\":6869:6943   */\n      swap2\n      pop\n        /* \"#utility.yul\":6952:7045   */\n      tag_290\n        /* \"#utility.yul\":7041:7044   */\n      dup3\n        /* \"#utility.yul\":6952:7045   */\n      tag_206\n      jump\t// in\n    tag_290:\n        /* \"#utility.yul\":7070:7072   */\n      0x20\n        /* \"#utility.yul\":7065:7068   */\n      dup3\n        /* \"#utility.yul\":7061:7073   */\n      add\n        /* \"#utility.yul\":7054:7073   */\n      swap1\n      pop\n        /* \"#utility.yul\":6713:7079   */\n      swap2\n      swap1\n      pop\n      jump\t// out\n        /* \"#utility.yul\":7085:7504   */\n    tag_125:\n        /* \"#utility.yul\":7251:7255   */\n      0x00\n        /* \"#utility.yul\":7289:7291   */\n      0x20\n        /* \"#utility.yul\":7278:7287   */\n      dup3\n        /* \"#utility.yul\":7274:7292   */\n      add\n        /* \"#utility.yul\":7266:7292   */\n      swap1\n      pop\n        /* \"#utility.yul\":7338:7347   */\n      dup2\n        /* \"#utility.yul\":7332:7336   */\n      dup2\n        /* \"#utility.yul\":7328:7348   */\n      sub\n        /* \"#utility.yul\":7324:7325   */\n      0x00\n        /* \"#utility.yul\":7313:7322   */\n      dup4\n        /* \"#utility.yul\":7309:7326   */\n      add\n        /* \"#utility.yul\":7302:7349   */\n      mstore\n        /* \"#utility.yul\":7366:7497   */\n      tag_292\n        /* \"#utility.yul\":7492:7496   */\n      dup2\n        /* \"#utility.yul\":7366:7497   */\n      tag_207\n      jump\t// in\n    tag_292:\n        /* \"#utility.yul\":7358:7497   */\n      swap1\n      pop\n        /* \"#utility.yul\":7085:7504   */\n      swap2\n      swap1\n      pop\n      jump\t// out\n        /* \"#utility.yul\":7510:7690   */\n    tag_208:\n        /* \"#utility.yul\":7558:7635   */\n      0x4e487b7100000000000000000000000000000000000000000000000000000000\n        /* \"#utility.yul\":7555:7556   */\n      0x00\n        /* \"#utility.yul\":7548:7636   */\n      mstore\n        /* \"#utility.yul\":7655:7659   */\n      0x11\n        /* \"#utility.yul\":7652:7653   */\n      0x04\n        /* \"#utility.yul\":7645:7660   */\n      mstore\n        /* \"#utility.yul\":7679:7683   */\n      0x24\n        /* \"#utility.yul\":7676:7677   */\n      0x00\n        /* \"#utility.yul\":7669:7684   */\n      revert\n        /* \"#utility.yul\":7696:7798   */\n    tag_209:\n        /* \"#utility.yul\":7738:7746   */\n      0x00\n        /* \"#utility.yul\":7785:7790   */\n      dup2\n        /* \"#utility.yul\":7782:7783   */\n      0x01\n        /* \"#utility.yul\":7778:7791   */\n      shr\n        /* \"#utility.yul\":7757:7791   */\n      swap1\n      pop\n        /* \"#utility.yul\":7696:7798   */\n      swap2\n      swap1\n      pop\n      jump\t// out\n        /* \"#utility.yul\":7804:8652   */\n    tag_210:\n        /* \"#utility.yul\":7865:7870   */\n      0x00\n        /* \"#utility.yul\":7872:7876   */\n      dup1\n        /* \"#utility.yul\":7896:7902   */\n      dup3\n        /* \"#utility.yul\":7887:7902   */\n      swap2\n      pop\n        /* \"#utility.yul\":7920:7925   */\n      dup4\n        /* \"#utility.yul\":7911:7925   */\n      swap1\n      pop\n        /* \"#utility.yul\":7934:8646   */\n    tag_296:\n        /* \"#utility.yul\":7955:7956   */\n      0x01\n        /* \"#utility.yul\":7945:7953   */\n      dup6\n        /* \"#utility.yul\":7942:7957   */\n      gt\n        /* \"#utility.yul\":7934:8646   */\n      iszero\n      tag_298\n      jumpi\n        /* \"#utility.yul\":8050:8054   */\n      dup1\n        /* \"#utility.yul\":8045:8048   */\n      dup7\n        /* \"#utility.yul\":8041:8055   */\n      div\n        /* \"#utility.yul\":8035:8039   */\n      dup2\n        /* \"#utility.yul\":8032:8056   */\n      gt\n        /* \"#utility.yul\":8029:8079   */\n      iszero\n      tag_299\n      jumpi\n        /* \"#utility.yul\":8059:8077   */\n      tag_300\n      tag_208\n      jump\t// in\n    tag_300:\n        /* \"#utility.yul\":8029:8079   */\n    tag_299:\n        /* \"#utility.yul\":8109:8110   */\n      0x01\n        /* \"#utility.yul\":8099:8107   */\n      dup6\n        /* \"#utility.yul\":8095:8111   */\n      and\n        /* \"#utility.yul\":8092:8543   */\n      iszero\n      tag_301\n      jumpi\n        /* \"#utility.yul\":8524:8528   */\n      dup1\n        /* \"#utility.yul\":8517:8522   */\n      dup3\n        /* \"#utility.yul\":8513:8529   */\n      mul\n        /* \"#utility.yul\":8504:8529   */\n      swap2\n      pop\n        /* \"#utility.yul\":8092:8543   */\n    tag_301:\n        /* \"#utility.yul\":8574:8578   */\n      dup1\n        /* \"#utility.yul\":8568:8572   */\n      dup2\n        /* \"#utility.yul\":8564:8579   */\n      mul\n        /* \"#utility.yul\":8556:8579   */\n      swap1\n      pop\n        /* \"#utility.yul\":8604:8636   */\n      tag_302\n        /* \"#utility.yul\":8627:8635   */\n      dup6\n        /* \"#utility.yul\":8604:8636   */\n      tag_209\n      jump\t// in\n    tag_302:\n        /* \"#utility.yul\":8592:8636   */\n      swap5\n      pop\n        /* \"#utility.yul\":7934:8646   */\n      jump(tag_296)\n    tag_298:\n        /* \"#utility.yul\":7804:8652   */\n      swap5\n      pop\n      swap5\n      swap3\n      pop\n      pop\n      pop\n      jump\t// out\n        /* \"#utility.yul\":8658:9731   */\n    tag_211:\n        /* \"#utility.yul\":8712:8717   */\n      0x00\n        /* \"#utility.yul\":8903:8911   */\n      dup3\n        /* \"#utility.yul\":8893:8933   */\n      tag_304\n      jumpi\n        /* \"#utility.yul\":8924:8925   */\n      0x01\n        /* \"#utility.yul\":8915:8925   */\n      swap1\n      pop\n        /* \"#utility.yul\":8926:8931   */\n      jump(tag_303)\n        /* \"#utility.yul\":8893:8933   */\n    tag_304:\n        /* \"#utility.yul\":8952:8956   */\n      dup2\n        /* \"#utility.yul\":8942:8978   */\n      tag_305\n      jumpi\n        /* \"#utility.yul\":8969:8970   */\n      0x00\n        /* \"#utility.yul\":8960:8970   */\n      swap1\n      pop\n        /* \"#utility.yul\":8971:8976   */\n      jump(tag_303)\n        /* \"#utility.yul\":8942:8978   */\n    tag_305:\n        /* \"#utility.yul\":9038:9042   */\n      dup2\n        /* \"#utility.yul\":9086:9087   */\n      0x01\n        /* \"#utility.yul\":9081:9108   */\n      dup2\n      eq\n      tag_307\n      jumpi\n        /* \"#utility.yul\":9122:9123   */\n      0x02\n        /* \"#utility.yul\":9117:9308   */\n      dup2\n      eq\n      tag_308\n      jumpi\n        /* \"#utility.yul\":9031:9308   */\n      jump(tag_306)\n        /* \"#utility.yul\":9081:9108   */\n    tag_307:\n        /* \"#utility.yul\":9099:9100   */\n      0x01\n        /* \"#utility.yul\":9090:9100   */\n      swap2\n      pop\n        /* \"#utility.yul\":9101:9106   */\n      pop\n      jump(tag_303)\n        /* \"#utility.yul\":9117:9308   */\n    tag_308:\n        /* \"#utility.yul\":9162:9165   */\n      0xff\n        /* \"#utility.yul\":9152:9160   */\n      dup5\n        /* \"#utility.yul\":9149:9166   */\n      gt\n        /* \"#utility.yul\":9146:9189   */\n      iszero\n      tag_309\n      jumpi\n        /* \"#utility.yul\":9169:9187   */\n      tag_310\n      tag_208\n      jump\t// in\n    tag_310:\n        /* \"#utility.yul\":9146:9189   */\n    tag_309:\n        /* \"#utility.yul\":9218:9226   */\n      dup4\n        /* \"#utility.yul\":9215:9216   */\n      0x02\n        /* \"#utility.yul\":9211:9227   */\n      exp\n        /* \"#utility.yul\":9202:9227   */\n      swap2\n      pop\n        /* \"#utility.yul\":9253:9256   */\n      dup5\n        /* \"#utility.yul\":9246:9251   */\n      dup3\n        /* \"#utility.yul\":9243:9257   */\n      gt\n        /* \"#utility.yul\":9240:9280   */\n      iszero\n      tag_311\n      jumpi\n        /* \"#utility.yul\":9260:9278   */\n      tag_312\n      tag_208\n      jump\t// in\n    tag_312:\n        /* \"#utility.yul\":9240:9280   */\n    tag_311:\n        /* \"#utility.yul\":9293:9298   */\n      pop\n      jump(tag_303)\n        /* \"#utility.yul\":9031:9308   */\n    tag_306:\n      pop\n        /* \"#utility.yul\":9417:9419   */\n      0x20\n        /* \"#utility.yul\":9407:9415   */\n      dup4\n        /* \"#utility.yul\":9404:9420   */\n      lt\n        /* \"#utility.yul\":9398:9401   */\n      0x0133\n        /* \"#utility.yul\":9392:9396   */\n      dup4\n        /* \"#utility.yul\":9389:9402   */\n      lt\n        /* \"#utility.yul\":9385:9421   */\n      and\n        /* \"#utility.yul\":9367:9369   */\n      0x4e\n        /* \"#utility.yul\":9357:9365   */\n      dup5\n        /* \"#utility.yul\":9354:9370   */\n      lt\n        /* \"#utility.yul\":9349:9351   */\n      0x0b\n        /* \"#utility.yul\":9343:9347   */\n      dup5\n        /* \"#utility.yul\":9340:9352   */\n      lt\n        /* \"#utility.yul\":9336:9371   */\n      and\n        /* \"#utility.yul\":9320:9431   */\n      or\n        /* \"#utility.yul\":9317:9563   */\n      iszero\n      tag_313\n      jumpi\n        /* \"#utility.yul\":9473:9481   */\n      dup3\n        /* \"#utility.yul\":9467:9471   */\n      dup3\n        /* \"#utility.yul\":9463:9482   */\n      exp\n        /* \"#utility.yul\":9454:9482   */\n      swap1\n      pop\n        /* \"#utility.yul\":9508:9511   */\n      dup4\n        /* \"#utility.yul\":9501:9506   */\n      dup2\n        /* \"#utility.yul\":9498:9512   */\n      gt\n        /* \"#utility.yul\":9495:9535   */\n      iszero\n      tag_314\n      jumpi\n        /* \"#utility.yul\":9515:9533   */\n      tag_315\n      tag_208\n      jump\t// in\n    tag_315:\n        /* \"#utility.yul\":9495:9535   */\n    tag_314:\n        /* \"#utility.yul\":9548:9553   */\n      jump(tag_303)\n        /* \"#utility.yul\":9317:9563   */\n    tag_313:\n        /* \"#utility.yul\":9588:9630   */\n      tag_316\n        /* \"#utility.yul\":9626:9629   */\n      dup5\n        /* \"#utility.yul\":9616:9624   */\n      dup5\n        /* \"#utility.yul\":9610:9614   */\n      dup5\n        /* \"#utility.yul\":9607:9608   */\n      0x01\n        /* \"#utility.yul\":9588:9630   */\n      tag_210\n      jump\t// in\n    tag_316:\n        /* \"#utility.yul\":9573:9630   */\n      swap3\n      pop\n      swap1\n      pop\n        /* \"#utility.yul\":9662:9666   */\n      dup2\n        /* \"#utility.yul\":9657:9660   */\n      dup5\n        /* \"#utility.yul\":9653:9667   */\n      div\n        /* \"#utility.yul\":9646:9651   */\n      dup2\n        /* \"#utility.yul\":9643:9668   */\n      gt\n        /* \"#utility.yul\":9640:9691   */\n      iszero\n      tag_317\n      jumpi\n        /* \"#utility.yul\":9671:9689   */\n      tag_318\n      tag_208\n      jump\t// in\n    tag_318:\n        /* \"#utility.yul\":9640:9691   */\n    tag_317:\n        /* \"#utility.yul\":9720:9724   */\n      dup2\n        /* \"#utility.yul\":9713:9718   */\n      dup2\n        /* \"#utility.yul\":9709:9725   */\n      mul\n        /* \"#utility.yul\":9700:9725   */\n      swap1\n      pop\n        /* \"#utility.yul\":8658:9731   */\n    tag_303:\n      swap4\n      swap3\n      pop\n      pop\n      pop\n      jump\t// out\n        /* \"#utility.yul\":9737:10018   */\n    tag_129:\n        /* \"#utility.yul\":9795:9800   */\n      0x00\n        /* \"#utility.yul\":9819:9842   */\n      tag_320\n        /* \"#utility.yul\":9837:9841   */\n      dup3\n        /* \"#utility.yul\":9819:9842   */\n      tag_196\n      jump\t// in\n    tag_320:\n        /* \"#utility.yul\":9811:9842   */\n      swap2\n      pop\n        /* \"#utility.yul\":9863:9888   */\n      tag_321\n        /* \"#utility.yul\":9879:9887   */\n      dup4\n        /* \"#utility.yul\":9863:9888   */\n      tag_202\n      jump\t// in\n    tag_321:\n        /* \"#utility.yul\":9851:9888   */\n      swap3\n      pop\n        /* \"#utility.yul\":9907:10011   */\n      tag_322\n        /* \"#utility.yul\":9944:10010   */\n      0xffffffffffffffffffffffffffffffffffffffffffffffffffffffffffffffff\n        /* \"#utility.yul\":9934:9942   */\n      dup5\n        /* \"#utility.yul\":9928:9932   */\n      dup5\n        /* \"#utility.yul\":9907:10011   */\n      tag_211\n      jump\t// in\n    tag_322:\n        /* \"#utility.yul\":9898:10011   */\n      swap1\n      pop\n        /* \"#utility.yul\":9737:10018   */\n      swap3\n      swap2\n      pop\n      pop\n      jump\t// out\n        /* \"#utility.yul\":10024:10434   */\n    tag_131:\n        /* \"#utility.yul\":10064:10071   */\n      0x00\n        /* \"#utility.yul\":10087:10107   */\n      tag_324\n        /* \"#utility.yul\":10105:10106   */\n      dup3\n        /* \"#utility.yul\":10087:10107   */\n      tag_196\n      jump\t// in\n    tag_324:\n        /* \"#utility.yul\":10082:10107   */\n      swap2\n      pop\n        /* \"#utility.yul\":10121:10141   */\n      tag_325\n        /* \"#utility.yul\":10139:10140   */\n      dup4\n        /* \"#utility.yul\":10121:10141   */\n      tag_196\n      jump\t// in\n    tag_325:\n        /* \"#utility.yul\":10116:10141   */\n      swap3\n      pop\n        /* \"#utility.yul\":10176:10177   */\n      dup3\n        /* \"#utility.yul\":10173:10174   */\n      dup3\n        /* \"#utility.yul\":10169:10178   */\n      mul\n        /* \"#utility.yul\":10198:10228   */\n      tag_326\n        /* \"#utility.yul\":10216:10227   */\n      dup2\n        /* \"#utility.yul\":10198:10228   */\n      tag_196\n      jump\t// in\n    tag_326:\n        /* \"#utility.yul\":10187:10228   */\n      swap2\n      pop\n        /* \"#utility.yul\":10377:10378   */\n      dup3\n        /* \"#utility.yul\":10368:10375   */\n      dup3\n        /* \"#utility.yul\":10364:10379   */\n      div\n        /* \"#utility.yul\":10361:10362   */\n      dup5\n        /* \"#utility.yul\":10358:10380   */\n      eq\n        /* \"#utility.yul\":10338:10339   */\n      dup4\n        /* \"#utility.yul\":10331:10340   */\n      iszero\n        /* \"#utility.yul\":10311:10394   */\n      or\n        /* \"#utility.yul\":10288:10427   */\n      tag_327\n      jumpi\n        /* \"#utility.yul\":10407:10425   */\n      tag_328\n      tag_208\n      jump\t// in\n    tag_328:\n        /* \"#utility.yul\":10288:10427   */\n    tag_327:\n        /* \"#utility.yul\":10072:10434   */\n      pop\n        /* \"#utility.yul\":10024:10434   */\n      swap3\n      swap2\n      pop\n      pop\n      jump\t// out\n        /* \"#utility.yul\":10440:10882   */\n    tag_151:\n        /* \"#utility.yul\":10589:10593   */\n      0x00\n        /* \"#utility.yul\":10627:10629   */\n      0x60\n        /* \"#utility.yul\":10616:10625   */\n      dup3\n        /* \"#utility.yul\":10612:10630   */\n      add\n        /* \"#utility.yul\":10604:10630   */\n      swap1\n      pop\n        /* \"#utility.yul\":10640:10711   */\n      tag_330\n        /* \"#utility.yul\":10708:10709   */\n      0x00\n        /* \"#utility.yul\":10697:10706   */\n      dup4\n        /* \"#utility.yul\":10693:10710   */\n      add\n        /* \"#utility.yul\":10684:10690   */\n      dup7\n        /* \"#utility.yul\":10640:10711   */\n      tag_204\n      jump\t// in\n    tag_330:\n        /* \"#utility.yul\":10721:10793   */\n      tag_331\n        /* \"#utility.yul\":10789:10791   */\n      0x20\n        /* \"#utility.yul\":10778:10787   */\n      dup4\n        /* \"#utility.yul\":10774:10792   */\n      add\n        /* \"#utility.yul\":10765:10771   */\n      dup6\n        /* \"#utility.yul\":10721:10793   */\n      tag_201\n      jump\t// in\n    tag_331:\n        /* \"#utility.yul\":10803:10875   */\n      tag_332\n        /* \"#utility.yul\":10871:10873   */\n      0x40\n        /* \"#utility.yul\":10860:10869   */\n      dup4\n        /* \"#utility.yul\":10856:10874   */\n      add\n        /* \"#utility.yul\":10847:10853   */\n      dup5\n        /* \"#utility.yul\":10803:10875   */\n      tag_201\n      jump\t// in\n    tag_332:\n        /* \"#utility.yul\":10440:10882   */\n      swap5\n      swap4\n      pop\n      pop\n      pop\n      pop\n      jump\t// out\n        /* \"#utility.yul\":10888:11079   */\n    tag_177:\n        /* \"#utility.yul\":10928:10931   */\n      0x00\n        /* \"#utility.yul\":10947:10967   */\n      tag_334\n        /* \"#utility.yul\":10965:10966   */\n      dup3\n        /* \"#utility.yul\":10947:10967   */\n      tag_196\n      jump\t// in\n    tag_334:\n        /* \"#utility.yul\":10942:10967   */\n      swap2\n      pop\n        /* \"#utility.yul\":10981:11001   */\n      tag_335\n        /* \"#utility.yul\":10999:11000   */\n      dup4\n        /* \"#utility.yul\":10981:11001   */\n      tag_196\n      jump\t// in\n    tag_335:\n        /* \"#utility.yul\":10976:11001   */\n      swap3\n      pop\n        /* \"#utility.yul\":11024:11025   */\n      dup3\n        /* \"#utility.yul\":11021:11022   */\n      dup3\n        /* \"#utility.yul\":11017:11026   */\n      add\n        /* \"#utility.yul\":11010:11026   */\n      swap1\n      pop\n        /* \"#utility.yul\":11045:11048   */\n      dup1\n        /* \"#utility.yul\":11042:11043   */\n      dup3\n        /* \"#utility.yul\":11039:11049   */\n      gt\n        /* \"#utility.yul\":11036:11072   */\n      iszero\n      tag_336\n      jumpi\n        /* \"#utility.yul\":11052:11070   */\n      tag_337\n      tag_208\n      jump\t// in\n    tag_337:\n        /* \"#utility.yul\":11036:11072   */\n    tag_336:\n        /* \"#utility.yul\":10888:11079   */\n      swap3\n      swap2\n      pop\n      pop\n      jump\t// out\n\n    auxdata: 0xa2646970667358221220a318f5a073d9422aec9176c01e30e0917ed04ea0a2ef72055ab78e863dfdf0cf64736f6c634300081e0033\n}\n",
				"bytecode": {
					"linkReferences": {},
					"object": "608060405234801561001057600080fd5b50336040518060400160405280600e81526020017f452d426c6f636b205265776172640000000000000000000000000000000000008152506040518060400160405280600381526020017f4542520000000000000000000000000000000000000000000000000000000000815250816003908161008d919061072a565b50806004908161009d919061072a565b505050600073ffffffffffffffffffffffffffffffffffffffff168173ffffffffffffffffffffffffffffffffffffffff16036101125760006040517f1e4fbdf7000000000000000000000000000000000000000000000000000000008152600401610109919061083d565b60405180910390fd5b6101218161015e60201b60201c565b506101593361013461022460201b60201c565b600a61014091906109c7565b620f424061014e9190610a12565b61022d60201b60201c565b610ae9565b6000600560009054906101000a900473ffffffffffffffffffffffffffffffffffffffff16905081600560006101000a81548173ffffffffffffffffffffffffffffffffffffffff021916908373ffffffffffffffffffffffffffffffffffffffff1602179055508173ffffffffffffffffffffffffffffffffffffffff168173ffffffffffffffffffffffffffffffffffffffff167f8be0079c531659141344cd1fd0a4f28419497f9722a3daafe3b4186f6b6457e060405160405180910390a35050565b60006012905090565b600073ffffffffffffffffffffffffffffffffffffffff168273ffffffffffffffffffffffffffffffffffffffff160361029f5760006040517fec442f05000000000000000000000000000000000000000000000000000000008152600401610296919061083d565b60405180910390fd5b6102b1600083836102b560201b60201c565b5050565b600073ffffffffffffffffffffffffffffffffffffffff168373ffffffffffffffffffffffffffffffffffffffff16036103075780600260008282546102fb9190610a54565b925050819055506103da565b60008060008573ffffffffffffffffffffffffffffffffffffffff1673ffffffffffffffffffffffffffffffffffffffff16815260200190815260200160002054905081811015610393578381836040517fe450d38c00000000000000000000000000000000000000000000000000000000815260040161038a93929190610a97565b60405180910390fd5b8181036000808673ffffffffffffffffffffffffffffffffffffffff1673ffffffffffffffffffffffffffffffffffffffff16815260200190815260200160002081905550505b600073ffffffffffffffffffffffffffffffffffffffff168273ffffffffffffffffffffffffffffffffffffffff16036104235780600260008282540392505081905550610470565b806000808473ffffffffffffffffffffffffffffffffffffffff1673ffffffffffffffffffffffffffffffffffffffff168152602001908152602001600020600082825401925050819055505b8173ffffffffffffffffffffffffffffffffffffffff168373ffffffffffffffffffffffffffffffffffffffff167fddf252ad1be2c89b69c2b068fc378daa952ba7f163c4a11628f55a4df523b3ef836040516104cd9190610ace565b60405180910390a3505050565b600081519050919050565b7f4e487b7100000000000000000000000000000000000000000000000000000000600052604160045260246000fd5b7f4e487b7100000000000000000000000000000000000000000000000000000000600052602260045260246000fd5b6000600282049050600182168061055b57607f821691505b60208210810361056e5761056d610514565b5b50919050565b60008190508160005260206000209050919050565b60006020601f8301049050919050565b600082821b905092915050565b6000600883026105d67fffffffffffffffffffffffffffffffffffffffffffffffffffffffffffffffff82610599565b6105e08683610599565b95508019841693508086168417925050509392505050565b6000819050919050565b6000819050919050565b600061062761062261061d846105f8565b610602565b6105f8565b9050919050565b6000819050919050565b6106418361060c565b61065561064d8261062e565b8484546105a6565b825550505050565b600090565b61066a61065d565b610675818484610638565b505050565b5b818110156106995761068e600082610662565b60018101905061067b565b5050565b601f8211156106de576106af81610574565b6106b884610589565b810160208510156106c7578190505b6106db6106d385610589565b83018261067a565b50505b505050565b600082821c905092915050565b6000610701600019846008026106e3565b1980831691505092915050565b600061071a83836106f0565b9150826002028217905092915050565b610733826104da565b67ffffffffffffffff81111561074c5761074b6104e5565b5b6107568254610543565b61076182828561069d565b600060209050601f8311600181146107945760008415610782578287015190505b61078c858261070e565b8655506107f4565b601f1984166107a286610574565b60005b828110156107ca578489015182556001820191506020850194506020810190506107a5565b868310156107e757848901516107e3601f8916826106f0565b8355505b6001600288020188555050505b505050505050565b600073ffffffffffffffffffffffffffffffffffffffff82169050919050565b6000610827826107fc565b9050919050565b6108378161081c565b82525050565b6000602082019050610852600083018461082e565b92915050565b7f4e487b7100000000000000000000000000000000000000000000000000000000600052601160045260246000fd5b60008160011c9050919050565b6000808291508390505b60018511156108de578086048111156108ba576108b9610858565b5b60018516156108c95780820291505b80810290506108d785610887565b945061089e565b94509492505050565b6000826108f757600190506109b3565b8161090557600090506109b3565b816001811461091b576002811461092557610954565b60019150506109b3565b60ff84111561093757610936610858565b5b8360020a91508482111561094e5761094d610858565b5b506109b3565b5060208310610133831016604e8410600b84101617156109895782820a90508381111561098457610983610858565b5b6109b3565b6109968484846001610894565b925090508184048111156109ad576109ac610858565b5b81810290505b9392505050565b600060ff82169050919050565b60006109d2826105f8565b91506109dd836109ba565b9250610a0a7fffffffffffffffffffffffffffffffffffffffffffffffffffffffffffffffff84846108e7565b905092915050565b6000610a1d826105f8565b9150610a28836105f8565b9250828202610a36816105f8565b91508282048414831517610a4d57610a4c610858565b5b5092915050565b6000610a5f826105f8565b9150610a6a836105f8565b9250828201905080821115610a8257610a81610858565b5b92915050565b610a91816105f8565b82525050565b6000606082019050610aac600083018661082e565b610ab96020830185610a88565b610ac66040830184610a88565b949350505050565b6000602082019050610ae36000830184610a88565b92915050565b61153380610af86000396000f3fe608060405234801561001057600080fd5b50600436106100f55760003560e01c8063715018a611610097578063a9059cbb11610066578063a9059cbb14610276578063d5714091146102a6578063dd62ed3e146102c2578063f2fde38b146102f2576100f5565b8063715018a6146102005780637a3a9cbd1461020a5780638da5cb5b1461023a57806395d89b4114610258576100f5565b806323b872dd116100d357806323b872dd14610166578063313ce5671461019657806367001e33146101b457806370a08231146101d0576100f5565b806306fdde03146100fa578063095ea7b31461011857806318160ddd14610148575b600080fd5b61010261030e565b60405161010f9190610f5b565b60405180910390f35b610132600480360381019061012d9190611016565b6103a0565b60405161013f9190611071565b60405180910390f35b6101506103c3565b60405161015d919061109b565b60405180910390f35b610180600480360381019061017b91906110b6565b6103cd565b60405161018d9190611071565b60405180910390f35b61019e6103fc565b6040516101ab9190611125565b60405180910390f35b6101ce60048036038101906101c99190611140565b610405565b005b6101ea60048036038101906101e59190611140565b610468565b6040516101f7919061109b565b60405180910390f35b6102086104b0565b005b610224600480360381019061021f9190611140565b6104c4565b6040516102319190611071565b60405180910390f35b6102426104e4565b60405161024f919061117c565b60405180910390f35b61026061050e565b60405161026d9190610f5b565b60405180910390f35b610290600480360381019061028b9190611016565b6105a0565b60405161029d9190611071565b60405180910390f35b6102c060048036038101906102bb9190611016565b6105c3565b005b6102dc60048036038101906102d79190611197565b6106d2565b6040516102e9919061109b565b60405180910390f35b61030c60048036038101906103079190611140565b610759565b005b60606003805461031d90611206565b80601f016020809104026020016040519081016040528092919081815260200182805461034990611206565b80156103965780601f1061036b57610100808354040283529160200191610396565b820191906000526020600020905b81548152906001019060200180831161037957829003601f168201915b5050505050905090565b6000806103ab6107df565b90506103b88185856107e7565b600191505092915050565b6000600254905090565b6000806103d86107df565b90506103e58582856107f9565b6103f085858561088e565b60019150509392505050565b60006012905090565b61040d610982565b6001600660008373ffffffffffffffffffffffffffffffffffffffff1673ffffffffffffffffffffffffffffffffffffffff16815260200190815260200160002060006101000a81548160ff02191690831515021790555050565b60008060008373ffffffffffffffffffffffffffffffffffffffff1673ffffffffffffffffffffffffffffffffffffffff168152602001908152602001600020549050919050565b6104b8610982565b6104c26000610a09565b565b60066020528060005260406000206000915054906101000a900460ff1681565b6000600560009054906101000a900473ffffffffffffffffffffffffffffffffffffffff16905090565b60606004805461051d90611206565b80601f016020809104026020016040519081016040528092919081815260200182805461054990611206565b80156105965780601f1061056b57610100808354040283529160200191610596565b820191906000526020600020905b81548152906001019060200180831161057957829003601f168201915b5050505050905090565b6000806105ab6107df565b90506105b881858561088e565b600191505092915050565b600660003373ffffffffffffffffffffffffffffffffffffffff1673ffffffffffffffffffffffffffffffffffffffff16815260200190815260200160002060009054906101000a900460ff168061064d575061061e6104e4565b73ffffffffffffffffffffffffffffffffffffffff163373ffffffffffffffffffffffffffffffffffffffff16145b61068c576040517f08c379a000000000000000000000000000000000000000000000000000000000815260040161068390611283565b60405180910390fd5b60006106966103fc565b600a6106a29190611405565b6032836106af9190611450565b6106b99190611450565b90506106cd6106c66104e4565b848361088e565b505050565b6000600160008473ffffffffffffffffffffffffffffffffffffffff1673ffffffffffffffffffffffffffffffffffffffff16815260200190815260200160002060008373ffffffffffffffffffffffffffffffffffffffff1673ffffffffffffffffffffffffffffffffffffffff16815260200190815260200160002054905092915050565b610761610982565b600073ffffffffffffffffffffffffffffffffffffffff168173ffffffffffffffffffffffffffffffffffffffff16036107d35760006040517f1e4fbdf70000000000000000000000000000000000000000000000000000000081526004016107ca919061117c565b60405180910390fd5b6107dc81610a09565b50565b600033905090565b6107f48383836001610acf565b505050565b600061080584846106d2565b90507fffffffffffffffffffffffffffffffffffffffffffffffffffffffffffffffff8110156108885781811015610878578281836040517ffb8f41b200000000000000000000000000000000000000000000000000000000815260040161086f93929190611492565b60405180910390fd5b61088784848484036000610acf565b5b50505050565b600073ffffffffffffffffffffffffffffffffffffffff168373ffffffffffffffffffffffffffffffffffffffff16036109005760006040517f96c6fd1e0000000000000000000000000000000000000000000000000000000081526004016108f7919061117c565b60405180910390fd5b600073ffffffffffffffffffffffffffffffffffffffff168273ffffffffffffffffffffffffffffffffffffffff16036109725760006040517fec442f05000000000000000000000000000000000000000000000000000000008152600401610969919061117c565b60405180910390fd5b61097d838383610ca6565b505050565b61098a6107df565b73ffffffffffffffffffffffffffffffffffffffff166109a86104e4565b73ffffffffffffffffffffffffffffffffffffffff1614610a07576109cb6107df565b6040517f118cdaa70000000000000000000000000000000000000000000000000000000081526004016109fe919061117c565b60405180910390fd5b565b6000600560009054906101000a900473ffffffffffffffffffffffffffffffffffffffff16905081600560006101000a81548173ffffffffffffffffffffffffffffffffffffffff021916908373ffffffffffffffffffffffffffffffffffffffff1602179055508173ffffffffffffffffffffffffffffffffffffffff168173ffffffffffffffffffffffffffffffffffffffff167f8be0079c531659141344cd1fd0a4f28419497f9722a3daafe3b4186f6b6457e060405160405180910390a35050565b600073ffffffffffffffffffffffffffffffffffffffff168473ffffffffffffffffffffffffffffffffffffffff1603610b415760006040517fe602df05000000000000000000000000000000000000000000000000000000008152600401610b38919061117c565b60405180910390fd5b600073ffffffffffffffffffffffffffffffffffffffff168373ffffffffffffffffffffffffffffffffffffffff1603610bb35760006040517f94280d62000000000000000000000000000000000000000000000000000000008152600401610baa919061117c565b60405180910390fd5b81600160008673ffffffffffffffffffffffffffffffffffffffff1673ffffffffffffffffffffffffffffffffffffffff16815260200190815260200160002060008573ffffffffffffffffffffffffffffffffffffffff1673ffffffffffffffffffffffffffffffffffffffff168152602001908152602001600020819055508015610ca0578273ffffffffffffffffffffffffffffffffffffffff168473ffffffffffffffffffffffffffffffffffffffff167f8c5be1e5ebec7d5bd14f71427d1e84f3dd0314c0f7b2291e5b200ac8c7c3b92584604051610c97919061109b565b60405180910390a35b50505050565b600073ffffffffffffffffffffffffffffffffffffffff168373ffffffffffffffffffffffffffffffffffffffff1603610cf8578060026000828254610cec91906114c9565b92505081905550610dcb565b60008060008573ffffffffffffffffffffffffffffffffffffffff1673ffffffffffffffffffffffffffffffffffffffff16815260200190815260200160002054905081811015610d84578381836040517fe450d38c000000000000000000000000000000000000000000000000000000008152600401610d7b93929190611492565b60405180910390fd5b8181036000808673ffffffffffffffffffffffffffffffffffffffff1673ffffffffffffffffffffffffffffffffffffffff16815260200190815260200160002081905550505b600073ffffffffffffffffffffffffffffffffffffffff168273ffffffffffffffffffffffffffffffffffffffff1603610e145780600260008282540392505081905550610e61565b806000808473ffffffffffffffffffffffffffffffffffffffff1673ffffffffffffffffffffffffffffffffffffffff168152602001908152602001600020600082825401925050819055505b8173ffffffffffffffffffffffffffffffffffffffff168373ffffffffffffffffffffffffffffffffffffffff167fddf252ad1be2c89b69c2b068fc378daa952ba7f163c4a11628f55a4df523b3ef83604051610ebe919061109b565b60405180910390a3505050565b600081519050919050565b600082825260208201905092915050565b60005b83811015610f05578082015181840152602081019050610eea565b60008484015250505050565b6000601f19601f8301169050919050565b6000610f2d82610ecb565b610f378185610ed6565b9350610f47818560208601610ee7565b610f5081610f11565b840191505092915050565b60006020820190508181036000830152610f758184610f22565b905092915050565b600080fd5b600073ffffffffffffffffffffffffffffffffffffffff82169050919050565b6000610fad82610f82565b9050919050565b610fbd81610fa2565b8114610fc857600080fd5b50565b600081359050610fda81610fb4565b92915050565b6000819050919050565b610ff381610fe0565b8114610ffe57600080fd5b50565b60008135905061101081610fea565b92915050565b6000806040838503121561102d5761102c610f7d565b5b600061103b85828601610fcb565b925050602061104c85828601611001565b9150509250929050565b60008115159050919050565b61106b81611056565b82525050565b60006020820190506110866000830184611062565b92915050565b61109581610fe0565b82525050565b60006020820190506110b0600083018461108c565b92915050565b6000806000606084860312156110cf576110ce610f7d565b5b60006110dd86828701610fcb565b93505060206110ee86828701610fcb565b92505060406110ff86828701611001565b9150509250925092565b600060ff82169050919050565b61111f81611109565b82525050565b600060208201905061113a6000830184611116565b92915050565b60006020828403121561115657611155610f7d565b5b600061116484828501610fcb565b91505092915050565b61117681610fa2565b82525050565b6000602082019050611191600083018461116d565b92915050565b600080604083850312156111ae576111ad610f7d565b5b60006111bc85828601610fcb565b92505060206111cd85828601610fcb565b9150509250929050565b7f4e487b7100000000000000000000000000000000000000000000000000000000600052602260045260246000fd5b6000600282049050600182168061121e57607f821691505b602082108103611231576112306111d7565b5b50919050565b7f4e6f7420617574686f72697a65642072656379636c6572000000000000000000600082015250565b600061126d601783610ed6565b915061127882611237565b602082019050919050565b6000602082019050818103600083015261129c81611260565b9050919050565b7f4e487b7100000000000000000000000000000000000000000000000000000000600052601160045260246000fd5b60008160011c9050919050565b6000808291508390505b600185111561132957808604811115611305576113046112a3565b5b60018516156113145780820291505b8081029050611322856112d2565b94506112e9565b94509492505050565b60008261134257600190506113fe565b8161135057600090506113fe565b816001811461136657600281146113705761139f565b60019150506113fe565b60ff841115611382576113816112a3565b5b8360020a915084821115611399576113986112a3565b5b506113fe565b5060208310610133831016604e8410600b84101617156113d45782820a9050838111156113cf576113ce6112a3565b5b6113fe565b6113e184848460016112df565b925090508184048111156113f8576113f76112a3565b5b81810290505b9392505050565b600061141082610fe0565b915061141b83611109565b92506114487fffffffffffffffffffffffffffffffffffffffffffffffffffffffffffffffff8484611332565b905092915050565b600061145b82610fe0565b915061146683610fe0565b925082820261147481610fe0565b9150828204841483151761148b5761148a6112a3565b5b5092915050565b60006060820190506114a7600083018661116d565b6114b4602083018561108c565b6114c1604083018461108c565b949350505050565b60006114d482610fe0565b91506114df83610fe0565b92508282019050808211156114f7576114f66112a3565b5b9291505056fea2646970667358221220a318f5a073d9422aec9176c01e30e0917ed04ea0a2ef72055ab78e863dfdf0cf64736f6c634300081e0033",
					"opcodes": "PUSH1 0x80 PUSH1 0x40 MSTORE CALLVALUE DUP1 ISZERO PUSH2 0x10 JUMPI PUSH1 0x0 DUP1 REVERT JUMPDEST POP CALLER PUSH1 0x40 MLOAD DUP1 PUSH1 0x40 ADD PUSH1 0x40 MSTORE DUP1 PUSH1 0xE DUP2 MSTORE PUSH1 0x20 ADD PUSH32 0x452D426C6F636B20526577617264000000000000000000000000000000000000 DUP2 MSTORE POP PUSH1 0x40 MLOAD DUP1 PUSH1 0x40 ADD PUSH1 0x40 MSTORE DUP1 PUSH1 0x3 DUP2 MSTORE PUSH1 0x20 ADD PUSH32 0x4542520000000000000000000000000000000000000000000000000000000000 DUP2 MSTORE POP DUP2 PUSH1 0x3 SWAP1 DUP2 PUSH2 0x8D SWAP2 SWAP1 PUSH2 0x72A JUMP JUMPDEST POP DUP1 PUSH1 0x4 SWAP1 DUP2 PUSH2 0x9D SWAP2 SWAP1 PUSH2 0x72A JUMP JUMPDEST POP POP POP PUSH1 0x0 PUSH20 0xFFFFFFFFFFFFFFFFFFFFFFFFFFFFFFFFFFFFFFFF AND DUP2 PUSH20 0xFFFFFFFFFFFFFFFFFFFFFFFFFFFFFFFFFFFFFFFF AND SUB PUSH2 0x112 JUMPI PUSH1 0x0 PUSH1 0x40 MLOAD PUSH32 0x1E4FBDF700000000000000000000000000000000000000000000000000000000 DUP2 MSTORE PUSH1 0x4 ADD PUSH2 0x109 SWAP2 SWAP1 PUSH2 0x83D JUMP JUMPDEST PUSH1 0x40 MLOAD DUP1 SWAP2 SUB SWAP1 REVERT JUMPDEST PUSH2 0x121 DUP2 PUSH2 0x15E PUSH1 0x20 SHL PUSH1 0x20 SHR JUMP JUMPDEST POP PUSH2 0x159 CALLER PUSH2 0x134 PUSH2 0x224 PUSH1 0x20 SHL PUSH1 0x20 SHR JUMP JUMPDEST PUSH1 0xA PUSH2 0x140 SWAP2 SWAP1 PUSH2 0x9C7 JUMP JUMPDEST PUSH3 0xF4240 PUSH2 0x14E SWAP2 SWAP1 PUSH2 0xA12 JUMP JUMPDEST PUSH2 0x22D PUSH1 0x20 SHL PUSH1 0x20 SHR JUMP JUMPDEST PUSH2 0xAE9 JUMP JUMPDEST PUSH1 0x0 PUSH1 0x5 PUSH1 0x0 SWAP1 SLOAD SWAP1 PUSH2 0x100 EXP SWAP1 DIV PUSH20 0xFFFFFFFFFFFFFFFFFFFFFFFFFFFFFFFFFFFFFFFF AND SWAP1 POP DUP2 PUSH1 0x5 PUSH1 0x0 PUSH2 0x100 EXP DUP2 SLOAD DUP2 PUSH20 0xFFFFFFFFFFFFFFFFFFFFFFFFFFFFFFFFFFFFFFFF MUL NOT AND SWAP1 DUP4 PUSH20 0xFFFFFFFFFFFFFFFFFFFFFFFFFFFFFFFFFFFFFFFF AND MUL OR SWAP1 SSTORE POP DUP2 PUSH20 0xFFFFFFFFFFFFFFFFFFFFFFFFFFFFFFFFFFFFFFFF AND DUP2 PUSH20 0xFFFFFFFFFFFFFFFFFFFFFFFFFFFFFFFFFFFFFFFF AND PUSH32 0x8BE0079C531659141344CD1FD0A4F28419497F9722A3DAAFE3B4186F6B6457E0 PUSH1 0x40 MLOAD PUSH1 0x40 MLOAD DUP1 SWAP2 SUB SWAP1 LOG3 POP POP JUMP JUMPDEST PUSH1 0x0 PUSH1 0x12 SWAP1 POP SWAP1 JUMP JUMPDEST PUSH1 0x0 PUSH20 0xFFFFFFFFFFFFFFFFFFFFFFFFFFFFFFFFFFFFFFFF AND DUP3 PUSH20 0xFFFFFFFFFFFFFFFFFFFFFFFFFFFFFFFFFFFFFFFF AND SUB PUSH2 0x29F JUMPI PUSH1 0x0 PUSH1 0x40 MLOAD PUSH32 0xEC442F0500000000000000000000000000000000000000000000000000000000 DUP2 MSTORE PUSH1 0x4 ADD PUSH2 0x296 SWAP2 SWAP1 PUSH2 0x83D JUMP JUMPDEST PUSH1 0x40 MLOAD DUP1 SWAP2 SUB SWAP1 REVERT JUMPDEST PUSH2 0x2B1 PUSH1 0x0 DUP4 DUP4 PUSH2 0x2B5 PUSH1 0x20 SHL PUSH1 0x20 SHR JUMP JUMPDEST POP POP JUMP JUMPDEST PUSH1 0x0 PUSH20 0xFFFFFFFFFFFFFFFFFFFFFFFFFFFFFFFFFFFFFFFF AND DUP4 PUSH20 0xFFFFFFFFFFFFFFFFFFFFFFFFFFFFFFFFFFFFFFFF AND SUB PUSH2 0x307 JUMPI DUP1 PUSH1 0x2 PUSH1 0x0 DUP3 DUP3 SLOAD PUSH2 0x2FB SWAP2 SWAP1 PUSH2 0xA54 JUMP JUMPDEST SWAP3 POP POP DUP2 SWAP1 SSTORE POP PUSH2 0x3DA JUMP JUMPDEST PUSH1 0x0 DUP1 PUSH1 0x0 DUP6 PUSH20 0xFFFFFFFFFFFFFFFFFFFFFFFFFFFFFFFFFFFFFFFF AND PUSH20 0xFFFFFFFFFFFFFFFFFFFFFFFFFFFFFFFFFFFFFFFF AND DUP2 MSTORE PUSH1 0x20 ADD SWAP1 DUP2 MSTORE PUSH1 0x20 ADD PUSH1 0x0 KECCAK256 SLOAD SWAP1 POP DUP2 DUP2 LT ISZERO PUSH2 0x393 JUMPI DUP4 DUP2 DUP4 PUSH1 0x40 MLOAD PUSH32 0xE450D38C00000000000000000000000000000000000000000000000000000000 DUP2 MSTORE PUSH1 0x4 ADD PUSH2 0x38A SWAP4 SWAP3 SWAP2 SWAP1 PUSH2 0xA97 JUMP JUMPDEST PUSH1 0x40 MLOAD DUP1 SWAP2 SUB SWAP1 REVERT JUMPDEST DUP2 DUP2 SUB PUSH1 0x0 DUP1 DUP7 PUSH20 0xFFFFFFFFFFFFFFFFFFFFFFFFFFFFFFFFFFFFFFFF AND PUSH20 0xFFFFFFFFFFFFFFFFFFFFFFFFFFFFFFFFFFFFFFFF AND DUP2 MSTORE PUSH1 0x20 ADD SWAP1 DUP2 MSTORE PUSH1 0x20 ADD PUSH1 0x0 KECCAK256 DUP2 SWAP1 SSTORE POP POP JUMPDEST PUSH1 0x0 PUSH20 0xFFFFFFFFFFFFFFFFFFFFFFFFFFFFFFFFFFFFFFFF AND DUP3 PUSH20 0xFFFFFFFFFFFFFFFFFFFFFFFFFFFFFFFFFFFFFFFF AND SUB PUSH2 0x423 JUMPI DUP1 PUSH1 0x2 PUSH1 0x0 DUP3 DUP3 SLOAD SUB SWAP3 POP POP DUP2 SWAP1 SSTORE POP PUSH2 0x470 JUMP JUMPDEST DUP1 PUSH1 0x0 DUP1 DUP5 PUSH20 0xFFFFFFFFFFFFFFFFFFFFFFFFFFFFFFFFFFFFFFFF AND PUSH20 0xFFFFFFFFFFFFFFFFFFFFFFFFFFFFFFFFFFFFFFFF AND DUP2 MSTORE PUSH1 0x20 ADD SWAP1 DUP2 MSTORE PUSH1 0x20 ADD PUSH1 0x0 KECCAK256 PUSH1 0x0 DUP3 DUP3 SLOAD ADD SWAP3 POP POP DUP2 SWAP1 SSTORE POP JUMPDEST DUP2 PUSH20 0xFFFFFFFFFFFFFFFFFFFFFFFFFFFFFFFFFFFFFFFF AND DUP4 PUSH20 0xFFFFFFFFFFFFFFFFFFFFFFFFFFFFFFFFFFFFFFFF AND PUSH32 0xDDF252AD1BE2C89B69C2B068FC378DAA952BA7F163C4A11628F55A4DF523B3EF DUP4 PUSH1 0x40 MLOAD PUSH2 0x4CD SWAP2 SWAP1 PUSH2 0xACE JUMP JUMPDEST PUSH1 0x40 MLOAD DUP1 SWAP2 SUB SWAP1 LOG3 POP POP POP JUMP JUMPDEST PUSH1 0x0 DUP2 MLOAD SWAP1 POP SWAP2 SWAP1 POP JUMP JUMPDEST PUSH32 0x4E487B7100000000000000000000000000000000000000000000000000000000 PUSH1 0x0 MSTORE PUSH1 0x41 PUSH1 0x4 MSTORE PUSH1 0x24 PUSH1 0x0 REVERT JUMPDEST PUSH32 0x4E487B7100000000000000000000000000000000000000000000000000000000 PUSH1 0x0 MSTORE PUSH1 0x22 PUSH1 0x4 MSTORE PUSH1 0x24 PUSH1 0x0 REVERT JUMPDEST PUSH1 0x0 PUSH1 0x2 DUP3 DIV SWAP1 POP PUSH1 0x1 DUP3 AND DUP1 PUSH2 0x55B JUMPI PUSH1 0x7F DUP3 AND SWAP2 POP JUMPDEST PUSH1 0x20 DUP3 LT DUP2 SUB PUSH2 0x56E JUMPI PUSH2 0x56D PUSH2 0x514 JUMP JUMPDEST JUMPDEST POP SWAP2 SWAP1 POP JUMP JUMPDEST PUSH1 0x0 DUP2 SWAP1 POP DUP2 PUSH1 0x0 MSTORE PUSH1 0x20 PUSH1 0x0 KECCAK256 SWAP1 POP SWAP2 SWAP1 POP JUMP JUMPDEST PUSH1 0x0 PUSH1 0x20 PUSH1 0x1F DUP4 ADD DIV SWAP1 POP SWAP2 SWAP1 POP JUMP JUMPDEST PUSH1 0x0 DUP3 DUP3 SHL SWAP1 POP SWAP3 SWAP2 POP POP JUMP JUMPDEST PUSH1 0x0 PUSH1 0x8 DUP4 MUL PUSH2 0x5D6 PUSH32 0xFFFFFFFFFFFFFFFFFFFFFFFFFFFFFFFFFFFFFFFFFFFFFFFFFFFFFFFFFFFFFFFF DUP3 PUSH2 0x599 JUMP JUMPDEST PUSH2 0x5E0 DUP7 DUP4 PUSH2 0x599 JUMP JUMPDEST SWAP6 POP DUP1 NOT DUP5 AND SWAP4 POP DUP1 DUP7 AND DUP5 OR SWAP3 POP POP POP SWAP4 SWAP3 POP POP POP JUMP JUMPDEST PUSH1 0x0 DUP2 SWAP1 POP SWAP2 SWAP1 POP JUMP JUMPDEST PUSH1 0x0 DUP2 SWAP1 POP SWAP2 SWAP1 POP JUMP JUMPDEST PUSH1 0x0 PUSH2 0x627 PUSH2 0x622 PUSH2 0x61D DUP5 PUSH2 0x5F8 JUMP JUMPDEST PUSH2 0x602 JUMP JUMPDEST PUSH2 0x5F8 JUMP JUMPDEST SWAP1 POP SWAP2 SWAP1 POP JUMP JUMPDEST PUSH1 0x0 DUP2 SWAP1 POP SWAP2 SWAP1 POP JUMP JUMPDEST PUSH2 0x641 DUP4 PUSH2 0x60C JUMP JUMPDEST PUSH2 0x655 PUSH2 0x64D DUP3 PUSH2 0x62E JUMP JUMPDEST DUP5 DUP5 SLOAD PUSH2 0x5A6 JUMP JUMPDEST DUP3 SSTORE POP POP POP POP JUMP JUMPDEST PUSH1 0x0 SWAP1 JUMP JUMPDEST PUSH2 0x66A PUSH2 0x65D JUMP JUMPDEST PUSH2 0x675 DUP2 DUP5 DUP5 PUSH2 0x638 JUMP JUMPDEST POP POP POP JUMP JUMPDEST JUMPDEST DUP2 DUP2 LT ISZERO PUSH2 0x699 JUMPI PUSH2 0x68E PUSH1 0x0 DUP3 PUSH2 0x662 JUMP JUMPDEST PUSH1 0x1 DUP2 ADD SWAP1 POP PUSH2 0x67B JUMP JUMPDEST POP POP JUMP JUMPDEST PUSH1 0x1F DUP3 GT ISZERO PUSH2 0x6DE JUMPI PUSH2 0x6AF DUP2 PUSH2 0x574 JUMP JUMPDEST PUSH2 0x6B8 DUP5 PUSH2 0x589 JUMP JUMPDEST DUP2 ADD PUSH1 0x20 DUP6 LT ISZERO PUSH2 0x6C7 JUMPI DUP2 SWAP1 POP JUMPDEST PUSH2 0x6DB PUSH2 0x6D3 DUP6 PUSH2 0x589 JUMP JUMPDEST DUP4 ADD DUP3 PUSH2 0x67A JUMP JUMPDEST POP POP JUMPDEST POP POP POP JUMP JUMPDEST PUSH1 0x0 DUP3 DUP3 SHR SWAP1 POP SWAP3 SWAP2 POP POP JUMP JUMPDEST PUSH1 0x0 PUSH2 0x701 PUSH1 0x0 NOT DUP5 PUSH1 0x8 MUL PUSH2 0x6E3 JUMP JUMPDEST NOT DUP1 DUP4 AND SWAP2 POP POP SWAP3 SWAP2 POP POP JUMP JUMPDEST PUSH1 0x0 PUSH2 0x71A DUP4 DUP4 PUSH2 0x6F0 JUMP JUMPDEST SWAP2 POP DUP3 PUSH1 0x2 MUL DUP3 OR SWAP1 POP SWAP3 SWAP2 POP POP JUMP JUMPDEST PUSH2 0x733 DUP3 PUSH2 0x4DA JUMP JUMPDEST PUSH8 0xFFFFFFFFFFFFFFFF DUP2 GT ISZERO PUSH2 0x74C JUMPI PUSH2 0x74B PUSH2 0x4E5 JUMP JUMPDEST JUMPDEST PUSH2 0x756 DUP3 SLOAD PUSH2 0x543 JUMP JUMPDEST PUSH2 0x761 DUP3 DUP3 DUP6 PUSH2 0x69D JUMP JUMPDEST PUSH1 0x0 PUSH1 0x20 SWAP1 POP PUSH1 0x1F DUP4 GT PUSH1 0x1 DUP2 EQ PUSH2 0x794 JUMPI PUSH1 0x0 DUP5 ISZERO PUSH2 0x782 JUMPI DUP3 DUP8 ADD MLOAD SWAP1 POP JUMPDEST PUSH2 0x78C DUP6 DUP3 PUSH2 0x70E JUMP JUMPDEST DUP7 SSTORE POP PUSH2 0x7F4 JUMP JUMPDEST PUSH1 0x1F NOT DUP5 AND PUSH2 0x7A2 DUP7 PUSH2 0x574 JUMP JUMPDEST PUSH1 0x0 JUMPDEST DUP3 DUP2 LT ISZERO PUSH2 0x7CA JUMPI DUP5 DUP10 ADD MLOAD DUP3 SSTORE PUSH1 0x1 DUP3 ADD SWAP2 POP PUSH1 0x20 DUP6 ADD SWAP5 POP PUSH1 0x20 DUP2 ADD SWAP1 POP PUSH2 0x7A5 JUMP JUMPDEST DUP7 DUP4 LT ISZERO PUSH2 0x7E7 JUMPI DUP5 DUP10 ADD MLOAD PUSH2 0x7E3 PUSH1 0x1F DUP10 AND DUP3 PUSH2 0x6F0 JUMP JUMPDEST DUP4 SSTORE POP JUMPDEST PUSH1 0x1 PUSH1 0x2 DUP9 MUL ADD DUP9 SSTORE POP POP POP JUMPDEST POP POP POP POP POP POP JUMP JUMPDEST PUSH1 0x0 PUSH20 0xFFFFFFFFFFFFFFFFFFFFFFFFFFFFFFFFFFFFFFFF DUP3 AND SWAP1 POP SWAP2 SWAP1 POP JUMP JUMPDEST PUSH1 0x0 PUSH2 0x827 DUP3 PUSH2 0x7FC JUMP JUMPDEST SWAP1 POP SWAP2 SWAP1 POP JUMP JUMPDEST PUSH2 0x837 DUP2 PUSH2 0x81C JUMP JUMPDEST DUP3 MSTORE POP POP JUMP JUMPDEST PUSH1 0x0 PUSH1 0x20 DUP3 ADD SWAP1 POP PUSH2 0x852 PUSH1 0x0 DUP4 ADD DUP5 PUSH2 0x82E JUMP JUMPDEST SWAP3 SWAP2 POP POP JUMP JUMPDEST PUSH32 0x4E487B7100000000000000000000000000000000000000000000000000000000 PUSH1 0x0 MSTORE PUSH1 0x11 PUSH1 0x4 MSTORE PUSH1 0x24 PUSH1 0x0 REVERT JUMPDEST PUSH1 0x0 DUP2 PUSH1 0x1 SHR SWAP1 POP SWAP2 SWAP1 POP JUMP JUMPDEST PUSH1 0x0 DUP1 DUP3 SWAP2 POP DUP4 SWAP1 POP JUMPDEST PUSH1 0x1 DUP6 GT ISZERO PUSH2 0x8DE JUMPI DUP1 DUP7 DIV DUP2 GT ISZERO PUSH2 0x8BA JUMPI PUSH2 0x8B9 PUSH2 0x858 JUMP JUMPDEST JUMPDEST PUSH1 0x1 DUP6 AND ISZERO PUSH2 0x8C9 JUMPI DUP1 DUP3 MUL SWAP2 POP JUMPDEST DUP1 DUP2 MUL SWAP1 POP PUSH2 0x8D7 DUP6 PUSH2 0x887 JUMP JUMPDEST SWAP5 POP PUSH2 0x89E JUMP JUMPDEST SWAP5 POP SWAP5 SWAP3 POP POP POP JUMP JUMPDEST PUSH1 0x0 DUP3 PUSH2 0x8F7 JUMPI PUSH1 0x1 SWAP1 POP PUSH2 0x9B3 JUMP JUMPDEST DUP2 PUSH2 0x905 JUMPI PUSH1 0x0 SWAP1 POP PUSH2 0x9B3 JUMP JUMPDEST DUP2 PUSH1 0x1 DUP2 EQ PUSH2 0x91B JUMPI PUSH1 0x2 DUP2 EQ PUSH2 0x925 JUMPI PUSH2 0x954 JUMP JUMPDEST PUSH1 0x1 SWAP2 POP POP PUSH2 0x9B3 JUMP JUMPDEST PUSH1 0xFF DUP5 GT ISZERO PUSH2 0x937 JUMPI PUSH2 0x936 PUSH2 0x858 JUMP JUMPDEST JUMPDEST DUP4 PUSH1 0x2 EXP SWAP2 POP DUP5 DUP3 GT ISZERO PUSH2 0x94E JUMPI PUSH2 0x94D PUSH2 0x858 JUMP JUMPDEST JUMPDEST POP PUSH2 0x9B3 JUMP JUMPDEST POP PUSH1 0x20 DUP4 LT PUSH2 0x133 DUP4 LT AND PUSH1 0x4E DUP5 LT PUSH1 0xB DUP5 LT AND OR ISZERO PUSH2 0x989 JUMPI DUP3 DUP3 EXP SWAP1 POP DUP4 DUP2 GT ISZERO PUSH2 0x984 JUMPI PUSH2 0x983 PUSH2 0x858 JUMP JUMPDEST JUMPDEST PUSH2 0x9B3 JUMP JUMPDEST PUSH2 0x996 DUP5 DUP5 DUP5 PUSH1 0x1 PUSH2 0x894 JUMP JUMPDEST SWAP3 POP SWAP1 POP DUP2 DUP5 DIV DUP2 GT ISZERO PUSH2 0x9AD JUMPI PUSH2 0x9AC PUSH2 0x858 JUMP JUMPDEST JUMPDEST DUP2 DUP2 MUL SWAP1 POP JUMPDEST SWAP4 SWAP3 POP POP POP JUMP JUMPDEST PUSH1 0x0 PUSH1 0xFF DUP3 AND SWAP1 POP SWAP2 SWAP1 POP JUMP JUMPDEST PUSH1 0x0 PUSH2 0x9D2 DUP3 PUSH2 0x5F8 JUMP JUMPDEST SWAP2 POP PUSH2 0x9DD DUP4 PUSH2 0x9BA JUMP JUMPDEST SWAP3 POP PUSH2 0xA0A PUSH32 0xFFFFFFFFFFFFFFFFFFFFFFFFFFFFFFFFFFFFFFFFFFFFFFFFFFFFFFFFFFFFFFFF DUP5 DUP5 PUSH2 0x8E7 JUMP JUMPDEST SWAP1 POP SWAP3 SWAP2 POP POP JUMP JUMPDEST PUSH1 0x0 PUSH2 0xA1D DUP3 PUSH2 0x5F8 JUMP JUMPDEST SWAP2 POP PUSH2 0xA28 DUP4 PUSH2 0x5F8 JUMP JUMPDEST SWAP3 POP DUP3 DUP3 MUL PUSH2 0xA36 DUP2 PUSH2 0x5F8 JUMP JUMPDEST SWAP2 POP DUP3 DUP3 DIV DUP5 EQ DUP4 ISZERO OR PUSH2 0xA4D JUMPI PUSH2 0xA4C PUSH2 0x858 JUMP JUMPDEST JUMPDEST POP SWAP3 SWAP2 POP POP JUMP JUMPDEST PUSH1 0x0 PUSH2 0xA5F DUP3 PUSH2 0x5F8 JUMP JUMPDEST SWAP2 POP PUSH2 0xA6A DUP4 PUSH2 0x5F8 JUMP JUMPDEST SWAP3 POP DUP3 DUP3 ADD SWAP1 POP DUP1 DUP3 GT ISZERO PUSH2 0xA82 JUMPI PUSH2 0xA81 PUSH2 0x858 JUMP JUMPDEST JUMPDEST SWAP3 SWAP2 POP POP JUMP JUMPDEST PUSH2 0xA91 DUP2 PUSH2 0x5F8 JUMP JUMPDEST DUP3 MSTORE POP POP JUMP JUMPDEST PUSH1 0x0 PUSH1 0x60 DUP3 ADD SWAP1 POP PUSH2 0xAAC PUSH1 0x0 DUP4 ADD DUP7 PUSH2 0x82E JUMP JUMPDEST PUSH2 0xAB9 PUSH1 0x20 DUP4 ADD DUP6 PUSH2 0xA88 JUMP JUMPDEST PUSH2 0xAC6 PUSH1 0x40 DUP4 ADD DUP5 PUSH2 0xA88 JUMP JUMPDEST SWAP5 SWAP4 POP POP POP POP JUMP JUMPDEST PUSH1 0x0 PUSH1 0x20 DUP3 ADD SWAP1 POP PUSH2 0xAE3 PUSH1 0x0 DUP4 ADD DUP5 PUSH2 0xA88 JUMP JUMPDEST SWAP3 SWAP2 POP POP JUMP JUMPDEST PUSH2 0x1533 DUP1 PUSH2 0xAF8 PUSH1 0x0 CODECOPY PUSH1 0x0 RETURN INVALID PUSH1 0x80 PUSH1 0x40 MSTORE CALLVALUE DUP1 ISZERO PUSH2 0x10 JUMPI PUSH1 0x0 DUP1 REVERT JUMPDEST POP PUSH1 0x4 CALLDATASIZE LT PUSH2 0xF5 JUMPI PUSH1 0x0 CALLDATALOAD PUSH1 0xE0 SHR DUP1 PUSH4 0x715018A6 GT PUSH2 0x97 JUMPI DUP1 PUSH4 0xA9059CBB GT PUSH2 0x66 JUMPI DUP1 PUSH4 0xA9059CBB EQ PUSH2 0x276 JUMPI DUP1 PUSH4 0xD5714091 EQ PUSH2 0x2A6 JUMPI DUP1 PUSH4 0xDD62ED3E EQ PUSH2 0x2C2 JUMPI DUP1 PUSH4 0xF2FDE38B EQ PUSH2 0x2F2 JUMPI PUSH2 0xF5 JUMP JUMPDEST DUP1 PUSH4 0x715018A6 EQ PUSH2 0x200 JUMPI DUP1 PUSH4 0x7A3A9CBD EQ PUSH2 0x20A JUMPI DUP1 PUSH4 0x8DA5CB5B EQ PUSH2 0x23A JUMPI DUP1 PUSH4 0x95D89B41 EQ PUSH2 0x258 JUMPI PUSH2 0xF5 JUMP JUMPDEST DUP1 PUSH4 0x23B872DD GT PUSH2 0xD3 JUMPI DUP1 PUSH4 0x23B872DD EQ PUSH2 0x166 JUMPI DUP1 PUSH4 0x313CE567 EQ PUSH2 0x196 JUMPI DUP1 PUSH4 0x67001E33 EQ PUSH2 0x1B4 JUMPI DUP1 PUSH4 0x70A08231 EQ PUSH2 0x1D0 JUMPI PUSH2 0xF5 JUMP JUMPDEST DUP1 PUSH4 0x6FDDE03 EQ PUSH2 0xFA JUMPI DUP1 PUSH4 0x95EA7B3 EQ PUSH2 0x118 JUMPI DUP1 PUSH4 0x18160DDD EQ PUSH2 0x148 JUMPI JUMPDEST PUSH1 0x0 DUP1 REVERT JUMPDEST PUSH2 0x102 PUSH2 0x30E JUMP JUMPDEST PUSH1 0x40 MLOAD PUSH2 0x10F SWAP2 SWAP1 PUSH2 0xF5B JUMP JUMPDEST PUSH1 0x40 MLOAD DUP1 SWAP2 SUB SWAP1 RETURN JUMPDEST PUSH2 0x132 PUSH1 0x4 DUP1 CALLDATASIZE SUB DUP2 ADD SWAP1 PUSH2 0x12D SWAP2 SWAP1 PUSH2 0x1016 JUMP JUMPDEST PUSH2 0x3A0 JUMP JUMPDEST PUSH1 0x40 MLOAD PUSH2 0x13F SWAP2 SWAP1 PUSH2 0x1071 JUMP JUMPDEST PUSH1 0x40 MLOAD DUP1 SWAP2 SUB SWAP1 RETURN JUMPDEST PUSH2 0x150 PUSH2 0x3C3 JUMP JUMPDEST PUSH1 0x40 MLOAD PUSH2 0x15D SWAP2 SWAP1 PUSH2 0x109B JUMP JUMPDEST PUSH1 0x40 MLOAD DUP1 SWAP2 SUB SWAP1 RETURN JUMPDEST PUSH2 0x180 PUSH1 0x4 DUP1 CALLDATASIZE SUB DUP2 ADD SWAP1 PUSH2 0x17B SWAP2 SWAP1 PUSH2 0x10B6 JUMP JUMPDEST PUSH2 0x3CD JUMP JUMPDEST PUSH1 0x40 MLOAD PUSH2 0x18D SWAP2 SWAP1 PUSH2 0x1071 JUMP JUMPDEST PUSH1 0x40 MLOAD DUP1 SWAP2 SUB SWAP1 RETURN JUMPDEST PUSH2 0x19E PUSH2 0x3FC JUMP JUMPDEST PUSH1 0x40 MLOAD PUSH2 0x1AB SWAP2 SWAP1 PUSH2 0x1125 JUMP JUMPDEST PUSH1 0x40 MLOAD DUP1 SWAP2 SUB SWAP1 RETURN JUMPDEST PUSH2 0x1CE PUSH1 0x4 DUP1 CALLDATASIZE SUB DUP2 ADD SWAP1 PUSH2 0x1C9 SWAP2 SWAP1 PUSH2 0x1140 JUMP JUMPDEST PUSH2 0x405 JUMP JUMPDEST STOP JUMPDEST PUSH2 0x1EA PUSH1 0x4 DUP1 CALLDATASIZE SUB DUP2 ADD SWAP1 PUSH2 0x1E5 SWAP2 SWAP1 PUSH2 0x1140 JUMP JUMPDEST PUSH2 0x468 JUMP JUMPDEST PUSH1 0x40 MLOAD PUSH2 0x1F7 SWAP2 SWAP1 PUSH2 0x109B JUMP JUMPDEST PUSH1 0x40 MLOAD DUP1 SWAP2 SUB SWAP1 RETURN JUMPDEST PUSH2 0x208 PUSH2 0x4B0 JUMP JUMPDEST STOP JUMPDEST PUSH2 0x224 PUSH1 0x4 DUP1 CALLDATASIZE SUB DUP2 ADD SWAP1 PUSH2 0x21F SWAP2 SWAP1 PUSH2 0x1140 JUMP JUMPDEST PUSH2 0x4C4 JUMP JUMPDEST PUSH1 0x40 MLOAD PUSH2 0x231 SWAP2 SWAP1 PUSH2 0x1071 JUMP JUMPDEST PUSH1 0x40 MLOAD DUP1 SWAP2 SUB SWAP1 RETURN JUMPDEST PUSH2 0x242 PUSH2 0x4E4 JUMP JUMPDEST PUSH1 0x40 MLOAD PUSH2 0x24F SWAP2 SWAP1 PUSH2 0x117C JUMP JUMPDEST PUSH1 0x40 MLOAD DUP1 SWAP2 SUB SWAP1 RETURN JUMPDEST PUSH2 0x260 PUSH2 0x50E JUMP JUMPDEST PUSH1 0x40 MLOAD PUSH2 0x26D SWAP2 SWAP1 PUSH2 0xF5B JUMP JUMPDEST PUSH1 0x40 MLOAD DUP1 SWAP2 SUB SWAP1 RETURN JUMPDEST PUSH2 0x290 PUSH1 0x4 DUP1 CALLDATASIZE SUB DUP2 ADD SWAP1 PUSH2 0x28B SWAP2 SWAP1 PUSH2 0x1016 JUMP JUMPDEST PUSH2 0x5A0 JUMP JUMPDEST PUSH1 0x40 MLOAD PUSH2 0x29D SWAP2 SWAP1 PUSH2 0x1071 JUMP JUMPDEST PUSH1 0x40 MLOAD DUP1 SWAP2 SUB SWAP1 RETURN JUMPDEST PUSH2 0x2C0 PUSH1 0x4 DUP1 CALLDATASIZE SUB DUP2 ADD SWAP1 PUSH2 0x2BB SWAP2 SWAP1 PUSH2 0x1016 JUMP JUMPDEST PUSH2 0x5C3 JUMP JUMPDEST STOP JUMPDEST PUSH2 0x2DC PUSH1 0x4 DUP1 CALLDATASIZE SUB DUP2 ADD SWAP1 PUSH2 0x2D7 SWAP2 SWAP1 PUSH2 0x1197 JUMP JUMPDEST PUSH2 0x6D2 JUMP JUMPDEST PUSH1 0x40 MLOAD PUSH2 0x2E9 SWAP2 SWAP1 PUSH2 0x109B JUMP JUMPDEST PUSH1 0x40 MLOAD DUP1 SWAP2 SUB SWAP1 RETURN JUMPDEST PUSH2 0x30C PUSH1 0x4 DUP1 CALLDATASIZE SUB DUP2 ADD SWAP1 PUSH2 0x307 SWAP2 SWAP1 PUSH2 0x1140 JUMP JUMPDEST PUSH2 0x759 JUMP JUMPDEST STOP JUMPDEST PUSH1 0x60 PUSH1 0x3 DUP1 SLOAD PUSH2 0x31D SWAP1 PUSH2 0x1206 JUMP JUMPDEST DUP1 PUSH1 0x1F ADD PUSH1 0x20 DUP1 SWAP2 DIV MUL PUSH1 0x20 ADD PUSH1 0x40 MLOAD SWAP1 DUP2 ADD PUSH1 0x40 MSTORE DUP1 SWAP3 SWAP2 SWAP1 DUP2 DUP2 MSTORE PUSH1 0x20 ADD DUP3 DUP1 SLOAD PUSH2 0x349 SWAP1 PUSH2 0x1206 JUMP JUMPDEST DUP1 ISZERO PUSH2 0x396 JUMPI DUP1 PUSH1 0x1F LT PUSH2 0x36B JUMPI PUSH2 0x100 DUP1 DUP4 SLOAD DIV MUL DUP4 MSTORE SWAP2 PUSH1 0x20 ADD SWAP2 PUSH2 0x396 JUMP JUMPDEST DUP3 ADD SWAP2 SWAP1 PUSH1 0x0 MSTORE PUSH1 0x20 PUSH1 0x0 KECCAK256 SWAP1 JUMPDEST DUP2 SLOAD DUP2 MSTORE SWAP1 PUSH1 0x1 ADD SWAP1 PUSH1 0x20 ADD DUP1 DUP4 GT PUSH2 0x379 JUMPI DUP3 SWAP1 SUB PUSH1 0x1F AND DUP3 ADD SWAP2 JUMPDEST POP POP POP POP POP SWAP1 POP SWAP1 JUMP JUMPDEST PUSH1 0x0 DUP1 PUSH2 0x3AB PUSH2 0x7DF JUMP JUMPDEST SWAP1 POP PUSH2 0x3B8 DUP2 DUP6 DUP6 PUSH2 0x7E7 JUMP JUMPDEST PUSH1 0x1 SWAP2 POP POP SWAP3 SWAP2 POP POP JUMP JUMPDEST PUSH1 0x0 PUSH1 0x2 SLOAD SWAP1 POP SWAP1 JUMP JUMPDEST PUSH1 0x0 DUP1 PUSH2 0x3D8 PUSH2 0x7DF JUMP JUMPDEST SWAP1 POP PUSH2 0x3E5 DUP6 DUP3 DUP6 PUSH2 0x7F9 JUMP JUMPDEST PUSH2 0x3F0 DUP6 DUP6 DUP6 PUSH2 0x88E JUMP JUMPDEST PUSH1 0x1 SWAP2 POP POP SWAP4 SWAP3 POP POP POP JUMP JUMPDEST PUSH1 0x0 PUSH1 0x12 SWAP1 POP SWAP1 JUMP JUMPDEST PUSH2 0x40D PUSH2 0x982 JUMP JUMPDEST PUSH1 0x1 PUSH1 0x6 PUSH1 0x0 DUP4 PUSH20 0xFFFFFFFFFFFFFFFFFFFFFFFFFFFFFFFFFFFFFFFF AND PUSH20 0xFFFFFFFFFFFFFFFFFFFFFFFFFFFFFFFFFFFFFFFF AND DUP2 MSTORE PUSH1 0x20 ADD SWAP1 DUP2 MSTORE PUSH1 0x20 ADD PUSH1 0x0 KECCAK256 PUSH1 0x0 PUSH2 0x100 EXP DUP2 SLOAD DUP2 PUSH1 0xFF MUL NOT AND SWAP1 DUP4 ISZERO ISZERO MUL OR SWAP1 SSTORE POP POP JUMP JUMPDEST PUSH1 0x0 DUP1 PUSH1 0x0 DUP4 PUSH20 0xFFFFFFFFFFFFFFFFFFFFFFFFFFFFFFFFFFFFFFFF AND PUSH20 0xFFFFFFFFFFFFFFFFFFFFFFFFFFFFFFFFFFFFFFFF AND DUP2 MSTORE PUSH1 0x20 ADD SWAP1 DUP2 MSTORE PUSH1 0x20 ADD PUSH1 0x0 KECCAK256 SLOAD SWAP1 POP SWAP2 SWAP1 POP JUMP JUMPDEST PUSH2 0x4B8 PUSH2 0x982 JUMP JUMPDEST PUSH2 0x4C2 PUSH1 0x0 PUSH2 0xA09 JUMP JUMPDEST JUMP JUMPDEST PUSH1 0x6 PUSH1 0x20 MSTORE DUP1 PUSH1 0x0 MSTORE PUSH1 0x40 PUSH1 0x0 KECCAK256 PUSH1 0x0 SWAP2 POP SLOAD SWAP1 PUSH2 0x100 EXP SWAP1 DIV PUSH1 0xFF AND DUP2 JUMP JUMPDEST PUSH1 0x0 PUSH1 0x5 PUSH1 0x0 SWAP1 SLOAD SWAP1 PUSH2 0x100 EXP SWAP1 DIV PUSH20 0xFFFFFFFFFFFFFFFFFFFFFFFFFFFFFFFFFFFFFFFF AND SWAP1 POP SWAP1 JUMP JUMPDEST PUSH1 0x60 PUSH1 0x4 DUP1 SLOAD PUSH2 0x51D SWAP1 PUSH2 0x1206 JUMP JUMPDEST DUP1 PUSH1 0x1F ADD PUSH1 0x20 DUP1 SWAP2 DIV MUL PUSH1 0x20 ADD PUSH1 0x40 MLOAD SWAP1 DUP2 ADD PUSH1 0x40 MSTORE DUP1 SWAP3 SWAP2 SWAP1 DUP2 DUP2 MSTORE PUSH1 0x20 ADD DUP3 DUP1 SLOAD PUSH2 0x549 SWAP1 PUSH2 0x1206 JUMP JUMPDEST DUP1 ISZERO PUSH2 0x596 JUMPI DUP1 PUSH1 0x1F LT PUSH2 0x56B JUMPI PUSH2 0x100 DUP1 DUP4 SLOAD DIV MUL DUP4 MSTORE SWAP2 PUSH1 0x20 ADD SWAP2 PUSH2 0x596 JUMP JUMPDEST DUP3 ADD SWAP2 SWAP1 PUSH1 0x0 MSTORE PUSH1 0x20 PUSH1 0x0 KECCAK256 SWAP1 JUMPDEST DUP2 SLOAD DUP2 MSTORE SWAP1 PUSH1 0x1 ADD SWAP1 PUSH1 0x20 ADD DUP1 DUP4 GT PUSH2 0x579 JUMPI DUP3 SWAP1 SUB PUSH1 0x1F AND DUP3 ADD SWAP2 JUMPDEST POP POP POP POP POP SWAP1 POP SWAP1 JUMP JUMPDEST PUSH1 0x0 DUP1 PUSH2 0x5AB PUSH2 0x7DF JUMP JUMPDEST SWAP1 POP PUSH2 0x5B8 DUP2 DUP6 DUP6 PUSH2 0x88E JUMP JUMPDEST PUSH1 0x1 SWAP2 POP POP SWAP3 SWAP2 POP POP JUMP JUMPDEST PUSH1 0x6 PUSH1 0x0 CALLER PUSH20 0xFFFFFFFFFFFFFFFFFFFFFFFFFFFFFFFFFFFFFFFF AND PUSH20 0xFFFFFFFFFFFFFFFFFFFFFFFFFFFFFFFFFFFFFFFF AND DUP2 MSTORE PUSH1 0x20 ADD SWAP1 DUP2 MSTORE PUSH1 0x20 ADD PUSH1 0x0 KECCAK256 PUSH1 0x0 SWAP1 SLOAD SWAP1 PUSH2 0x100 EXP SWAP1 DIV PUSH1 0xFF AND DUP1 PUSH2 0x64D JUMPI POP PUSH2 0x61E PUSH2 0x4E4 JUMP JUMPDEST PUSH20 0xFFFFFFFFFFFFFFFFFFFFFFFFFFFFFFFFFFFFFFFF AND CALLER PUSH20 0xFFFFFFFFFFFFFFFFFFFFFFFFFFFFFFFFFFFFFFFF AND EQ JUMPDEST PUSH2 0x68C JUMPI PUSH1 0x40 MLOAD PUSH32 0x8C379A000000000000000000000000000000000000000000000000000000000 DUP2 MSTORE PUSH1 0x4 ADD PUSH2 0x683 SWAP1 PUSH2 0x1283 JUMP JUMPDEST PUSH1 0x40 MLOAD DUP1 SWAP2 SUB SWAP1 REVERT JUMPDEST PUSH1 0x0 PUSH2 0x696 PUSH2 0x3FC JUMP JUMPDEST PUSH1 0xA PUSH2 0x6A2 SWAP2 SWAP1 PUSH2 0x1405 JUMP JUMPDEST PUSH1 0x32 DUP4 PUSH2 0x6AF SWAP2 SWAP1 PUSH2 0x1450 JUMP JUMPDEST PUSH2 0x6B9 SWAP2 SWAP1 PUSH2 0x1450 JUMP JUMPDEST SWAP1 POP PUSH2 0x6CD PUSH2 0x6C6 PUSH2 0x4E4 JUMP JUMPDEST DUP5 DUP4 PUSH2 0x88E JUMP JUMPDEST POP POP POP JUMP JUMPDEST PUSH1 0x0 PUSH1 0x1 PUSH1 0x0 DUP5 PUSH20 0xFFFFFFFFFFFFFFFFFFFFFFFFFFFFFFFFFFFFFFFF AND PUSH20 0xFFFFFFFFFFFFFFFFFFFFFFFFFFFFFFFFFFFFFFFF AND DUP2 MSTORE PUSH1 0x20 ADD SWAP1 DUP2 MSTORE PUSH1 0x20 ADD PUSH1 0x0 KECCAK256 PUSH1 0x0 DUP4 PUSH20 0xFFFFFFFFFFFFFFFFFFFFFFFFFFFFFFFFFFFFFFFF AND PUSH20 0xFFFFFFFFFFFFFFFFFFFFFFFFFFFFFFFFFFFFFFFF AND DUP2 MSTORE PUSH1 0x20 ADD SWAP1 DUP2 MSTORE PUSH1 0x20 ADD PUSH1 0x0 KECCAK256 SLOAD SWAP1 POP SWAP3 SWAP2 POP POP JUMP JUMPDEST PUSH2 0x761 PUSH2 0x982 JUMP JUMPDEST PUSH1 0x0 PUSH20 0xFFFFFFFFFFFFFFFFFFFFFFFFFFFFFFFFFFFFFFFF AND DUP2 PUSH20 0xFFFFFFFFFFFFFFFFFFFFFFFFFFFFFFFFFFFFFFFF AND SUB PUSH2 0x7D3 JUMPI PUSH1 0x0 PUSH1 0x40 MLOAD PUSH32 0x1E4FBDF700000000000000000000000000000000000000000000000000000000 DUP2 MSTORE PUSH1 0x4 ADD PUSH2 0x7CA SWAP2 SWAP1 PUSH2 0x117C JUMP JUMPDEST PUSH1 0x40 MLOAD DUP1 SWAP2 SUB SWAP1 REVERT JUMPDEST PUSH2 0x7DC DUP2 PUSH2 0xA09 JUMP JUMPDEST POP JUMP JUMPDEST PUSH1 0x0 CALLER SWAP1 POP SWAP1 JUMP JUMPDEST PUSH2 0x7F4 DUP4 DUP4 DUP4 PUSH1 0x1 PUSH2 0xACF JUMP JUMPDEST POP POP POP JUMP JUMPDEST PUSH1 0x0 PUSH2 0x805 DUP5 DUP5 PUSH2 0x6D2 JUMP JUMPDEST SWAP1 POP PUSH32 0xFFFFFFFFFFFFFFFFFFFFFFFFFFFFFFFFFFFFFFFFFFFFFFFFFFFFFFFFFFFFFFFF DUP2 LT ISZERO PUSH2 0x888 JUMPI DUP2 DUP2 LT ISZERO PUSH2 0x878 JUMPI DUP3 DUP2 DUP4 PUSH1 0x40 MLOAD PUSH32 0xFB8F41B200000000000000000000000000000000000000000000000000000000 DUP2 MSTORE PUSH1 0x4 ADD PUSH2 0x86F SWAP4 SWAP3 SWAP2 SWAP1 PUSH2 0x1492 JUMP JUMPDEST PUSH1 0x40 MLOAD DUP1 SWAP2 SUB SWAP1 REVERT JUMPDEST PUSH2 0x887 DUP5 DUP5 DUP5 DUP5 SUB PUSH1 0x0 PUSH2 0xACF JUMP JUMPDEST JUMPDEST POP POP POP POP JUMP JUMPDEST PUSH1 0x0 PUSH20 0xFFFFFFFFFFFFFFFFFFFFFFFFFFFFFFFFFFFFFFFF AND DUP4 PUSH20 0xFFFFFFFFFFFFFFFFFFFFFFFFFFFFFFFFFFFFFFFF AND SUB PUSH2 0x900 JUMPI PUSH1 0x0 PUSH1 0x40 MLOAD PUSH32 0x96C6FD1E00000000000000000000000000000000000000000000000000000000 DUP2 MSTORE PUSH1 0x4 ADD PUSH2 0x8F7 SWAP2 SWAP1 PUSH2 0x117C JUMP JUMPDEST PUSH1 0x40 MLOAD DUP1 SWAP2 SUB SWAP1 REVERT JUMPDEST PUSH1 0x0 PUSH20 0xFFFFFFFFFFFFFFFFFFFFFFFFFFFFFFFFFFFFFFFF AND DUP3 PUSH20 0xFFFFFFFFFFFFFFFFFFFFFFFFFFFFFFFFFFFFFFFF AND SUB PUSH2 0x972 JUMPI PUSH1 0x0 PUSH1 0x40 MLOAD PUSH32 0xEC442F0500000000000000000000000000000000000000000000000000000000 DUP2 MSTORE PUSH1 0x4 ADD PUSH2 0x969 SWAP2 SWAP1 PUSH2 0x117C JUMP JUMPDEST PUSH1 0x40 MLOAD DUP1 SWAP2 SUB SWAP1 REVERT JUMPDEST PUSH2 0x97D DUP4 DUP4 DUP4 PUSH2 0xCA6 JUMP JUMPDEST POP POP POP JUMP JUMPDEST PUSH2 0x98A PUSH2 0x7DF JUMP JUMPDEST PUSH20 0xFFFFFFFFFFFFFFFFFFFFFFFFFFFFFFFFFFFFFFFF AND PUSH2 0x9A8 PUSH2 0x4E4 JUMP JUMPDEST PUSH20 0xFFFFFFFFFFFFFFFFFFFFFFFFFFFFFFFFFFFFFFFF AND EQ PUSH2 0xA07 JUMPI PUSH2 0x9CB PUSH2 0x7DF JUMP JUMPDEST PUSH1 0x40 MLOAD PUSH32 0x118CDAA700000000000000000000000000000000000000000000000000000000 DUP2 MSTORE PUSH1 0x4 ADD PUSH2 0x9FE SWAP2 SWAP1 PUSH2 0x117C JUMP JUMPDEST PUSH1 0x40 MLOAD DUP1 SWAP2 SUB SWAP1 REVERT JUMPDEST JUMP JUMPDEST PUSH1 0x0 PUSH1 0x5 PUSH1 0x0 SWAP1 SLOAD SWAP1 PUSH2 0x100 EXP SWAP1 DIV PUSH20 0xFFFFFFFFFFFFFFFFFFFFFFFFFFFFFFFFFFFFFFFF AND SWAP1 POP DUP2 PUSH1 0x5 PUSH1 0x0 PUSH2 0x100 EXP DUP2 SLOAD DUP2 PUSH20 0xFFFFFFFFFFFFFFFFFFFFFFFFFFFFFFFFFFFFFFFF MUL NOT AND SWAP1 DUP4 PUSH20 0xFFFFFFFFFFFFFFFFFFFFFFFFFFFFFFFFFFFFFFFF AND MUL OR SWAP1 SSTORE POP DUP2 PUSH20 0xFFFFFFFFFFFFFFFFFFFFFFFFFFFFFFFFFFFFFFFF AND DUP2 PUSH20 0xFFFFFFFFFFFFFFFFFFFFFFFFFFFFFFFFFFFFFFFF AND PUSH32 0x8BE0079C531659141344CD1FD0A4F28419497F9722A3DAAFE3B4186F6B6457E0 PUSH1 0x40 MLOAD PUSH1 0x40 MLOAD DUP1 SWAP2 SUB SWAP1 LOG3 POP POP JUMP JUMPDEST PUSH1 0x0 PUSH20 0xFFFFFFFFFFFFFFFFFFFFFFFFFFFFFFFFFFFFFFFF AND DUP5 PUSH20 0xFFFFFFFFFFFFFFFFFFFFFFFFFFFFFFFFFFFFFFFF AND SUB PUSH2 0xB41 JUMPI PUSH1 0x0 PUSH1 0x40 MLOAD PUSH32 0xE602DF0500000000000000000000000000000000000000000000000000000000 DUP2 MSTORE PUSH1 0x4 ADD PUSH2 0xB38 SWAP2 SWAP1 PUSH2 0x117C JUMP JUMPDEST PUSH1 0x40 MLOAD DUP1 SWAP2 SUB SWAP1 REVERT JUMPDEST PUSH1 0x0 PUSH20 0xFFFFFFFFFFFFFFFFFFFFFFFFFFFFFFFFFFFFFFFF AND DUP4 PUSH20 0xFFFFFFFFFFFFFFFFFFFFFFFFFFFFFFFFFFFFFFFF AND SUB PUSH2 0xBB3 JUMPI PUSH1 0x0 PUSH1 0x40 MLOAD PUSH32 0x94280D6200000000000000000000000000000000000000000000000000000000 DUP2 MSTORE PUSH1 0x4 ADD PUSH2 0xBAA SWAP2 SWAP1 PUSH2 0x117C JUMP JUMPDEST PUSH1 0x40 MLOAD DUP1 SWAP2 SUB SWAP1 REVERT JUMPDEST DUP2 PUSH1 0x1 PUSH1 0x0 DUP7 PUSH20 0xFFFFFFFFFFFFFFFFFFFFFFFFFFFFFFFFFFFFFFFF AND PUSH20 0xFFFFFFFFFFFFFFFFFFFFFFFFFFFFFFFFFFFFFFFF AND DUP2 MSTORE PUSH1 0x20 ADD SWAP1 DUP2 MSTORE PUSH1 0x20 ADD PUSH1 0x0 KECCAK256 PUSH1 0x0 DUP6 PUSH20 0xFFFFFFFFFFFFFFFFFFFFFFFFFFFFFFFFFFFFFFFF AND PUSH20 0xFFFFFFFFFFFFFFFFFFFFFFFFFFFFFFFFFFFFFFFF AND DUP2 MSTORE PUSH1 0x20 ADD SWAP1 DUP2 MSTORE PUSH1 0x20 ADD PUSH1 0x0 KECCAK256 DUP2 SWAP1 SSTORE POP DUP1 ISZERO PUSH2 0xCA0 JUMPI DUP3 PUSH20 0xFFFFFFFFFFFFFFFFFFFFFFFFFFFFFFFFFFFFFFFF AND DUP5 PUSH20 0xFFFFFFFFFFFFFFFFFFFFFFFFFFFFFFFFFFFFFFFF AND PUSH32 0x8C5BE1E5EBEC7D5BD14F71427D1E84F3DD0314C0F7B2291E5B200AC8C7C3B925 DUP5 PUSH1 0x40 MLOAD PUSH2 0xC97 SWAP2 SWAP1 PUSH2 0x109B JUMP JUMPDEST PUSH1 0x40 MLOAD DUP1 SWAP2 SUB SWAP1 LOG3 JUMPDEST POP POP POP POP JUMP JUMPDEST PUSH1 0x0 PUSH20 0xFFFFFFFFFFFFFFFFFFFFFFFFFFFFFFFFFFFFFFFF AND DUP4 PUSH20 0xFFFFFFFFFFFFFFFFFFFFFFFFFFFFFFFFFFFFFFFF AND SUB PUSH2 0xCF8 JUMPI DUP1 PUSH1 0x2 PUSH1 0x0 DUP3 DUP3 SLOAD PUSH2 0xCEC SWAP2 SWAP1 PUSH2 0x14C9 JUMP JUMPDEST SWAP3 POP POP DUP2 SWAP1 SSTORE POP PUSH2 0xDCB JUMP JUMPDEST PUSH1 0x0 DUP1 PUSH1 0x0 DUP6 PUSH20 0xFFFFFFFFFFFFFFFFFFFFFFFFFFFFFFFFFFFFFFFF AND PUSH20 0xFFFFFFFFFFFFFFFFFFFFFFFFFFFFFFFFFFFFFFFF AND DUP2 MSTORE PUSH1 0x20 ADD SWAP1 DUP2 MSTORE PUSH1 0x20 ADD PUSH1 0x0 KECCAK256 SLOAD SWAP1 POP DUP2 DUP2 LT ISZERO PUSH2 0xD84 JUMPI DUP4 DUP2 DUP4 PUSH1 0x40 MLOAD PUSH32 0xE450D38C00000000000000000000000000000000000000000000000000000000 DUP2 MSTORE PUSH1 0x4 ADD PUSH2 0xD7B SWAP4 SWAP3 SWAP2 SWAP1 PUSH2 0x1492 JUMP JUMPDEST PUSH1 0x40 MLOAD DUP1 SWAP2 SUB SWAP1 REVERT JUMPDEST DUP2 DUP2 SUB PUSH1 0x0 DUP1 DUP7 PUSH20 0xFFFFFFFFFFFFFFFFFFFFFFFFFFFFFFFFFFFFFFFF AND PUSH20 0xFFFFFFFFFFFFFFFFFFFFFFFFFFFFFFFFFFFFFFFF AND DUP2 MSTORE PUSH1 0x20 ADD SWAP1 DUP2 MSTORE PUSH1 0x20 ADD PUSH1 0x0 KECCAK256 DUP2 SWAP1 SSTORE POP POP JUMPDEST PUSH1 0x0 PUSH20 0xFFFFFFFFFFFFFFFFFFFFFFFFFFFFFFFFFFFFFFFF AND DUP3 PUSH20 0xFFFFFFFFFFFFFFFFFFFFFFFFFFFFFFFFFFFFFFFF AND SUB PUSH2 0xE14 JUMPI DUP1 PUSH1 0x2 PUSH1 0x0 DUP3 DUP3 SLOAD SUB SWAP3 POP POP DUP2 SWAP1 SSTORE POP PUSH2 0xE61 JUMP JUMPDEST DUP1 PUSH1 0x0 DUP1 DUP5 PUSH20 0xFFFFFFFFFFFFFFFFFFFFFFFFFFFFFFFFFFFFFFFF AND PUSH20 0xFFFFFFFFFFFFFFFFFFFFFFFFFFFFFFFFFFFFFFFF AND DUP2 MSTORE PUSH1 0x20 ADD SWAP1 DUP2 MSTORE PUSH1 0x20 ADD PUSH1 0x0 KECCAK256 PUSH1 0x0 DUP3 DUP3 SLOAD ADD SWAP3 POP POP DUP2 SWAP1 SSTORE POP JUMPDEST DUP2 PUSH20 0xFFFFFFFFFFFFFFFFFFFFFFFFFFFFFFFFFFFFFFFF AND DUP4 PUSH20 0xFFFFFFFFFFFFFFFFFFFFFFFFFFFFFFFFFFFFFFFF AND PUSH32 0xDDF252AD1BE2C89B69C2B068FC378DAA952BA7F163C4A11628F55A4DF523B3EF DUP4 PUSH1 0x40 MLOAD PUSH2 0xEBE SWAP2 SWAP1 PUSH2 0x109B JUMP JUMPDEST PUSH1 0x40 MLOAD DUP1 SWAP2 SUB SWAP1 LOG3 POP POP POP JUMP JUMPDEST PUSH1 0x0 DUP2 MLOAD SWAP1 POP SWAP2 SWAP1 POP JUMP JUMPDEST PUSH1 0x0 DUP3 DUP3 MSTORE PUSH1 0x20 DUP3 ADD SWAP1 POP SWAP3 SWAP2 POP POP JUMP JUMPDEST PUSH1 0x0 JUMPDEST DUP4 DUP2 LT ISZERO PUSH2 0xF05 JUMPI DUP1 DUP3 ADD MLOAD DUP2 DUP5 ADD MSTORE PUSH1 0x20 DUP2 ADD SWAP1 POP PUSH2 0xEEA JUMP JUMPDEST PUSH1 0x0 DUP5 DUP5 ADD MSTORE POP POP POP POP JUMP JUMPDEST PUSH1 0x0 PUSH1 0x1F NOT PUSH1 0x1F DUP4 ADD AND SWAP1 POP SWAP2 SWAP1 POP JUMP JUMPDEST PUSH1 0x0 PUSH2 0xF2D DUP3 PUSH2 0xECB JUMP JUMPDEST PUSH2 0xF37 DUP2 DUP6 PUSH2 0xED6 JUMP JUMPDEST SWAP4 POP PUSH2 0xF47 DUP2 DUP6 PUSH1 0x20 DUP7 ADD PUSH2 0xEE7 JUMP JUMPDEST PUSH2 0xF50 DUP2 PUSH2 0xF11 JUMP JUMPDEST DUP5 ADD SWAP2 POP POP SWAP3 SWAP2 POP POP JUMP JUMPDEST PUSH1 0x0 PUSH1 0x20 DUP3 ADD SWAP1 POP DUP2 DUP2 SUB PUSH1 0x0 DUP4 ADD MSTORE PUSH2 0xF75 DUP2 DUP5 PUSH2 0xF22 JUMP JUMPDEST SWAP1 POP SWAP3 SWAP2 POP POP JUMP JUMPDEST PUSH1 0x0 DUP1 REVERT JUMPDEST PUSH1 0x0 PUSH20 0xFFFFFFFFFFFFFFFFFFFFFFFFFFFFFFFFFFFFFFFF DUP3 AND SWAP1 POP SWAP2 SWAP1 POP JUMP JUMPDEST PUSH1 0x0 PUSH2 0xFAD DUP3 PUSH2 0xF82 JUMP JUMPDEST SWAP1 POP SWAP2 SWAP1 POP JUMP JUMPDEST PUSH2 0xFBD DUP2 PUSH2 0xFA2 JUMP JUMPDEST DUP2 EQ PUSH2 0xFC8 JUMPI PUSH1 0x0 DUP1 REVERT JUMPDEST POP JUMP JUMPDEST PUSH1 0x0 DUP2 CALLDATALOAD SWAP1 POP PUSH2 0xFDA DUP2 PUSH2 0xFB4 JUMP JUMPDEST SWAP3 SWAP2 POP POP JUMP JUMPDEST PUSH1 0x0 DUP2 SWAP1 POP SWAP2 SWAP1 POP JUMP JUMPDEST PUSH2 0xFF3 DUP2 PUSH2 0xFE0 JUMP JUMPDEST DUP2 EQ PUSH2 0xFFE JUMPI PUSH1 0x0 DUP1 REVERT JUMPDEST POP JUMP JUMPDEST PUSH1 0x0 DUP2 CALLDATALOAD SWAP1 POP PUSH2 0x1010 DUP2 PUSH2 0xFEA JUMP JUMPDEST SWAP3 SWAP2 POP POP JUMP JUMPDEST PUSH1 0x0 DUP1 PUSH1 0x40 DUP4 DUP6 SUB SLT ISZERO PUSH2 0x102D JUMPI PUSH2 0x102C PUSH2 0xF7D JUMP JUMPDEST JUMPDEST PUSH1 0x0 PUSH2 0x103B DUP6 DUP3 DUP7 ADD PUSH2 0xFCB JUMP JUMPDEST SWAP3 POP POP PUSH1 0x20 PUSH2 0x104C DUP6 DUP3 DUP7 ADD PUSH2 0x1001 JUMP JUMPDEST SWAP2 POP POP SWAP3 POP SWAP3 SWAP1 POP JUMP JUMPDEST PUSH1 0x0 DUP2 ISZERO ISZERO SWAP1 POP SWAP2 SWAP1 POP JUMP JUMPDEST PUSH2 0x106B DUP2 PUSH2 0x1056 JUMP JUMPDEST DUP3 MSTORE POP POP JUMP JUMPDEST PUSH1 0x0 PUSH1 0x20 DUP3 ADD SWAP1 POP PUSH2 0x1086 PUSH1 0x0 DUP4 ADD DUP5 PUSH2 0x1062 JUMP JUMPDEST SWAP3 SWAP2 POP POP JUMP JUMPDEST PUSH2 0x1095 DUP2 PUSH2 0xFE0 JUMP JUMPDEST DUP3 MSTORE POP POP JUMP JUMPDEST PUSH1 0x0 PUSH1 0x20 DUP3 ADD SWAP1 POP PUSH2 0x10B0 PUSH1 0x0 DUP4 ADD DUP5 PUSH2 0x108C JUMP JUMPDEST SWAP3 SWAP2 POP POP JUMP JUMPDEST PUSH1 0x0 DUP1 PUSH1 0x0 PUSH1 0x60 DUP5 DUP7 SUB SLT ISZERO PUSH2 0x10CF JUMPI PUSH2 0x10CE PUSH2 0xF7D JUMP JUMPDEST JUMPDEST PUSH1 0x0 PUSH2 0x10DD DUP7 DUP3 DUP8 ADD PUSH2 0xFCB JUMP JUMPDEST SWAP4 POP POP PUSH1 0x20 PUSH2 0x10EE DUP7 DUP3 DUP8 ADD PUSH2 0xFCB JUMP JUMPDEST SWAP3 POP POP PUSH1 0x40 PUSH2 0x10FF DUP7 DUP3 DUP8 ADD PUSH2 0x1001 JUMP JUMPDEST SWAP2 POP POP SWAP3 POP SWAP3 POP SWAP3 JUMP JUMPDEST PUSH1 0x0 PUSH1 0xFF DUP3 AND SWAP1 POP SWAP2 SWAP1 POP JUMP JUMPDEST PUSH2 0x111F DUP2 PUSH2 0x1109 JUMP JUMPDEST DUP3 MSTORE POP POP JUMP JUMPDEST PUSH1 0x0 PUSH1 0x20 DUP3 ADD SWAP1 POP PUSH2 0x113A PUSH1 0x0 DUP4 ADD DUP5 PUSH2 0x1116 JUMP JUMPDEST SWAP3 SWAP2 POP POP JUMP JUMPDEST PUSH1 0x0 PUSH1 0x20 DUP3 DUP5 SUB SLT ISZERO PUSH2 0x1156 JUMPI PUSH2 0x1155 PUSH2 0xF7D JUMP JUMPDEST JUMPDEST PUSH1 0x0 PUSH2 0x1164 DUP5 DUP3 DUP6 ADD PUSH2 0xFCB JUMP JUMPDEST SWAP2 POP POP SWAP3 SWAP2 POP POP JUMP JUMPDEST PUSH2 0x1176 DUP2 PUSH2 0xFA2 JUMP JUMPDEST DUP3 MSTORE POP POP JUMP JUMPDEST PUSH1 0x0 PUSH1 0x20 DUP3 ADD SWAP1 POP PUSH2 0x1191 PUSH1 0x0 DUP4 ADD DUP5 PUSH2 0x116D JUMP JUMPDEST SWAP3 SWAP2 POP POP JUMP JUMPDEST PUSH1 0x0 DUP1 PUSH1 0x40 DUP4 DUP6 SUB SLT ISZERO PUSH2 0x11AE JUMPI PUSH2 0x11AD PUSH2 0xF7D JUMP JUMPDEST JUMPDEST PUSH1 0x0 PUSH2 0x11BC DUP6 DUP3 DUP7 ADD PUSH2 0xFCB JUMP JUMPDEST SWAP3 POP POP PUSH1 0x20 PUSH2 0x11CD DUP6 DUP3 DUP7 ADD PUSH2 0xFCB JUMP JUMPDEST SWAP2 POP POP SWAP3 POP SWAP3 SWAP1 POP JUMP JUMPDEST PUSH32 0x4E487B7100000000000000000000000000000000000000000000000000000000 PUSH1 0x0 MSTORE PUSH1 0x22 PUSH1 0x4 MSTORE PUSH1 0x24 PUSH1 0x0 REVERT JUMPDEST PUSH1 0x0 PUSH1 0x2 DUP3 DIV SWAP1 POP PUSH1 0x1 DUP3 AND DUP1 PUSH2 0x121E JUMPI PUSH1 0x7F DUP3 AND SWAP2 POP JUMPDEST PUSH1 0x20 DUP3 LT DUP2 SUB PUSH2 0x1231 JUMPI PUSH2 0x1230 PUSH2 0x11D7 JUMP JUMPDEST JUMPDEST POP SWAP2 SWAP1 POP JUMP JUMPDEST PUSH32 0x4E6F7420617574686F72697A65642072656379636C6572000000000000000000 PUSH1 0x0 DUP3 ADD MSTORE POP JUMP JUMPDEST PUSH1 0x0 PUSH2 0x126D PUSH1 0x17 DUP4 PUSH2 0xED6 JUMP JUMPDEST SWAP2 POP PUSH2 0x1278 DUP3 PUSH2 0x1237 JUMP JUMPDEST PUSH1 0x20 DUP3 ADD SWAP1 POP SWAP2 SWAP1 POP JUMP JUMPDEST PUSH1 0x0 PUSH1 0x20 DUP3 ADD SWAP1 POP DUP2 DUP2 SUB PUSH1 0x0 DUP4 ADD MSTORE PUSH2 0x129C DUP2 PUSH2 0x1260 JUMP JUMPDEST SWAP1 POP SWAP2 SWAP1 POP JUMP JUMPDEST PUSH32 0x4E487B7100000000000000000000000000000000000000000000000000000000 PUSH1 0x0 MSTORE PUSH1 0x11 PUSH1 0x4 MSTORE PUSH1 0x24 PUSH1 0x0 REVERT JUMPDEST PUSH1 0x0 DUP2 PUSH1 0x1 SHR SWAP1 POP SWAP2 SWAP1 POP JUMP JUMPDEST PUSH1 0x0 DUP1 DUP3 SWAP2 POP DUP4 SWAP1 POP JUMPDEST PUSH1 0x1 DUP6 GT ISZERO PUSH2 0x1329 JUMPI DUP1 DUP7 DIV DUP2 GT ISZERO PUSH2 0x1305 JUMPI PUSH2 0x1304 PUSH2 0x12A3 JUMP JUMPDEST JUMPDEST PUSH1 0x1 DUP6 AND ISZERO PUSH2 0x1314 JUMPI DUP1 DUP3 MUL SWAP2 POP JUMPDEST DUP1 DUP2 MUL SWAP1 POP PUSH2 0x1322 DUP6 PUSH2 0x12D2 JUMP JUMPDEST SWAP5 POP PUSH2 0x12E9 JUMP JUMPDEST SWAP5 POP SWAP5 SWAP3 POP POP POP JUMP JUMPDEST PUSH1 0x0 DUP3 PUSH2 0x1342 JUMPI PUSH1 0x1 SWAP1 POP PUSH2 0x13FE JUMP JUMPDEST DUP2 PUSH2 0x1350 JUMPI PUSH1 0x0 SWAP1 POP PUSH2 0x13FE JUMP JUMPDEST DUP2 PUSH1 0x1 DUP2 EQ PUSH2 0x1366 JUMPI PUSH1 0x2 DUP2 EQ PUSH2 0x1370 JUMPI PUSH2 0x139F JUMP JUMPDEST PUSH1 0x1 SWAP2 POP POP PUSH2 0x13FE JUMP JUMPDEST PUSH1 0xFF DUP5 GT ISZERO PUSH2 0x1382 JUMPI PUSH2 0x1381 PUSH2 0x12A3 JUMP JUMPDEST JUMPDEST DUP4 PUSH1 0x2 EXP SWAP2 POP DUP5 DUP3 GT ISZERO PUSH2 0x1399 JUMPI PUSH2 0x1398 PUSH2 0x12A3 JUMP JUMPDEST JUMPDEST POP PUSH2 0x13FE JUMP JUMPDEST POP PUSH1 0x20 DUP4 LT PUSH2 0x133 DUP4 LT AND PUSH1 0x4E DUP5 LT PUSH1 0xB DUP5 LT AND OR ISZERO PUSH2 0x13D4 JUMPI DUP3 DUP3 EXP SWAP1 POP DUP4 DUP2 GT ISZERO PUSH2 0x13CF JUMPI PUSH2 0x13CE PUSH2 0x12A3 JUMP JUMPDEST JUMPDEST PUSH2 0x13FE JUMP JUMPDEST PUSH2 0x13E1 DUP5 DUP5 DUP5 PUSH1 0x1 PUSH2 0x12DF JUMP JUMPDEST SWAP3 POP SWAP1 POP DUP2 DUP5 DIV DUP2 GT ISZERO PUSH2 0x13F8 JUMPI PUSH2 0x13F7 PUSH2 0x12A3 JUMP JUMPDEST JUMPDEST DUP2 DUP2 MUL SWAP1 POP JUMPDEST SWAP4 SWAP3 POP POP POP JUMP JUMPDEST PUSH1 0x0 PUSH2 0x1410 DUP3 PUSH2 0xFE0 JUMP JUMPDEST SWAP2 POP PUSH2 0x141B DUP4 PUSH2 0x1109 JUMP JUMPDEST SWAP3 POP PUSH2 0x1448 PUSH32 0xFFFFFFFFFFFFFFFFFFFFFFFFFFFFFFFFFFFFFFFFFFFFFFFFFFFFFFFFFFFFFFFF DUP5 DUP5 PUSH2 0x1332 JUMP JUMPDEST SWAP1 POP SWAP3 SWAP2 POP POP JUMP JUMPDEST PUSH1 0x0 PUSH2 0x145B DUP3 PUSH2 0xFE0 JUMP JUMPDEST SWAP2 POP PUSH2 0x1466 DUP4 PUSH2 0xFE0 JUMP JUMPDEST SWAP3 POP DUP3 DUP3 MUL PUSH2 0x1474 DUP2 PUSH2 0xFE0 JUMP JUMPDEST SWAP2 POP DUP3 DUP3 DIV DUP5 EQ DUP4 ISZERO OR PUSH2 0x148B JUMPI PUSH2 0x148A PUSH2 0x12A3 JUMP JUMPDEST JUMPDEST POP SWAP3 SWAP2 POP POP JUMP JUMPDEST PUSH1 0x0 PUSH1 0x60 DUP3 ADD SWAP1 POP PUSH2 0x14A7 PUSH1 0x0 DUP4 ADD DUP7 PUSH2 0x116D JUMP JUMPDEST PUSH2 0x14B4 PUSH1 0x20 DUP4 ADD DUP6 PUSH2 0x108C JUMP JUMPDEST PUSH2 0x14C1 PUSH1 0x40 DUP4 ADD DUP5 PUSH2 0x108C JUMP JUMPDEST SWAP5 SWAP4 POP POP POP POP JUMP JUMPDEST PUSH1 0x0 PUSH2 0x14D4 DUP3 PUSH2 0xFE0 JUMP JUMPDEST SWAP2 POP PUSH2 0x14DF DUP4 PUSH2 0xFE0 JUMP JUMPDEST SWAP3 POP DUP3 DUP3 ADD SWAP1 POP DUP1 DUP3 GT ISZERO PUSH2 0x14F7 JUMPI PUSH2 0x14F6 PUSH2 0x12A3 JUMP JUMPDEST JUMPDEST SWAP3 SWAP2 POP POP JUMP INVALID LOG2 PUSH5 0x6970667358 0x22 SLT KECCAK256 LOG3 XOR CREATE2 LOG0 PUSH20 0xD9422AEC9176C01E30E0917ED04EA0A2EF72055A 0xB7 DUP15 DUP7 RETURNDATASIZE REVERT CREATE 0xCF PUSH5 0x736F6C6343 STOP ADDMOD 0x1E STOP CALLER "
				},
				"gasEstimates": {
					"creation": {
						"codeDepositCost": "1085400",
						"executionCost": "infinite",
						"totalCost": "infinite"
					},
					"external": {
						"addRecycler(address)": "infinite",
						"allowance(address,address)": "infinite",
						"approve(address,uint256)": "infinite",
						"balanceOf(address)": "2930",
						"decimals()": "388",
						"issueReward(address,uint256)": "infinite",
						"name()": "infinite",
						"owner()": "2589",
						"recyclers(address)": "2890",
						"renounceOwnership()": "infinite",
						"symbol()": "infinite",
						"totalSupply()": "2505",
						"transfer(address,uint256)": "infinite",
						"transferFrom(address,address,uint256)": "infinite",
						"transferOwnership(address)": "infinite"
					}
				},
				"methodIdentifiers": {
					"addRecycler(address)": "67001e33",
					"allowance(address,address)": "dd62ed3e",
					"approve(address,uint256)": "095ea7b3",
					"balanceOf(address)": "70a08231",
					"decimals()": "313ce567",
					"issueReward(address,uint256)": "d5714091",
					"name()": "06fdde03",
					"owner()": "8da5cb5b",
					"recyclers(address)": "7a3a9cbd",
					"renounceOwnership()": "715018a6",
					"symbol()": "95d89b41",
					"totalSupply()": "18160ddd",
					"transfer(address,uint256)": "a9059cbb",
					"transferFrom(address,address,uint256)": "23b872dd",
					"transferOwnership(address)": "f2fde38b"
				}
			},
			"storageLayout": {
				"storage": [
					{
						"astId": 307,
						"contract": "contracts/EBRToken.sol:EBRToken",
						"label": "_balances",
						"offset": 0,
						"slot": "0",
						"type": "t_mapping(t_address,t_uint256)"
					},
					{
						"astId": 313,
						"contract": "contracts/EBRToken.sol:EBRToken",
						"label": "_allowances",
						"offset": 0,
						"slot": "1",
						"type": "t_mapping(t_address,t_mapping(t_address,t_uint256))"
					},
					{
						"astId": 315,
						"contract": "contracts/EBRToken.sol:EBRToken",
						"label": "_totalSupply",
						"offset": 0,
						"slot": "2",
						"type": "t_uint256"
					},
					{
						"astId": 317,
						"contract": "contracts/EBRToken.sol:EBRToken",
						"label": "_name",
						"offset": 0,
						"slot": "3",
						"type": "t_string_storage"
					},
					{
						"astId": 319,
						"contract": "contracts/EBRToken.sol:EBRToken",
						"label": "_symbol",
						"offset": 0,
						"slot": "4",
						"type": "t_string_storage"
					},
					{
						"astId": 8,
						"contract": "contracts/EBRToken.sol:EBRToken",
						"label": "_owner",
						"offset": 0,
						"slot": "5",
						"type": "t_address"
					},
					{
						"astId": 945,
						"contract": "contracts/EBRToken.sol:EBRToken",
						"label": "recyclers",
						"offset": 0,
						"slot": "6",
						"type": "t_mapping(t_address,t_bool)"
					}
				],
				"types": {
					"t_address": {
						"encoding": "inplace",
						"label": "address",
						"numberOfBytes": "20"
					},
					"t_bool": {
						"encoding": "inplace",
						"label": "bool",
						"numberOfBytes": "1"
					},
					"t_mapping(t_address,t_bool)": {
						"encoding": "mapping",
						"key": "t_address",
						"label": "mapping(address => bool)",
						"numberOfBytes": "32",
						"value": "t_bool"
					},
					"t_mapping(t_address,t_mapping(t_address,t_uint256))": {
						"encoding": "mapping",
						"key": "t_address",
						"label": "mapping(address => mapping(address => uint256))",
						"numberOfBytes": "32",
						"value": "t_mapping(t_address,t_uint256)"
					},
					"t_mapping(t_address,t_uint256)": {
						"encoding": "mapping",
						"key": "t_address",
						"label": "mapping(address => uint256)",
						"numberOfBytes": "32",
						"value": "t_uint256"
					},
					"t_string_storage": {
						"encoding": "bytes",
						"label": "string",
						"numberOfBytes": "32"
					},
					"t_uint256": {
						"encoding": "inplace",
						"label": "uint256",
						"numberOfBytes": "32"
					}
				}
			},
			"userdoc": {
				"kind": "user",
				"methods": {},
				"version": 1
			}
		}
	}
}